:020000040800F2
:10000000D8080020B1180008B9180008BB1800086B
:10001000BD180008BF180008C11800080000000043
:10002000000000000000000000000000C3180008ED
:10003000C518000800000000C7180008C91800080B
:10004000CB180008CB180008CB180008DB170008F5
:10005000CB180008CB1800080F1100082711000862
:10006000CB180008CB180008CB180008CB180008E4
:10007000CB180008CB180008CB180008CB180008D4
:10008000CB180008CB180008CB180008CB180008C4
:10009000CB180008CB180008CB180008CB180008B4
:1000A000CB180008CB180008CB180008CB180008A4
:1000B0005F120008CB180008CB180008CB18000806
:1000C000CB180008CB180008CB180008CB18000884
:1000D000CB18000873040008590500083906000809
:1000E000CB180008CB180008CB180008CB18000864
:1000F000CB180008CB180008CB180008CB18000854
:10010000CB180008CB180008CB180008CB18000843
:10011000CB180008CB180008CB180008CB18000833
:10012000CB180008CB180008CB180008CB18000823
:10013000DFF80CD004F0F2FA00480047A9010008EB
:10014000D808002000BF0100A0F10100FBD17047DA
:1001500070B500F066FC2A49086000F09AFC294955
:10016000086000F015FC284908602548006804F084
:10017000BDF8044622460B4624A004F03DFB21486E
:10018000006804F0B3F8044622460B4624A004F0AD
:1001900033FB1D48006804F0A9F8044622460B46CC
:1001A00024A004F029FB70BD01F003FC482000F0FE
:1001B00071FA01F0AEF800F0B6F823A004F01CFBD1
:1001C00030A004F019FB3EA004F016FB01F0D7FAB2
:1001D00001F038FA4FF47A7001F0B4F800F058FBEF
:1001E000012001F0BFF8012001F0FDF807E04348CD
:1001F000007820B1FFF7ACFF002040490870F6E717
:1002000004000020080000200C000020424154544B
:1002100020566F6C746167653A2533660D0A0000DD
:1002200044435F494E20566F6C746167653A2533CD
:10023000660D0A004F504D20566F6C746167653A29
:100240002533660D0A0000002A2A2A2A2A2A2A2A89
:100250002A2A2A2A4752414E445741592D4F544485
:10026000522046484F333030304173657269616CBB
:10027000205226442A2A2A2A2A2A2A2A2A2A2A0DC7
:100280000A0000002A2A2A2A2A2A2A2A2A2A2A2A6C
:100290002A2A4D43553A53544D3332463130335266
:1002A0004320202A2A2A2A2A2A2A2A2A2A2A2A2AA9
:1002B0002A2A2A2A2A2A2A2A2A2A0D0A0000000083
:1002C0002A2A2A2A2A2A2A2A2A2A2A2A436F70799B
:1002D0007269676874206279205275616E207A684D
:1002E000696775616E672A2A2A2A2A2A2A2A2A2AEF
:1002F0002A2A2A2A2A2A0D0A00000000E4000020E7
:1003000008B54FF4C06002F017FC25208DF80000FE
:1003100001208DF801008DF802008DF80300684679
:1003200002F00FFC08BD00B585B0012144F20400C5
:1003300002F096F94FF40070ADF8100018208DF817
:10034000130003208DF8120004A9C74801F0CCFE69
:100350004FF48060ADF8100004208DF8130004A95C
:10036000C14801F0C1FE4FF4E13000900020ADF82B
:100370000400ADF80600ADF80800ADF80C000C2044
:10038000ADF80A006946B94802F015FA0121B748EC
:1003900002F09DFAFFF7B4FF012240F22551B34865
:1003A00002F0A1FA0121B14802F091FA05B000BDB6
:1003B00070B504460D4600BF4021AC4802F062FB18
:1003C0000028F9D0E1B2A94802F0EEFA00BF4021BE
:1003D000A64802F057FB0028F9D0204670BD10B5A2
:1003E000044600BF2021A14802F04CFB0028F9D0B0
:1003F0009E4802F0DDFA10BD70B506460C46002599
:1004000013E000BF4021304602F03CFB0028F9D049
:10041000615D304602F0C8FA00BF4021304602F06C
:1004200031FB0128F9D1681CC5B2605D0028E8D114
:1004300070BD2DE9F04107460D461646002400BF69
:1004400013E000BF4021384602F01CFB0028F9D021
:10045000295D384602F0A8FA00BF4021384602F074
:1004600011FB0128F9D1601CC4B2B442E9DBBDE83C
:10047000F08110B540F225517C4802F003FB0128C1
:1004800008D140F22551794802F03CFB774802F050
:100490008FFAC4B210BD704710B575A004F0ACF966
:1004A00010BD10B574A004F0A7F910BD704700B5D9
:1004B00085B00121734802F0E0F80420ADF8100087
:1004C00018208DF8130003208DF8120004A9664847
:1004D00001F00AFE0820ADF8100004208DF813008A
:1004E00004A9614801F000FE4FF4E13000900020C3
:1004F000ADF80400ADF80600ADF80800ADF80C004A
:100500000C20ADF80A0069465F4802F054F9012159
:100510005D4802F0DCF9012240F225515A4802F010
:10052000E2F90121584802F0D2F905B000BD08B542
:100530004FF4C06002F000FB26208DF8000001207F
:100540008DF8010002208DF8020001208DF80300D3
:10055000684602F0F6FA08BD10B5002440F22551B5
:10056000494802F08FFA012808D140F22551464847
:1005700002F0C8FA444802F01BFAC4B210BD08B534
:100580004FF4C06002F0D8FA27208DF80000012057
:100590008DF8010003208DF8020001208DF8030082
:1005A000684602F0CEFA08BD00B585B001210820EA
:1005B00002F056F80121880402F05FF84FF48060E1
:1005C000ADF8100018208DF8130003208DF81200EC
:1005D00004A92E4801F088FD4FF40060ADF810002A
:1005E00004208DF8130004A9284801F07DFD4FF484
:1005F000E13000900020ADF80400ADF80600ADF841
:100600000800ADF80C000C20ADF80A00694620483F
:1006100002F0D1F801211E4802F059F9FFF7AFFFAF
:10062000012240F225511A4802F05DF901211848D3
:1006300002F04DF905B000BD10B5002440F225517F
:10064000134802F01FFA01280CD140F2255110483E
:1006500002F058FA0E4802F0ABF9C4B22146034842
:1006600002F0A2F910BD000000080140003801406E
:1006700043542B4F4B0D0A0043542B4552524F0D00
:100680000A0000000400020000440040000C014089
:100690000048004010B504466FF0040002F09BFAD9
:1006A000E11704EB5171C1F3C701294A11701046DB
:1006B000007800EB4001C1EBC0104FF6FF7101EA7A
:1006C000C0002449088010BD0146224A12884A43CE
:1006D0004FF0E0235A6100229A6101221A6100BFA3
:1006E0004FF0E022106900F001021AB100F48032EC
:1006F000002AF5D000224FF0E0231A619A6170477A
:100700000146134A12784A434FF0E0235A6100220F
:100710009A6101221A6100BF4FF0E022106900F0D7
:1007200001021AB100F48032002AF5D000224FF005
:10073000E0231A619A61704710B5044602E0012077
:10074000FFF7C2FF2000A4F10104F8D110BD0000A2
:10075000100000201200002008B50121082001F03F
:100760007FFF0320ADF8000000208DF80300032078
:100770008DF802006946FA4801F0B6FC012110200C
:1007800001F06EFF1020ADF8000000208DF803008E
:1007900003208DF802006946F24801F0A5FC08BD6F
:1007A00010B50121084601F04EFF01214FF40670FB
:1007B00001F056FFEC48ED490860ED484860002024
:1007C00088601E20C86000200861802048614000C9
:1007D00088618000C8612020086200024862002011
:1007E0008862E44802F0B8FA0121E24802F0DFFA38
:1007F000DD484C3801F062F90020DF490860012033
:10080000087148714FF4602088600020C8600320A0
:100810000874D5484C3801F078F9072301220821E3
:10082000D1484C3801F009FA072302220921CE48A9
:100830004C3801F002FA072303220E21CA484C3833
:1008400001F0FBF90121C8484C3801F095F901216C
:10085000C5484C3801F085F9C3484C3801F0A3F97C
:1008600000BFC1484C3801F0A3F90028F9D1BE48B7
:100870004C3801F0A7F900BFBB484C3801F0A7F98C
:100880000028F9D10121B8484C3801F0AAF910BD6F
:1008900010B5FFF761FFFFF783FF4FF4004001F051
:1008A00043FE0121084601F0CEFE10BD70B50024C4
:1008B0000025B248048804EB4411080B03F011FD35
:1008C000054670BD2DE9F04F87B00024A146A24631
:1008D000A3460020049000BF20E04FF0000AD1465C
:1008E00011E009EB4900A24901EB400030F8140087
:1008F0004FF6FF7190FBF1F201FB1200824409F107
:10090000010000F0FF09B9F10A0FEADB0A20BAFB87
:10091000F0F005A941F82400601CC4B2022CDCDB15
:10092000069803F0DEFC8346584603F0DFFC4FF0E8
:100930006632934BCDE9000103F0E9FB0022914BB5
:10094000CDE9020103F055FC074600224FF0804339
:1009500003F0DDFB054603F005FD8346059803F033
:10096000C0FC0490049803F0C1FC05464FF06632C9
:10097000834B03F0CCFB0022824BCDE9020103F054
:1009800038FC074603F0EEFC049007B0BDE8F08F9A
:100990002DE9F84F4FF0000AD3460020009000BF29
:1009A0000AE00AEB4A00724901EB40008088834468
:1009B0000AF1010000F0FF0ABAF10A0FF1DB0A2088
:1009C000BBFBF0FB584603F08CFC0090009803F052
:1009D0008DFC06464FF06632694B03F098FB0446E7
:1009E0000022684B03F005FC804603F0BBFC00903E
:1009F0000098BDE8F88F10B500210022002000BF4C
:100A000008E001EB41035A4C04EB43039B881A4472
:100A10004B1CD9B20A29F4DB0A23B2FBF3F21046CD
:100A200010BD2DE9FE4F4FF0000AD3460020029082
:100A300000BF09E00AEB4A004D4931F81000834439
:100A40000AF1010000F0FF0ABAF10A0FF2DB0A20F6
:100A5000BBFBF0FB584603F044FC0290029803F005
:100A600045FC4FF06632464BCDE9000103F04FFBE9
:100A700006460022434B03F0BCFB0446424A434B6C
:100A800003F045FB804603F06DFC02900298BDE840
:100A9000FE8F2DE9FE4F4FF0000AD3460020029052
:100AA00000BF0AE00AEB4A00314901EB40004088F0
:100AB00083440AF1010000F0FF0ABAF10A0FF1DBEA
:100AC0000A20BBFBF0FB584603F00BFC0290029897
:100AD00003F00CFC4FF06632294BCDE9000103F026
:100AE00016FB06460022274B03F083FB0446264AEA
:100AF000264B03F00CFB804603F034FC0290029876
:100B0000BDE8FE8F08B50121080201F0A9FD4FF4F0
:100B10007050ADF8000010208DF8030003208DF810
:100B2000020069461A4801F0DFFA4FF47051184884
:100B300001F089FB08BD10B50446082C7CD2DFE823
:100B400004F0042B3B4B5B6B7C8C4FF4C851114879
:100B500001F079FB4FF48071024801F074FB88E0EA
:100B6000000C0140001001404C24014060010020B5
:100B70008C010020080002404C01002014000020DD
:100B800066660A400000B040F6285C8FC2F5174048
:100B900000200140000801404FF4C051FE4801F020
:100BA00052FB4FF48071FC4801F04BFB4FF4807115
:100BB000FA4801F046FB5CE04FF48851F64801F03A
:100BC00042FB4FF40061F44801F03BFB4FF48071AD
:100BD000F24801F038FB4CE04FF48051EE4801F050
:100BE00032FB4FF41061EC4801F02BFB4FF48071A5
:100BF000EA4801F028FB3CE04FF41061E64801F0C0
:100C000022FB4FF48051E44801F01BFB4FF480714C
:100C1000E24801F018FB2CE04FF40061DE4801F0DF
:100C200012FB4FF48851DC4801F00BFB4FF480714C
:100C3000DA4801F008FB1CE01AE04FF48071D64856
:100C400001F001FB4FF4C051D34801F0FAFA4FF420
:100C50008071D24801F0F7FA0BE04FF4C851CE484A
:100C600001F0EFFA4FF48071CC4801F0ECFA00E0AB
:100C700000BF00BF10BD08B50121102001F0F0FC3D
:100C80008020ADF8000010208DF8030003208DF8BF
:100C900002006946C14801F027FA8021BF4801F0EF
:100CA000D2FA08BD10B504468021BC4801F0C9FA4B
:100CB000A0B2FFF709FD8021B84801F0C4FA10BDC9
:100CC0002DE9FE4F4FF0000A0020029001900090A5
:100CD000834633E0FFF78FFEB1490860084600689D
:100CE000B0F57A6F13D9AF480078002826DDAD48FB
:100CF0000078401EAB49087008460078FFF71BFFDC
:100D00000220FFF7CFFF0A20FFF7DEFC16E0A44821
:100D10000068322811D2A3480078062800DB0EE0D4
:100D2000A0480078401C9F49087008460078FFF7EB
:100D300002FF0A20FFF7C8FC00E000E0CAE700BF9E
:100D40009848007806282FD19748006B9449096885
:100D500088420BD89548006B01909448406B0090F6
:100D60009148D0F830A0406B029038E08E48C06BBC
:100D70008B49096888420BD38C48806B01908B4863
:100D8000C06B00908848D0F838A0C06B029026E075
:100D90008648C06B01908548006B00908248D0F86F
:100DA0003CA0006B02901AE07E48007840007F492A
:100DB00051F8200001907B4800784000401C51F819
:100DC00020000090774800784000774951F820A033
:100DD000744800784000401C51F8200002900299AD
:100DE000A1EB0A0003F074FA0746DDE9000103F005
:100DF00018F980466A490968A1EB0A0003F068FA0D
:100E00008146414603F013F90646394603F041F99D
:100E10000546019903F0B3F804466548654A12781F
:100E200050F82210204603F002F98346584603F09A
:100E30005DFA804604F05CFB064600225E4B03F040
:100E400066F9044603F08EFA5C4908605C48C0F815
:100E500000B054480078062807D1514800681E2881
:100E600003D20220574908700EE04E48007840B97E
:100E70004B480068B0F57F6F03D9012051490870D5
:100E800002E000204F490870BDE8FE8F2DE9F04FC9
:100E900087B006460C460025A9460020069005901E
:100EA00004908246042E75D1082C73DA3D480078F0
:100EB000FFF741FE0220FFF7F5FE0520FFF704FCD7
:100EC00004203C49087000BF05E0FFF794FD344959
:100ED0000860681CC5B2052DF7DB002030490860AA
:100EE000002508E0FFF787FD2D49096808442C49D3
:100EF0000860681CC5B2052DF4DB2948006805218F
:100F0000B0FBF1F026490860062C2ED12648006B74
:100F1000096888420BD82548006B05902348406B30
:100F200004902148D0F83090406B069030E01E4885
:100F3000C06B1B49096888420BD31C48806B059025
:100F40001A48C06B04901848D0F83890C06B0690CF
:100F50001EE01648C06B05901448006B04901248C0
:100F6000D0F83C90006B069012E060000F4951F8F9
:100F7000200005906000401C51F8200004906000A3
:100F8000094951F820906000401C51F8200006905B
:100F9000069919E053E000000008014000100140EC
:100FA000DC00002016000020740000201800002043
:100FB000B4000020D900002000002440D000002010
:100FC000D4000020D8000020A1EB090003F080F934
:100FD0000390DDE9040103F024F81A49029009683E
:100FE000A1EB090003F074F90190029903F01FF8D6
:100FF0008346039903F04DF88046059902F0BFFF40
:1010000007461148114A127850F82210384603F06A
:101010000EF88246504603F069F9CDE9000104F06C
:1010200067FA00220A4BCDE9020103F070F8074687
:1010300003F098F9074908600748C0F800A007B016
:10104000BDE8F08FDC000020B4000020D9000020B3
:1010500000002440D0000020D400002008B54FF448
:10106000C06001F069FD07208DF8000002208DF8B6
:10107000010001208DF802008DF80300684601F0A0
:1010800060FD06208DF8000002208DF8010003208D
:101090008DF8020001208DF80300684601F051FD33
:1010A00008BD0EB50121112001F0DAFAFFF7D6FFD5
:1010B0000120ADF8080048208DF80B0002A9364841
:1010C00001F012F80021084601F024F901200090F7
:1010D00000208DF804000C208DF8050001208DF80B
:1010E0000600684600F020FF0121002001F012F9FF
:1010F0000220009000208DF804000C208DF80500DF
:1011000001208DF80600684600F00EFF0EBD10B5F8
:10111000012000F06FFF10B101202049087001206C
:1011200000F079FF10BD10B5022000F063FF10B190
:1011300002201A490870022000F06DFF10BD10B5A2
:1011400000240121144801F062F808BB0DE00121E0
:10115000114801F05CF838B90120FFF7B5FA641CBA
:10116000B4F5FA7F01D301E000E0F0E700BFB4F589
:10117000F57F0FD30A48007818B9FF200849087096
:1011800008E007480078012803D1FF2004490870CF
:1011900000E000BF10BD000000080140E100002099
:1011A0000000002008B54FF4E06001F0C5FC1C20F1
:1011B0008DF8000000208DF8010003208DF802005A
:1011C00001208DF80300684601F0BBFC08BD0EB598
:1011D0000121084601F051FA4FF0804001F0B0FFC4
:1011E0004CF25030ADF804004720ADF8000000206C
:1011F000ADF80600ADF8020069464FF0804002F0FD
:1012000073F80121880702F091FE01221146900730
:1012100002F0E1FB0121880702F0C2FB002101205E
:1012200001F02BFA0EBD10B5FFF7BCFFFFF7CFFFA3
:1012300010BD10B5044644B10121084601F01DFA65
:101240000121880702F0ACFB08E00021012001F039
:1012500014FA00214FF0804002F0A2FB10BD10B53F
:101260000121880702F065FE18B10121880702F00C
:1012700071FE10BD08B50121042001F0F1F94FF411
:10128000CC50ADF8000010208DF8030003208DF83D
:1012900002006946744800F027FF08BD08B5012127
:1012A000082001F0DDF94FF28030ADF80000102089
:1012B0008DF8030003208DF8020069466B4800F0AA
:1012C00013FF08BD08B50121102001F0C9F941F252
:1012D000CF30ADF8000010208DF8030003208DF80A
:1012E00002006946624800F0FFFE08BD08B5012112
:1012F000202001F0B5F90420ADF8000010208DF891
:10130000030003208DF8020069465A4800F0ECFE05
:1013100008BD10B5FFF7AEFFFFF7C0FFFFF7D2FF24
:10132000FFF7E4FF10BD10B504462CB14FF4805117
:101330004F4800F086FF04E04FF480514C4800F025
:1013400082FF10BD10B504464FF48051484800F0AC
:1013500078FFA0B2FFF7B8F94FF48051444800F08D
:1013600072FF10BD10B5044624B180213E4800F044
:1013700068FF03E080213C4800F065FF10BD10B518
:10138000044624B101213A4800F05BFF03E001214B
:10139000374800F058FF10BD10B5044624B10221B3
:1013A000334800F04EFF03E00221314800F04BFFCC
:1013B00010BD10B5044624B104212D4800F041FFB2
:1013C00003E004212A4800F03EFF10BD10B504469A
:1013D00024B10821264800F034FF03E00821244806
:1013E00000F031FF10BD10B504462CB14FF4007170
:1013F0001E4800F026FF04E04FF400711B4800F087
:1014000022FF10BD10B5044624B10421194800F094
:1014100018FF03E00421174800F015FF10BD08B5C0
:101420000121042001F01CF91C20ADF8000004206B
:101430008DF8030003208DF8020069460A4800F089
:1014400053FE08BD10B500240421074800F0DFFE5C
:1014500040B90821044800F0DAFE18B9102102480A
:1014600000F0D5FE10BD000000080140000C014056
:101470000010014000140140F0B58DB00446302248
:10148000E24901A802F069FD6069451E642195FBEF
:10149000F1F12846EA1705EB9272C1EBA2014FF475
:1014A000C87295FBF2F28F186069C11700EB917159
:1014B0008910A0EB810191B96422616991FBF2F37B
:1014C00002FB131131B99200616991FBF2F302FB47
:1014D000131121B92169022901DD012600E000264E
:1014E00040F26D1005FB00712069401E01AA52F800
:1014F00020000844E16808440644072096FBF0F108
:1015000000FB1160A0610DB0F0BD10B50146086987
:10151000801E0861002805DC08690C3008614869F4
:10152000401E48616423486990FBF3F04A69D31771
:1015300002EB9373C0EBA3004FF4C87492FBF4F377
:10154000034440F26F14086960430C2490FBF4F0EC
:101550001844CB68034440F26D1402FB0430AC4BDA
:10156000C01A00EB40008B6803EBC000C0EB00101A
:101570004B6803EB8000C0EB00100B6803EB8000AE
:1015800010BD2DE9F04107460C46A248B7FBF0F626
:10159000B7FBF0F100FB11784FF4616098FBF0F0BD
:1015A000A0604FF4616098FBF0F100FB11803C21DA
:1015B00090FBF1F060604FF4616098FBF0F100FB8C
:1015C00011803C2190FBF1F201FB1200206040F2FF
:1015D000B27509E005F0030010B94FF4B77001E0EF
:1015E00040F26D10361A6D1C05F0030010B94FF46F
:1015F000B77001E040F26D10B042EBDD65616069EB
:10160000C11700EB91718910A0EB810111B91D2068
:1016100081494860012505E0681E7F4951F8200096
:10162000361A6D1C681E7C4951F82000B042F3DD6B
:101630001C2048602561701CE0602046FFF71CFFFD
:10164000BDE8F08108B500214FF0006001F0ABFA71
:101650004FF4C06001F070FA03208DF80000012003
:101660008DF8010000208DF8020001208DF80300A4
:10167000684601F066FA08BD10B501214FF0C05070
:1016800000F0FBFF012001F09EFC012000F055FF5F
:1016900000BF412000F0B9FE0028FAD04FF480705E
:1016A00000F067FF012000F06AFF01F042FC01F04A
:1016B00037FC0121084601F0D7FB01F031FC47F669
:1016C000FF7001F007FC01F02BFC10BD10B50446C3
:1016D00052A003F091F86069B0F5FC6F04DB40F6AE
:1016E0003401606988420CDD4FF4FC6060610520C4
:1016F00020610B20E0600F20A060322060603B2062
:10170000206010BD10B501F00BFC4948FFF7DEFF6B
:101710004748FFF7B1FE4648FFF7F7FE044601F0E1
:10172000CCFB01F0FDFB10BD7FB5044640492046CF
:10173000FFF727FF3E4800683D4949683C4A9268E8
:101740003B4B9B693B4D2D68EB5CCDE90032CDE90D
:1017500002103748C3680269416937A003F04CF8AA
:101760007FBD10B543480078012807D101F09CFBEC
:101770000446FFF7D9FF00203E49087010BD10B5A0
:10178000FFF77AFFFFF75EFF042001F0ACFC4AF29E
:10179000A55188420FD038A003F02EF8FFF76CFF58
:1017A0003DA003F029F8FFF7ADFF4AF2A551042050
:1017B00001F08DFC0EE07B2000F027FE10B97A20AE
:1017C00000F023FE01F0B5FB0121084601F04CFBBF
:1017D00001F0A6FB00F082FF10BD10B5012001F062
:1017E000CDFB88B1012001F0D9FB0120214908700F
:1017F00001F096FB01F058FB0649884204D1002015
:1018000001F05BFB01F08CFB10BD0000E45500080B
:101810008BFA0A0080510100EC000020456E7465CF
:101820007220526567756C6174650D0A00000000D6
:10183000B8040020E80000200D0A20B5B1C7B0CAE6
:10184000B1BCE4CEAA3A202564C4EA202564D4C2FF
:10185000202564C8D52028D0C7C6DA2573292020C2
:1018600025302E32643A25302E32643A25302E321D
:1018700064000000E40000200D0A0A2052544320B6
:101880006E6F742079657420636F6E666967757218
:1018900065642E2E2E2E00000D0A20525443206324
:1018A0006F6E666967757265642E2E2E2E000000BD
:1018B0000648804706480047FEE7FEE7FEE7FEE7EA
:1018C000FEE7FEE7FEE7FEE7FEE7FEE7B3190008E6
:1018D000310100080CB50020019000906C480068B0
:1018E00040F480306A49086000BF6948006800F42D
:1018F000003000900198401C0190009818B90198A0
:10190000B0F5A06FF1D16248006800F4003010B16A
:101910000120009001E0002000900098012843D1B0
:101920005C48006840F010005A49086008460068AA
:1019300020F0030008600846006840F002000860DC
:101940005348406852494860084640684860084625
:10195000406840F4806048600846406820F47C108D
:1019600048600846406840F48810486008460068AF
:1019700040F08070086000BF4548006800F00070CB
:101980000028F9D04248406820F0030040494860F0
:101990000846406840F00200486000BF3C4840688C
:1019A00000F00C000828F9D10CBD10B5FFF792FF2C
:1019B00010BD10B53648006840F001003449086099
:1019C0000846406834490840314948600846006884
:1019D000324908402E4908600846006820F48020FB
:1019E00008600846406820F4FE0048604FF41F007D
:1019F0008860FFF7DAFF4FF000602949086010BDEA
:101A000010B5002100200022214B5B6803F00C017F
:101A100021B1042906D0082928D107E0214B224C06
:101A2000236027E0214B204C236023E0184B5B68A8
:101A300003F47010164B5B6803F48032022303EB4F
:101A4000904022B91A4B4343174C23600DE0104BD2
:101A50005B6803F4003323B1164B4343124C2360FD
:101A600003E0124B4343104C236003E00D4B0E4C3C
:101A7000236000BF00BF064B5B68C3F303130E4C2B
:101A8000E15C094B1B68CB40074C236010BD000094
:101A900000100240002002400000FFF8FFFFF6FEA9
:101AA00008ED00E000127A001C010020001BB700C6
:101AB00000093D00808D5B002001002010B5044628
:101AC000FA48844208D10121401500F0E3FD0021CD
:101AD000601500F0DFFD17E0F548844208D10121D0
:101AE000001500F0D7FD0021201500F0D3FD0BE01C
:101AF000F048844208D10121C80300F0CBFD002149
:101B00004FF4004000F0C6FD10BD30B50246002085
:101B100000235068E84C20400D790C6844EA052405
:101B2000204350609068E54C2040D1E902542C439A
:101B30004D7944EA450420439060D06A20F4700057
:101B40000C7C641EE4B2234340EA0350D06230BDF3
:101B500000210160017141718160C1600121017446
:101B6000704721B1826842F00102826003E082681E
:101B700022F001028260704721B1826842F48072D3
:101B8000826003E0826822F480728260704710B540
:101B90000023CBB21AB144681C43446002E044689D
:101BA0009C43446010BD816841F00801816070472A
:101BB000014600208A6802F008020AB1012000E014
:101BC00000207047816841F0040181607047014640
:101BD00000208A6802F004020AB1012000E000201F
:101BE000704721B1826842F4A002826003E08268FB
:101BF00022F4A00282607047014600208A6802F445
:101C000080020AB1012000E00020704710B50A46AA
:101C100000210023416821F46041531E41EA433111
:101C2000416010BD21B1426842F40062426003E0AD
:101C3000426822F4006242607047F0B504460D46E7
:101C400000200021092D11DDE068A5F10A0606EB50
:101C50004607072606FA07F18843A5F10A0606EBB0
:101C6000460603FA06F10843E0600CE0206905EB44
:101C70004507072606FA07F1884305EB450603FAF0
:101C800006F108432061072A0FDA606B561E06EB47
:101C900086071F2606FA07F18843561E06EB8606BE
:101CA00005FA06F10843606322E00D2A0FDA206B83
:101CB000D61F06EB86071F2606FA07F18843D61FB4
:101CC00006EB860605FA06F10843206310E0E06A99
:101CD000A2F10D0606EB86071F2606FA07F18843D8
:101CE000A2F10D0606EB860605FA06F10843E0624E
:101CF000F0BD21B1826842F48012826003E0826804
:101D000022F48012826070470146C86C80B270472E
:101D100066484C300068704721B1426842F48062E6
:101D2000426003E0426822F480624260704721B161
:101D3000426842F48052426003E0426822F48052DA
:101D4000426070470A460021816821F4E041114356
:101D50008160704721B1826842F40042826003E0F2
:101D6000826822F400428260704721B1826842F4A6
:101D70000212826003E0826822F4021282607047DD
:101D8000014600208A6802F400120AB1012000E036
:101D900000207047F0B504461546002000220026BA
:101DA000092911DDE068A1F10A0707EB470C0727B5
:101DB00007FA0CF29043A1F10A0707EB470703FA71
:101DC00007F21043E0600CE0206901EB410C0727AB
:101DD00007FA0CF2904301EB410703FA07F21043B4
:101DE0002061A06BC0F30156EF1C06F1010CA7EBBC
:101DF0000C0707EB870C1F2707FA0CF29043EF1C28
:101E000006F1010CA7EB0C0707EB870701FA07F2B5
:101E10001043A063F0BD10B50A4600210023816B7A
:101E200021F44011531E41EA0351816310BD08B5EE
:101E3000002300930090009B0B440093009B1A60CA
:101E400008BD08B5024600200090009201F128006C
:101E5000009B184400900098006880B208BD0A46B4
:101E600000214168164B194011434160704741629F
:101E7000826270470A460021416821F01F01114328
:101E80004160704740B109490831096841F40001D7
:101E9000064A0832116007E004490831096821F454
:101EA0000001024A0832116070470000002401401E
:101EB00000280140003C0140FFFEF0FFFDF7F1FF6C
:101EC000FFFD3FFF0246002013680B400BB10120CD
:101ED00000E000207047CA430260704770B50246B8
:101EE0000020002300240B125568CEB205EA060438
:101EF00015681D4015B10CB1012000E0002070BD37
:101F000000220A12D34303607047000000204449B6
:101F10000860091D0860091D0860091D0860414826
:101F20003F4914310860704700213D498279002AF9
:101F30003AD00A46126803689A430B461A600A1D93
:101F4000126803689A430B1D1A60027911440A68EB
:101F500003681A430A60324A0832126803689A43D7
:101F60002F4B08331A601A1D126803689A432C4BD2
:101F70000C331A604279102A0ED11A1F12680368B6
:101F80001A43274B08331A601A1D126803681A4354
:101F9000234B0C331A600DE02149427911440A6841
:101FA00003681A430A6005E0027911440A6803686D
:101FB0009A430A6070470021016001710C21417150
:101FC0000021817170471649103109680143144A94
:101FD00010321160704701460020114A1432126815
:101FE0000A400AB1012000E0002070470C4914317A
:101FF00008607047014600200022094B1B6803EA75
:102000000102074B14331B680B4013B10AB10120C6
:1020100000E000207047024914310860704700005A
:1020200000040140FFFF0F0010B50446CC48844275
:1020300008D10121042000F02DFB0021042000F034
:1020400029FB46E0C748844208D10121082000F05E
:1020500021FB0021082000F01DFB3AE0C248844229
:1020600008D10121102000F015FB0021102000F004
:1020700011FB2EE0BD48844208D10121202000F050
:1020800009FB0021202000F005FB22E0B848844233
:1020900008D10121402000F0FDFA0021402000F08D
:1020A000F9FA16E0B348844208D10121802000F0FB
:1020B000F1FA0021802000F0EDFA0AE0AE488442F7
:1020C00007D10121801500F0E5FA0021A01500F0EC
:1020D000E1FA10BD10B50121084600F0DBFA00213D
:1020E000012000F0D7FA10BD2DE9F041024600258D
:1020F0000026002000230024002791F803C00CF0E4
:102100000F0591F803C00CF0100CBCF1000F03D0C8
:1021100091F802C04CEA050591F800C0BCF1000F2F
:1021200031D0146800202BE04FF0010C0CFA00F3C2
:10213000B1F800C00CEA03069E4220D183004FF0A4
:102140000F0C0CFA03F7BC4305FA03FC4CEA040439
:1021500091F803C0BCF1280F06D14FF0010C0CFA26
:1021600000FCC2F814C00AE091F803C0BCF1480FAB
:1021700005D14FF0010C0CFA00FCC2F810C0401C55
:102180000828D1D31460B1F800C0BCF1FF0F34DDD2
:10219000546800202EE000F1080C4FF0010808FA06
:1021A0000CF3B1F800C00CEA03069E4221D1830073
:1021B0004FF00F0C0CFA03F7BC4305FA03FC4CEA92
:1021C000040491F803C0BCF1280F05D100F1080CFC
:1021D00008FA0CF8C2F8148091F803C0BCF1480F5B
:1021E00007D100F1080C4FF0010808FA0CF8C2F80A
:1021F0001080401C0828CED35460BDE8F0814FF613
:10220000FF710180022181700421C1707047024674
:10221000002093680B400BB1012000E000207047C4
:102220000146886880B2704702460020D3680B40A0
:102230000BB1012000E0002070470146C86880B261
:10224000704701617047416170470AB1016100E068
:1022500041617047C16070474FF480320A43826128
:102260008161826182698269704702460020434B26
:1022700018684FF68073184040EA021008433F4B3D
:10228000186070473E49C8617047F0B50A460023A0
:1022900000240021002500F00046B6F1004F02D1D5
:1022A000364EF16901E0354E7168C0F3034583B2E3
:1022B00000F44016B6F5401F08D121F070612F4E92
:1022C000766826F070662D4F7E6012E000F480166E
:1022D000B6F5801F06D1032606FA05F4A14341F0A6
:1022E000706106E0460D360103FA06F6B14341F08F
:1022F000706122B1460D360103FA06F6314300F053
:102300000046B6F1004F02D11C4EF16101E01B4EB8
:102310007160F0BD30B500228B071C0F0F2303FA4C
:1023200004F2164B08338C1053F824309343134CAB
:1023300008348D1044F8253023468C1053F824308F
:102340008C07240F00FA04F423430C4C08348D103E
:1023500044F8253030BD0A49DC3108607047000080
:1023600000080140000C0140001001400014014031
:1023700000180140001C0140002001400000014005
:1023800000002042DF48006840F00100DD4908609D
:1023900008464068DC490840DA4948600846006859
:1023A000DA490840D74908600846006820F48020D0
:1023B00008600846406820F4FE0048604FF41F00A3
:1023C00088607047CF49096821F48031CD4A116097
:1023D0001146096821F480211160B0F5803F03D0D7
:1023E000B0F5802F0ED106E0C649096841F480316E
:1023F000C44A116007E0C349096841F4A021C14AF9
:10240000116000E000BF00BF704710B50146002218
:10241000002300204A11012A02D1BA4C236806E0A9
:10242000022A02D1B74C236A01E0B64C636A01F07C
:102430001F02012494401C400CB1012000E0002048
:1024400010BD38B5002000900024002500BF3120C9
:10245000FFF7DBFF05460098401C00900098B0F5A0
:10246000A06F01D0002DF2D03120FFF7CEFF08B1D0
:10247000012400E00024204638BD01460020A14A86
:10248000106820F0F80040EAC10010607047A049D1
:1024900008607047024600209A4B586820F47C1070
:1024A00042EA01031843974B586070479849086601
:1024B000704701460020934A506820F0030008430B
:1024C000506070478F48406800F00C00704701462C
:1024D00000208C4A506820F0F0000843506070479C
:1024E00001460020874A506820F4E06008435060AD
:1024F000704701460020834A506820F4605040EA4B
:10250000C1005060704729B17E4A527A02437D4B28
:102510005A7204E07B4A527A82437A4B5A7270476D
:102520007B49D8310860704701460020754A5068E1
:1025300020F440400843506070470021714A203227
:102540001170704A82F82010012802D004280AD1A4
:1025500004E001216B4A2032117005E00521694A2F
:102560002032117000E000BF00BF70476949086069
:1025700070476449096A0143624A116270476549BC
:1025800044390860704730B5002100220024002340
:102590005C4D6D6805F00C0121B1042905D00829B6
:1025A00023D105E05C4D056022E05C4D05601FE035
:1025B000544D6D6805F47012524D6D6805F4803409
:1025C000022505EB92421CB9554D554305600BE0C1
:1025D0004C4D6D6805F400351DB1524D55430560F5
:1025E00002E04E4D5543056002E04B4D056000BFD3
:1025F00000BF444D6D6805F0F00109094A4D6B5C60
:102600000568DD4045603F4D6D6805F4E061090AED
:10261000454D6B5C4568DD4085603A4D6D6805F45D
:102620006051C90A404D6B5C4568DD40C560354D61
:102630006D6805F44041890B3C4D6B5CC568B5FB8A
:10264000F3F5056130BD29B12E4A526902432D4B85
:102650005A6104E02B4A526982432A4B5A617047FF
:1026600029B1284A92690243264B9A6104E0254A1F
:1026700092698243234B9A61704729B1214AD269FA
:102680000243204BDA6104E01E4AD26982431D4BAB
:10269000DA61704729B11B4AD2680243194BDA60EC
:1026A00004E0184AD2688243164BDA60704729B1B9
:1026B000144A12690243134B1A6104E0114A126969
:1026C0008243104B1A6170471249403908607047C5
:1026D0000F49C86470470B49C87170470948406A80
:1026E00040F0807007494862704701460020054A63
:1026F00092680A400AB1012000E0002070470149B9
:1027000088727047001002400000FFF8FFFFF6FEDD
:10271000000042428004424200127A00001BB700CF
:1027200000093D00808D5B00300100204001002049
:1027300010B50446FB48844209D101218803FFF704
:10274000A9FF00214FF48040FFF7A4FF32E0F648D4
:10275000844209D101214804FFF7A9FF00214FF469
:102760000030FFF7A4FF25E0F048844209D10121A1
:102770008804FFF79CFF00214FF48020FFF797FFAC
:1027800018E0EB48844209D10121C804FFF78FFF0C
:1027900000214FF40020FFF78AFF0BE0E548844258
:1027A00008D101210805FFF782FF00214FF48010B6
:1027B000FFF77DFF10BD2DE9F04786B005460E46B8
:1027C0000024A24600BFA1460027B08900B100BF87
:1027D0002F462C8A4CF6FF700440F08804432C826C
:1027E000AC894EF6F3100440B088318908437189F2
:1027F00008430443AC81AC8A4FF6FF400440B089E3
:102800000443AC8201A8FFF7BEFEC648874202D14E
:10281000DDF810A001E0DDF80CA0A88900F400406C
:1028200040B10AEBCA0000EB0A1031684900B0FB66
:10283000F1F807E00AEBCA0000EB0A1031688900E2
:10284000B0FBF1F86420B8FBF0F00401200964212A
:1028500001FB1089A88900F4004040B1322000EB50
:10286000C900B0FBF1F000F00700044308E032209B
:1028700000EB09106421B0FBF1F000F00F000443FD
:102880002C8106B0BDE8F0874FF41651016000219D
:102890008180C18001810C214181002181817047AB
:1028A00010B502460020108A4FF2FF0318400B8833
:1028B0004C8823438C882343CC88234318431082BD
:1028C00010BD0021018041808180C180704721B10D
:1028D000828942F40052828104E082894DF6FF73BE
:1028E0001A4082817047F0B5034600240026002577
:1028F000002040F66A17B94200D100BF1846C1F364
:10290000421401F01F06012707FA06F5012C01D138
:102910000C3004E0022C01D1103000E014301AB168
:1029200007682F43076002E00768AF430760F0BD08
:102930001AB1838A0B43838202E0838A8B438382AA
:102940007047028A4FF6F0731A400282028A0A43E5
:102950000282704782894FF2FF731A408281828916
:102960000A438281704721B1828942F0020282814A
:1029700004E082894FF6FD731A4082817047028A13
:102980004FF6DF731A400282028A0A4302827047BE
:1029900021B1028A42F48042028204E0028A4BF6AC
:1029A000FF731A4002827047C1F3080282807047A9
:1029B00001468888C0F308007047818941F0010111
:1029C00081817047028BD2B20283028B42EA0122DC
:1029D00002837047028B02F47F420283028B0A4318
:1029E0000283704721B1828A42F02002828204E091
:1029F000828A4FF6DF731A408282704721B1828A41
:102A000042F01002828204E0828A4FF6EF731A408D
:102A10008282704721B1828A42F00802828204E0F9
:102A2000828A4FF6F7731A408282704721B18289F9
:102A300042F40042828103E08289C2F30E02828165
:102A4000704721B1828A42F40062828204E0828A65
:102A50004FF2FF731A4082827047828A4FF6FB73EF
:102A60001A408282828A0A438282704721B1828A16
:102A700042F00202828204E0828A4FF6FD731A401D
:102A80008282704702460020B1F5007F00D100BF6E
:102A900013880B400BB1012000E00020704701F4C7
:102AA0000072B2F5007F00D100BFCA4302807047B8
:102AB00070B50246002400230025002040F66A1667
:102AC000B14200D100BFC1F3421501F01F0301263E
:102AD00006FA03F3012D02D19689334006E0022D58
:102AE00002D1168A334001E0968A33400C12012647
:102AF00006FA04F41688344013B10CB1012000E04A
:102B0000002070BD10B50022002340F66A14A142D7
:102B100000D100BF0A1201249440A3B2DC43048018
:102B200010BD000000380140004400400048004053
:102B3000004C00400050004031490143314A1160CF
:102B4000704770B5002100230F22C47804B32D4CC8
:102B5000246804F4E064C4F5E064210AC1F10403CC
:102B6000CA40447804FA03F18478144021430901EF
:102B7000254C0678A155047804F01F050124AC40CB
:102B800005786D11AD0005F1E025C5F8004109E0BB
:102B9000047804F01F050124AC401C4D0678761122
:102BA00045F8264070BD1A4A0A400243154B1B1FC8
:102BB0001A60704739B1134A121D12680243114B53
:102BC0001B1D1A6006E00F4A121D126882430D4B4E
:102BD0001B1D1A607047042808D14FF0E0210969D5
:102BE00041F004014FF0E022116107E04FF0E021D5
:102BF000096921F004014FF0E022116170470000E3
:102C00000000FA050CED00E000E400E080E100E0E7
:102C100080FFFF1F01684FF6FE7211400160002126
:102C2000016041608160C1608D49884208D18C4952
:102C30000839496841F00F01894A083A51608AE031
:102C400087491431884208D185490839496841F0DB
:102C5000F001834A083A51607DE081492831884279
:102C600008D17F490839496841F470617C4A083AC3
:102C7000516070E07A493C31884208D1784908397E
:102C8000496841F47041764A083A516063E07449FA
:102C90005031884208D172490839496841F470219D
:102CA0006F4A083A516056E06D496431884208D154
:102CB0006B490839496841F47001694A083A516022
:102CC00049E067497831884208D16549083949683F
:102CD00041F07061624A083A51603CE061498842C3
:102CE00006D1011F096841F00F01021F116032E097
:102CF0005C491431884208D15A49091F096841F0DA
:102D0000F001584A121F116025E0564928318842C7
:102D100008D15449091F096841F47061514A121FD2
:102D2000116018E04F493C31884208D14D49091FD4
:102D3000096841F470414B4A121F11600BE0494988
:102D40005031884207D14749091F096841F4702171
:102D5000444A121F1160704710B50022026847F6FE
:102D6000F0739A430C6A8B6823430C6923434C69C4
:102D700023438C692343CC6923434C6A23438C6AE5
:102D800023431A430260CB6843600B6883604B683F
:102D9000C36010BD0021016041608160C1600161BC
:102DA00041618161C161016241628162704721B10B
:102DB000026842F00102026004E002684FF6FE730E
:102DC0001A40026070471AB103680B43036002E0C7
:102DD00003688B4303607047416070470146486851
:102DE00080B2704701460020002201F080531BB1E1
:102DF0001C4B083B1A6802E0194B083B1A6802EAB0
:102E000001030BB1012000E00020704700F0805169
:102E100019B11449091F086002E0114908394860D6
:102E2000704701460020002201F080531BB10D4B7A
:102E3000083B1A6802E00A4B083B1A6802EA0103E1
:102E40000BB1012000E00020704700F0805119B163
:102E50000449091F086002E00149083948607047C9
:102E6000080002400804024029B1504A1288024377
:102E70004E4B1A8004E04D4A128882434B4B1A8015
:102E800070474A48001D008840F010004749091D5E
:102E9000088070474548001D00884FF6EF710840D4
:102EA0004249091D08807047002140481C300188B4
:102EB000001F008841EA0040704700B50246FFF756
:102EC000E0FF100C394918310880091D0A80FFF70E
:102ED000E1FF00BD00B50246FFF7D3FFC2F3034098
:102EE000324908310880091D0A80FFF7D3FF00BD71
:102EF00000B50246FFF7C5FF100C2C4920310880B1
:102F0000091D0A80FFF7C6FF00BD002027491031C8
:102F100009880907080B25491431098808437047B7
:102F200000BF2248001D008800F020000028F8D0D3
:102F300070471E48001D00884FF6F77108401B4976
:102F4000091D088000BF1948001D008800F0080016
:102F50000028F8D0704701460020144A121D12883C
:102F60000A400AB1012000E0002070470F49091D06
:102F7000098881430D4A121D1180704701460020C7
:102F80000A4A121D12880A40D0B2084A12880A4022
:102F900012B108B1012000E0002070470349091D6B
:102FA00009888143014A121D1180704700280040A2
:102FB00010B501210807FFF77AFB00214FF0805080
:102FC000FFF775FB10BD2A49086270472849086160
:102FD000704701460020274A106820F0E0000843AF
:102FE000106070472249A0310860704710B5024652
:102FF0000020204B186820F00300104318601E4B7F
:103000001B6843F004031C4C2360012901D130BF2D
:1030100000E020BF184B1B6823F00403164C23600C
:1030200010BD1448006840F00400124908600846CA
:10303000006840F0020008600F48006840F004009B
:103040000D49086000BF00BF30BF70470146002037
:10305000084A52680A400AB1012000E00020704787
:103060000449096841EA8001024A11607047000082
:1030700000000E420070004010ED00E010B501208D
:10308000FFF722FB0020FFF71FFB10BD2A49086055
:1030900070472949091F0860704727498431086033
:1030A000704701460020254A10884FF67F421040A5
:1030B0000843224A10807047014600201F4A1088AA
:1030C0004FF68072104008431C4A1080704708B5C4
:1030D00000220092194A2C3A0092009A024400926F
:1030E000009A116008BD08B5014600200090134801
:1030F0002C3800900098084400900098008808BD83
:103100000D489C300068C0B270470C4808300088F9
:1031100040F0010009490831088070470648A03096
:103120000068C0B2704705480830008840F00200CF
:10313000024908310880704704860D422C6C00401B
:1031400010B50446FE48844208D10121C014FFF79F
:10315000A1FA0021E014FFF79DFAC4E0B4F1804F1A
:1031600008D101210846FFF7A2FA00210120FFF74C
:103170009EFAB8E0F348844208D101210220FFF70B
:1031800096FA00210220FFF792FAACE0EE48844262
:1031900008D101210420FFF78AFA00210420FFF75B
:1031A00086FAA0E0E948844208D101210820FFF70F
:1031B0007EFA00210820FFF77AFA94E0E44884427E
:1031C00008D101211020FFF772FA00211020FFF72B
:1031D0006EFA88E0DF48844208D101212020FFF701
:1031E00066FA00212020FFF762FA7CE0DA48844288
:1031F00008D101214014FFF74DFA00216014FFF7B8
:1032000049FA70E0D548844209D10121C804FFF78A
:1032100041FA00214FF40020FFF73CFA63E0D04868
:10322000844209D101210805FFF734FA00214FF447
:103230008010FFF72FFA56E0CA48844209D10121D5
:103240004805FFF727FA00214FF40010FFF722FA94
:1032500049E0C548844208D101214020FFF727FA00
:1032600000214020FFF723FA3DE0C048844208D106
:1032700001218020FFF71BFA00218020FFF717FAB9
:1032800031E0BB48844208D101218015FFF70FFAD5
:103290000021A015FFF70BFA25E0B648844209D1BA
:1032A00001210804FFF7F6F900214FF48030FFF701
:1032B000F1F918E0B048844209D101214804FFF730
:1032C000E9F900214FF40030FFF7E4F90BE0AB48D7
:1032D000844208D101218804FFF7DCF900214FF472
:1032E0008020FFF7D7F910BD00220288944B984246
:1032F0000ED0994B98420BD0B0F1804F08D0914B33
:10330000984205D0904B984202D0904B984204D1FD
:103310004FF68F731A404B881A438D4B984207D053
:103320008C4B984204D04FF6FF431A40CB881A4387
:1033300002808B8883850B880385814B98420BD054
:10334000854B984208D08B4B984205D08A4B9842C7
:1033500002D08A4B984201D10B7A038601238382E3
:10336000704770B5002400220023058C4FF6FE76CE
:1033700035400584028C8388048B4FF68F752C4072
:10338000B51E2C400D882C43751E2A400D892A43FA
:103390004D882A436A4DA8420BD06F4DA84208D0F1
:1033A000744DA84205D0744DA84202D0734DA84276
:1033B00013D14FF6F7752A404D892A434FF6FB7516
:1033C0002A408D882A434FF6FF652B404FF6FF5564
:1033D0002B408D892B43CD892B4383800483CD885B
:1033E0008586028470BD70B5002400220023058C00
:1033F0004FF6EF7635400584028C8388048B48F6BF
:10340000FF752C404FF6FF452C400D884FF6FF7698
:1034100006EA05252C434FF6DF752A400D8906EA9A
:1034200005152A434D8806EA05152A43444DA8424E
:1034300002D0494DA8421DD14FF67F752A404D89D3
:103440004FF6FF7606EA05152A434FF6BF752A4068
:103450008D8806EA05152A434FF6FF352B404FF2BB
:10346000FF752B408D8906EA85052B43CD8906EA39
:1034700085052B4383800483CD880587028470BD36
:1034800070B5002400220023058C4FF6FF663540FE
:103490000584028C8388848B4FF68F752C404FF601
:1034A000FC752C400D882C434FF6FF552A400D89A2
:1034B0004FF6FF7606EA05252A434D8806EA0525DC
:1034C0002A431F4DA84202D0234DA8421DD14FF2DE
:1034D000FF752A404D894FF6FF7606EA05252A43F7
:1034E0004FF6FF352A408D8806EA05252A434EF619
:1034F000FF752B404DF6FF752B408D8906EA0515AB
:103500002B43CD8906EA05152B4383808483CD8820
:103510008587028470BD70B5002200230024058CCD
:103520004EF6FF7635400584038C8488828B48F6FE
:10353000FF752A404FF6FF452A400D8820E0000025
:10354000002C01400004004000080040000C004036
:10355000001000400014004000340140004C0140C5
:10356000005001400054014000180040001C004081
:10357000002000400040014000440140004801405C
:103580004FF6FF7606EA05252A434DF6FF752B40D8
:103590000D8906EA05352B434D8806EA05352B4390
:1035A000FA4DA84202D0FA4DA84208D14BF6FF7559
:1035B0002C408D894FF6FF7606EA85152C438480D2
:1035C0008283CD88A0F84050038470BD828B4FF277
:1035D000FF331A408283828B4FF6FF7303EA012385
:1035E0001A4382837047F0B50C461546002200212D
:1035F0000026078C4EF6FF7C07EA0C070784828BB7
:10360000018C4FF6FF7707EA043640F6FF473A4051
:103610004FF6FF7707EA05273A434FF6FF7707EAA9
:1036200003373A43D94FB8420ED0D94FB8420BD0E6
:10363000B0F1804F08D0D74FB84205D0D64FB8422E
:1036400002D0D64FB84206D14DF6FF77394046F446
:103650008057394305E047F6FF57394044F4805717
:10366000394382830184F0BD828B4FF6F3731A4095
:103670008283828B0A4382837047F0B50C461546DD
:10368000002200210026078C4FF6FF6C07EA0C078A
:103690000784828B018C4FF6FF7707EA04264FF6EA
:1036A0000C773A404FF6FF7707EA03172F433A4368
:1036B000B64FB8420ED0B64FB8420BD0B0F1804FE3
:1036C00008D0B44FB84205D0B34FB84202D0B34F80
:1036D000B84206D14FF6FF57394046F48077394358
:1036E00005E04FF2FF57394044F480773943828335
:1036F0000184F0BD028B4FF2FF331A400283028B2C
:103700004FF6FF7303EA01231A4302837047F0B5B3
:103710000C461546002200210026078C4FF6EF7C50
:1037200007EA0C070784028B018C4FF6FF7707EA44
:10373000041640F6FF473A404FF6FF7707EA033793
:103740003A434FF6FF7707EA05273A438F4FB842CF
:103750000ED08F4FB8420BD0B0F1804F08D08D4FB4
:10376000B84205D08C4FB84202D08C4FB84206D137
:103770004FF6DF77394046F01007394305E04FF642
:103780005F77394044F01007394302830184F0BD6C
:10379000028B4FF6F3731A400283028B0A430283B3
:1037A0007047F0B50C46154600220021068C4FF6F6
:1037B000FE773E400684028B018C4FF60C76324039
:1037C0007E1C06EA03162E433243704EB0420ED0E2
:1037D0006F4EB0420BD0B0F1804F08D06D4EB0426A
:1037E00005D06D4EB04202D06C4EB04206D14FF6BD
:1037F000FD76314044F00106314305E04FF6F576A1
:10380000314044F00106314302830184F0BD70B5BC
:1038100005460C465D4885420ED05D4885420BD07A
:10382000B5F1804F08D05B48854205D05A488542A3
:1038300002D05A48854200D100E000BF208850B92C
:103840002389A28861882846FFF7ABFFE1882846D4
:10385000FFF79EFF25E0208804280AD12389A2884B
:1038600061882846FFF753FFE1882846FFF742FFAB
:1038700017E0208808280AD12389A2886188284671
:10388000FFF7FBFEE1882846FFF7EEFE09E02389FB
:10389000A28861882846FFF7A6FEE1882846FFF740
:1038A00095FE70BD2DE9F04105460C460026012726
:1038B000608808B9022600E00026A088012801D10E
:1038C000022700E001272088A0B92389A288618807
:1038D0002846FFF766FFE1882846FFF759FF23894E
:1038E0003A4631462846FFF712FFE1882846FFF79F
:1038F00001FF13E02389A28861882846FFF707FFAC
:10390000E1882846FFF7F6FE23893A4631462846E5
:10391000FFF747FFE1882846FFF73AFFBDE8F0814F
:103920000A884B881A438B881A43CB881A430B8921
:103930001A434B891A438B891A43A0F844207047D5
:103940004FF6FF71818000210180C18041800172AA
:1039500070470021018041808180C18001814181C7
:103960008181C181704700210180418001218180D6
:103970000021C18001817047002101804180818048
:10398000C18001814181818170470000002C01408C
:10399000003401400004004000080040000C0040DA
:1039A00021B1028842F00102028004E002884FF651
:1039B000FE731A400280704731B1B0F8442042F4DF
:1039C0000042A0F8442005E0B0F84420C2F30E0203
:1039D000A0F8442070471AB183890B43838102E029
:1039E00083898B43838170478182704741EA020358
:1039F000A0F8483070471AB183890B43838102E0F5
:103A000083898B438381704701894FF6F872114097
:103A1000018170470A46002101894FF68F731940D2
:103A200011430181704730B504460D4629462046B2
:103A3000FFF7F0FF208940F00700208130BD2DE91D
:103A4000F04104460D4616461F46602D06D13B4602
:103A5000012231462046FFF75AFE05E03B4601228F
:103A600031462046FFF79DFE29462046FFF7D2FF4C
:103A7000208940F007002081BDE8F08130B50C4678
:103A800000210189C9B24FF6FF7505EA03251543E8
:103A900025432943018130BD2DE9F04105460E46FD
:103AA00017469846002443463A4631462846FFF7D3
:103AB000E5FF2C894FF6F870044044F007044FF6F8
:103AC0008F70044044F070042C81BDE8F081F0B5A3
:103AD00004460D4616461F463B46324629462046BA
:103AE000FFF7CCFF208940F480402081F0BD0185A4
:103AF000828270470A46002101884FF68F73194071
:103B0000114301807047F0B50C4615461E46002152
:103B1000002200230189028B038C4FF6F87739408D
:103B200021434FF6FC473A4040F201173A434FF623
:103B3000DD773B404FF6FF7707EA06172F433B43FD
:103B4000018102830384F0BD0A460021018B4FF6F8
:103B50008F7319401143018370470A460021018B7E
:103B600048F6FF7319404FF6FF7303EA0223194327
:103B7000018370470A460021818B4FF68F731940ED
:103B80001143818370470A460021818B48F6FF73F9
:103B900019404FF6FF7303EA0223194381837047EC
:103BA00021B1028842F08002028004E002884FF6D0
:103BB0007F731A400280704721B1828842F004026C
:103BC000828004E082884FF6FB731A40828070473F
:103BD00021B1828842F00802828004E082884FF698
:103BE000F7731A408280704721B1828842F0010247
:103BF000828004E082884FF6FE731A40828070470C
:103C00000A460021018B4FF6F773194011430183D7
:103C100070470A460021018B4FF2FF7319404FF69F
:103C2000FF7303EA02231943018370470A46002108
:103C3000818B4FF6F77319401143818370470A4611
:103C40000021818B4FF2FF7319404FF6FF7303EA97
:103C500002231943818370470A460021018B4FF6E6
:103C6000FB7319401143018370470A460021018B01
:103C70004FF6FF3319404FF6FF7303EA022319434F
:103C8000018370470A460021818B4FF6FB73194070
:103C90001143818370470A460021818B4FF6FF3321
:103CA00019404FF6FF7303EA0223194381837047DB
:103CB0000A460021018B4FF67F731940114301839F
:103CC00070470A460021018BC1F30E014FF6FF73C6
:103CD00003EA02231943018370470A460021818BBE
:103CE0004FF67F7319401143818370470A460021C4
:103CF000818BC1F30E014FF6FF7303EA02231943D0
:103D0000818370470A460021018C4FF6FD731940EC
:103D10001143018470470A460021018C4FF6F77366
:103D200019401143018470470A460021018C4FF667
:103D3000DF7319404FF6FF7303EA0213194301843E
:103D400070470A460021018C4FF67F7319404FF6E9
:103D5000FF7303EA02131943018470470A460021E6
:103D6000018C4FF6FF5319404FF6FF7303EA02230D
:103D70001943018470470A460021018C4FF2FF73FA
:103D800019404FF6FF7303EA022319430184704779
:103D90000A460021018C4DF6FF7319404FF6FF7360
:103DA00003EA023319430184704730B5002301242C
:103DB0008C40A3B2048C9C430484048C02FA01F569
:103DC000ADB22C43048430BD30B5002304248C40B4
:103DD000A3B2048C9C430484048C02FA01F5ADB2B6
:103DE0002C43048430BD70B50346002000241846DF
:103DF000183001258D40ACB21D8CA5431D8409B13E
:103E0000082909D100EB6100056825F070050560FF
:103E10000568154305600EE00D1FC5F34E052844E7
:103E2000056825F4E045056005684FF6FF7606EA6B
:103E300002263543056070BD21B1028842F00202BE
:103E4000028004E002884FF6FD731A40028070473A
:103E500021B1028842F00402028004E002884FF699
:103E6000FB731A400280704721B1828842F08002C1
:103E7000828004E082884FF67F731A408280704708
:103E800002884FF6F7731A40028002880A430280C4
:103E9000704782884FF68F731A40828082880A4367
:103EA0008280704702894FF6F8731A4002810289B6
:103EB0000A430281704702894FF67F731A400281DC
:103EC00002890A4302817047818470478185704767
:103ED000818670470187704781877047A0F840103E
:103EE000704702884FF6FF431A40028002880A4357
:103EF000028070470146888E70470146088F7047E0
:103F00000146888F70470146B1F84000704701466E
:103F1000888C70470146088D704702460020138A3E
:103F20000B400BB1012000E000207047CA43028221
:103F3000704730B50246002000230024158A05EAA8
:103F40000103958905EA010413B10CB1012000E0D9
:103F5000002030BDCA430282704740EA01039B073C
:103F600003D009E008C9121F08C0042AFAD203E0EE
:103F700011F8013B00F8013B521EF9D27047F0B432
:103F800080EA0102D40F4200B2EB410F02D2024696
:103F9000084611464A0042D0C30DDDB2C1F3C752F4
:103FA000AD1A202D35DAC1F3160141F4000204B137
:103FB0005242C5F1200602FA06F12A411044B3EB41
:103FC000D05F23D0C4B1012DA0EBC35009DCF0BCFD
:103FD0004FF0004202EAC352DBB200F5000000F0ED
:103FE0002DBA400000F1807000EBC350A0F180704A
:103FF00040EAD170490009E0490841EAC071A0EBEC
:10400000C35000F50000400800EBC350F0BC00F0C6
:104010000CBA6142012202EB4101001BF6E7F0BC41
:10402000704781F00041AAE780F00040A7E780EAEE
:10403000010210B502F00043400022D04A001FD018
:10404000010E01EB1261C0F35600C2F3560240F4B8
:10405000000042F40002A0FB022000047F39140497
:1040600000D0401C50EA124001D44000491EC2B2A8
:104070000C0604EBD010401C4008802A02D003E05C
:10408000002010BD20F00100002900DA00201843B4
:1040900010BD30B480EA010202F0004530F0004269
:1040A00021F0004013D090B1C30DD40DC2F316011E
:1040B000C0F31600E41A41F4000140F400027D341C
:1040C000914201D3641C00E04900002C02DA30BCAC
:1040D000002070474FF400000023914201D3891A59
:1040E000034340084FEA4101F7D151B1914202D157
:1040F0004FF0004105E002D24FF0010101E06FF006
:10410000010103EBC450284430BC00F08EB92DE906
:10411000FE4F81EA030404F0004421F000410094C2
:104120004FF0000B23F0004350EA01045ED052EA46
:1041300003045BD0C3F30A54C1F30A552C44A4F220
:10414000F3340194A0FB0254C1F3130141F4801134
:10415000C3F3130343F4801301FB024400FB034E3B
:10416000840A970A44EA815447EA8357A4FB076804
:1041700002958D0A05FB07854FEA932C04FB0C542E
:104180002705029D4FEA065847EA1637B5EB0805A2
:104190006EEB070C870E920E47EA811742EA8312F4
:1041A000A7FB0201B6EB0B0164EB00042B0D43EA05
:1041B0000C335E1844EB1C50DA465146E7FB020113
:1041C000C5F313044FEA0B3343EA14534FEA0432A6
:1041D000019C43EA0603A4F10C040294009CCDE97F
:1041E00000B400F066F903B0BDE8F08F002001468E
:1041F000F9E72DE9F04D81EA030404F0004B21F0CA
:10420000004514464FF0000A23F0004150EA050231
:1042100020D054EA01021DD0C5F30A570246C5F367
:104220001303C1F31300C1F30A5640F4801543F49D
:104230008013A7EB0608101BD64608F2FD3873EB77
:10424000050002D308F1010801E092185B41B8F1C2
:10425000000F03DA00200146BDE8F08D00204FF486
:104260008011064684460EE0171B73EB050705D345
:10427000121B63EB050306434CEA010C49084FEAA5
:10428000300092185B4150EA0107EDD152EA030079
:1042900012D082EA040083EA0501084305D0101B0E
:1042A000AB4106D20122002306E000224FF000437A
:1042B00002E06FF0010253101AEB06004CEB0851BC
:1042C00010EB0A0041EB0B01BDE8F04D00F0E4B843
:1042D000C10F80EAE0700844CA079623002100F06D
:1042E000ADB896230022114600F0A8B800F00042B5
:1042F00030F000400AD0C10D01F56071C0F3160026
:1043000042EA0151C20840071143704700200146AC
:104310007047000030B5002904DB4FF000444042F4
:1043200064EB0101002B04DB4FF00044524264EBCC
:1043300003038B4208BF824230BD000030B5002924
:1043400004DB4FF00044404264EB0101002B04DB2E
:104350004FF00044524264EB0303994208BF90427D
:1043600030BD000001F0004330B421F0004150EABC
:10437000010206D00A0DA2F56072C1F31301002AF2
:1043800002DC30BC00207047440F44EAC104C10085
:10439000E01830BC00EBC25000F047B830B50B4617
:1043A000014600202022012409E021FA02F59D4265
:1043B00005D303FA02F5491B04FA02F52844151E39
:1043C000A2F10102F1DC30BD2DE9F05F05460020CD
:1043D00092469B4688460646814640241BE0284676
:1043E00041464746224600F0BAF953465A46C01A9B
:1043F000914110D311461846224600F0A1F92D1A1A
:1044000067EB01084F4622460120002100F098F991
:1044100017EB00094E41201EA4F10104DFDC4846E1
:1044200031462A464346BDE8F09F0029A8BF7047A1
:10443000401C490008BF20F00100704710B4B0FADA
:1044400080FC00FA0CF050EA010404BF10BC704775
:1044500049B1CCF1200421FA04F411FA0CF118BF8F
:10446000012121430843A3EB0C01CB1D4FEA00615E
:104470004FEA102042BF002010BC704700EBC35031
:1044800010440029A4BF10BC7047401C490008BF5D
:1044900020F0010010BC704710B5002B08DA401C5A
:1044A00041F1000192185B411A4301D120F0010053
:1044B00010BD2DE9F04D92469B4611B1B1FA81F243
:1044C00002E0B0FA80F22032904600F039F904465A
:1044D0000F4640EA0A0041EA0B0153465A46084398
:1044E00013D0114653EA010019D0C8F140025046DA
:1044F00000F035F905460E4650465946424600F052
:104500001FF9084305D0012004E020463946BDE8E4
:10451000F08D0020054346EAE0762C4337430A98A5
:104520006305E40AA0EB08000022FD0A44EA4754B0
:104530000A3002D500200146E9E70105101969415A
:10454000DDE9084500196941BDE8F04DA4E72DE912
:10455000FE4F804681EA0300C00F0C46009021F018
:10456000004123F00045B8EB0200A94105D24046C6
:10457000214690461C460B46024623F0004010435D
:1045800047D0270DC7F30A00C3F30A510290401A1F
:10459000019040286BDAC3F3130040F4801B0098AD
:1045A000924620B10023D2EB030A63EB0B0B019878
:1045B0005946C0F14002504600F0C2F806460D468A
:1045C00050465946019A00F0DAF810EB08006141B4
:1045D000002487EA115284EAE7731A4340D0009A14
:1045E00062B3019A012A4FEA075215DC001B61EB06
:1045F00002014FF0004202EA0752CDE90042001CDE
:1046000041F5801132462B46FFF753FF03B0BDE85A
:10461000F08F40462146F9E7001B61EB0201001CC8
:1046200041F5801300185B412018A2F5001747EBF5
:10463000030140EAD570B6196D4111E06D084FEAEB
:10464000360645EAC0754FEA0752001B61EB0201CE
:10465000001C41F5801149084FEA30000019514112
:1046600032462B4603B0BDE8F04FFFF715BF009868
:10467000012240000023D0EB020263EBE0730098BC
:1046800021464FEAE074B8EB000061EB0401E9E772
:1046900083F000435BE781F0004158E770B521F0FB
:1046A000004303430CD0C1F30A550024D5EB0405A5
:1046B00064EB0403D617AD1AB34102DB00200146B8
:1046C00070BD201841EB025170BD0EB5C10F80EADC
:1046D000E0700844CA07002140F233438DE80E0021
:1046E0000A460B46FFF7E5FE03B000BDC1F30A52D0
:1046F000C1F3130140F2FF3341F480119A4202DA10
:1047000000200146704740F233439A42A2F23342FE
:1047100002DC524200F023B800F012B8064C074DFC
:1047200006E0E06840F0010394E807009847103481
:10473000AC42F6D3FBF700FD605600088056000837
:10474000202A04DB203A00FA02F100207047914051
:10475000C2F1200320FA03F3194390407047202A46
:1047600004DB203A21FA02F00021704721FA02F31B
:10477000D040C2F120029140084319467047202AD8
:1047800006DBCB17203A41FA02F043EAE07306E079
:1047900041FA02F3D040C2F1200291400843194689
:1047A000704770B58C1810F8015B15F0070301D144
:1047B00010F8013B2A1106D110F8012B03E010F884
:1047C000016B01F8016B5B1EF9D12B0705D40023A7
:1047D000521E0DD401F8013BFAE710F8013BCB1A49
:1047E000921C03E013F8015B01F8015B521EF9D53E
:1047F000A142D8D3002070BD0FB4054B10B503A95A
:10480000044A029800F024F910BC5DF814FB000083
:10481000B1030008440100202DE9F0414F1E00EBD8
:10482000C7010446D1E9000115461E4637F00602CD
:104830000DD02A463346FFF76AFC7F1E04EBC70300
:10484000D3E90023FFF783FE37F00602F1D1022FF0
:1048500025D0042F13D0062F18BFBDE8F0812A46BB
:104860003346FFF754FCD4E90A23FFF770FE2A46CB
:104870003346FFF74CFCD4E90823FFF768FE2A46CD
:104880003346FFF744FCD4E90623FFF760FE2A46CF
:104890003346FFF73CFCD4E90423FFF758FE2A46D1
:1048A0003346FFF734FCD4E90223FFF750FE2A46D3
:1048B0003346FFF72CFCD4E90023BDE8F041FFF7B5
:1048C00046BE02E008C8121F08C1002AFAD170478C
:1048D0007047002001E001C1121F002AFBD1704780
:1048E0000149086070470000480100202DE9FF5F82
:1048F000DDE90220010DDDF838B0024318D044F69E
:104900001050A1F2FF3141430D140F98012820D01F
:10491000A5EB0B00401C5FEA000A4FF00004474E75
:10492000DFF81C91A046504616D5CAF1000728E0D2
:104930000F98012443A2012808D0002100980F9B62
:10494000C0E90021C0E90243BDE8FF9F6FEA0B0107
:10495000F4E7CBF10000DEE7074612E0F80707D0E6
:104960002246334640464946FFF7D1FB80468946FA
:104970002246334610461946FFF7C9FB04460E4649
:104980007F10002FEAD1DDE90201BAF1000F4246A3
:104990004B4602DAFFF7BBFB01E0FFF72AFC0446B7
:1049A0000E460022284BFFF7C9FC03D84FF0FF301A
:1049B000014607E00022254B20463146FFF7C7FDA0
:1049C000FFF794FE102409E0002C0ADB0A220023E2
:1049D000FFF7FAFC019B30321A55641E50EA0102BF
:1049E000F2D1641C019AC4F1110314440F9A012AF4
:1049F00003D0012208430DD10AE0084304D000206F
:104A00004FF0110B0F9080E7A3EB0B056D1E0DE02F
:104A10005B4504DD4FF0000205F1010504E003DA17
:104A20004FF00002A5F10105002AECD000980F9983
:104A3000C0E90231C0E9004586E7000000002440DB
:104A40000000F03F300000000000F0430000E03FB5
:104A50002DE9FF4F95B09B468946064600250FE29B
:104A6000252877D100242746F84A0121059400E043
:104A7000044316F8013F203B01FA03F01042F7D13E
:104A800030782A2811D06FF02F033078A0F130024F
:104A9000092A16D8059A44F0020402EB820203EBBD
:104AA00042021044761C0590EFE759F8042B05925A
:104AB000002A03DA504244F40054059044F0020402
:104AC000761C30782E2816D116F8010F44F0040415
:104AD0002A280DD06FF02F023078A0F13003092B77
:104AE00009D807EB870302EB4303C718761CF3E7EB
:104AF00059F8047B761C30786C280FD006DC4C28E3
:104B000017D068280DD06A2814D104E0742810D07A
:104B10007A280FD10DE044F400140AE044F4801424
:104B200001E044F440147278824202D104F580140A
:104B3000761C761C307866280BD013DC582877D08A
:104B400009DC002875D04528F6D04628F4D047283F
:104B50001AD19DE118E0632835D0642879D0652802
:104B600012D195E1702873D008DC6728F1D069284C
:104B70006FD06E280DD06F2806D1B5E073282CD0E9
:104B8000752875D0782874D05A46179990476D1CAF
:104B900075E1C4F30250022809D003280DD0D9F8DA
:104BA000001004280DD00D6009F1040967E1D9F85F
:104BB0000010EA17C1E90052F6E7D9F800100D809D
:104BC000F2E70D70F0E719F8041B8DF800100020D3
:104BD0008DF80100EA46012003E059F804AB4FF0DC
:104BE000FF3061074FF0000102D40DE008F1010130
:104BF0008846B9420FDA8045F8DB1AF80810002918
:104C0000F4D108E008F1010188468142FADB1AF884
:104C100008100029F6D105985B46A0EB080721464D
:104C20003846179A00F094FA284400EB080507E08C
:104C30004DE029E10DE01AF8010B5A46179990470B
:104C4000B8F10108F7D25B4621463846179A13E1BE
:104C500042E00A220092C4F302524FF0000A022AF4
:104C600008D059F804CB032A4FEAEC710AD00DE0C2
:104C700029E02AE009F1070121F00702F2E802C168
:104C8000914609E00FFA8CFC4FEAEC71042A03D13B
:104C90004FFA8CFC4FEAEC71002907DA0A46002132
:104CA000DCF1000C61EB02012D2202E0220504D5AB
:104CB0002B228DF80420012203E0E20701D02022FC
:104CC000F7E7904659E00A2102E010220DE010219A
:104CD0004FF0000A00910BE010224FF0000A44F060
:104CE00004040827009203E008224FF0000A009213
:104CF000C4F30252022A05D059F804CB0021032A3A
:104D000008D009E009F1070121F00702F2E802C129
:104D1000914605E01FFA8CFC042A01D10CF0FF0C2F
:104D20004FF00008220728D5702806D0009B83F09A
:104D3000100353EA0A0305D00EE040228DF8042048
:104D4000012208E05CEA010206D030228DF804203E
:104D50008DF8050002229046009B83F0080353EA79
:104D60000A030AD15CEA010201D1620705D53022AB
:104D70008DF804204FF001087F1E582804D034A07D
:104D800003900EA802900DE036A0F9E75346604666
:104D9000009AFFF719FB84460398825C0298401E34
:104DA000029002705CEA0100F0D1029806A9081A8C
:104DB00000F1200A600702D524F4803400E00127C6
:104DC000574502DDA7EB0A0000E0002000EB0A01D6
:104DD000009005984144401A0590E00306D45B46D4
:104DE0002146179A059800F0B3F90544002706E01C
:104DF00001A85A46C05D179990476D1C7F1C474516
:104E0000F6DBE0030CD55B462146179A059800F0C7
:104E10009FF9054404E030205A46179990476D1CCD
:104E20000099481E00900029F5DC08E002980299DC
:104E30005A460078491C0291179990476D1CBAF1A7
:104E40000001AAF1010AF1DC65E100000928010076
:104E500030313233343536373839616263646566F0
:104E600000000000303132333435363738394142B2
:104E7000434445460000000000F058F90544761C04
:104E8000307800287FF4ECAD19B02846BDE8F08FEB
:104E9000620700D4062709F1070222F0070CFCE89C
:104EA0000223E14603F000485FEA080C02D00FF24B
:104EB000702C0DE05FEA045C02D50FF2682C07E06D
:104EC0005FEAC47C02D00FF2602C01E0AFF2700CFC
:104ED0004FF0FF3823F00043CDF850C065280CD0C8
:104EE00006DC452809D046281DD047283DD13DE0A5
:104EF000662818D067287ED138E00021112F01DB09
:104F0000112000E0781CCDE9000106A90EA8FFF7EA
:104F1000EDFCDDE90F010E9A03910021009207F1EB
:104F2000010A04914DE04FF000400097CDE90110D7
:104F300006A90EA8FFF7DAFCDDE90F0203920E9B2B
:104F400011990022DDF80CA00093049211B9791C8C
:104F500000EB010AB7EB0A0004D4C0F1FF3007F1FF
:104F6000010A0490AAEB0700019044E0012F00DA47
:104F700001270021112F01DD112000E03846CDE985
:104F8000000106A90EA8FFF7B1FCDDE90F010E9A9A
:104F90000391002104910092BA4621070CD4039991
:104FA000514500DA8A46BAF1010F05DD009AAAF1EF
:104FB0000101515C302908D0B84202DA10F1040F27
:104FC00006DA0121CDE9011015E0AAF10101E9E7B6
:104FD000002805DC049901440491AAEB000102E0D9
:104FE000411C514500DD8A460499401A401C01903D
:104FF0004FF000400290200704D40198504501DB97
:10500000CDF8048000208DF84F0002980DF14F0775
:10501000B0F1004F25D02B200E9002984FF00208DF
:1050200000280CDA404202902D200E9007E00A2161
:105030000298FFF7B3F93031029007F8011DB8F17B
:105040000001A8F10108F2DC02980028EFD1791ED6
:105050000E980870307800F0200040F0450007F806
:10506000020D12A8C01B00F107081498007800B1C7
:10507000012000EB0A01019801EBE0710598414421
:10508000401A401E0590E00306D45B462146179A5D
:10509000059800F05DF805441498007818B15A4658
:1050A000179990476D1CE00324D55B462146179A5B
:1050B000059800F04DF805441CE00498002807DB33
:1050C000DDE90301884203DD0098405C179901E0A7
:1050D000179930205A469047049805F10105401C65
:1050E00004900198401E019004D12E205A46179931
:1050F00090476D1CBAF10001AAF1010ADDDC05E060
:1051000017F8010B5A46179990476D1CB8F100012A
:10511000A8F10108F4DC5B462146179A0598ABE636
:105120002D0000002B000000200000002DE9F041C0
:10513000044600251E461746880404D405E0394677
:105140002020B0476D1C641EF9D52846BDE8F081CB
:105150002DE9F041044600251E469046C80301D5BE
:10516000302700E02027880404D505E04146384672
:10517000B0476D1C641EF9D52846BDE8F0810000DB
:105180002DE9F04DCC4A002490B0914205DA21F08F
:105190000043934201D807D130B110B04FF0010263
:1051A000BDE8F04DFFF77ABAB1F5801F21DA53EA76
:1051B00000020DD0002917DA0120FFF791FB10B093
:1051C0000022BDE8F04D134610461146FFF711B816
:1051D0000220FFF785FB10B00022BDE8F04D13461A
:1051E0001046B649FFF705B86FF035043622FFF7D1
:1051F00055FA04EB2152C1F31308B149A2F2FF336F
:10520000414401F4801282F07F6103EB225281F06D
:105210004051009241EA08010022AA4BFFF738FAF8
:10522000044608F10200A84EC0F313000D467E4468
:10523000032867D2D6E900232046FFF76BF81ED17A
:105240000098002802BFD6E9000110B0BDE8F08D3B
:10525000FFF73BFA04460D469C4A9D4BFEF757FF6D
:1052600007460E469B4A9C4B20462946FEF74FFFB9
:1052700010B03A463346BDE8F04DFFF768B94FF03D
:105280005532964B20462946FEF741FF0022944BAB
:10529000FFF701FA07460E4622462B4610461946EE
:1052A000FEF735FF3A463346FEF731FF06460098D3
:1052B0000F46F0B1FFF709FA80468A46834A844BCD
:1052C000FEF725FF32463B46FFF7E5F922462B461F
:1052D000FFF7DEF905460C467E4A7F4B40465146B5
:1052E000FEF715FF10B02A462346BDE8F04DFFF744
:1052F000CFB90B4610B0324620462946BDE8F04DE6
:10530000FFF7C6B900224FF080432046FFF71FF990
:1053100002460B4620462946FEF76BFF06460F461F
:105320000098FFF7D2F9CDE9040132463B4610461A
:105330001946FEF7ECFE0C906A48099108EB000252
:1053400001920C9A0B461046FEF7E1FE8246024699
:1053500065488B46C8F151080B4608F5D72803214C
:105360007844FFF759FA52465B46FEF7D0FE0A90A2
:105370005E480D9152465B4604217844FFF74CFA93
:10538000099B0C9AFEF7C3FE019A0D9B42EA08089E
:105390000A9AFFF7DCF883460891B8F1000F4EDD5A
:1053A0004FF0FF3220462946FFF778F922462B4678
:1053B000FEF7ADFE804600988A4660B3DDE9040141
:1053C000424A434BFEF7A3FE099100905A464046DD
:1053D0005146089BFFF7BBF832463B46FEF797FE67
:1053E000099B009AFFF7B3F842465346FFF753F97B
:1053F00022462B46FFF74CF904460D46DDE9040131
:10540000344A354BFEF783FE10B022462B46BDE8EA
:10541000F04DFFF73DB95A464046089BFFF797F815
:1054200032463B46FEF773FE42465346FFF733F9DA
:1054300010B022462B46BDE8F04DFFF72CB900987E
:1054400040B3DDE90401214A214BFEF760FE8246AC
:1054500088465A4620462946089BFFF719F93246E6
:105460003B46FEF754FE52464346FFF711F92246EB
:105470002B46FFF70DF904460D46DDE90401154AF8
:10548000154BFEF744FE10B022462B46BDE8F04D0A
:10549000FFF7FEB80B465A4620462946FFF7F8F8B4
:1054A00032463B46FEF733FE10B022462B46BDE89F
:1054B000F04DFFF7F0B800000000F07F0000F0BFF3
:1054C000645F09000000F03F1E040000763C79355F
:1054D000EF39EA3D0000E0FE422EE63F5555D53F4C
:1054E0000000E03F86EBF9FFB4020000B2020000CA
:1054F0002DE9F041334A00250446914205DA21F0B6
:105500000040904201D807D134B12046BDE8F041B7
:105510004FF00102FFF7C2B8B1F5801F20DA204337
:105520000CD0002915DA0120FFF7DAF9BDE8F041C7
:105530000022134610461146FEF75BBE0220FFF71D
:10554000CFF9BDE8F0410022134610461E49FEF790
:1055500050BE6FF0350536222046FFF79FF804460F
:1055600005EB2150A0F2FF30C20F40F2FF339B1A2F
:105570000D4663F31F551044FFF7A7F807460E4684
:1055800029462046FFF7FCFD104A114BFEF7BFFDF0
:1055900004460D460F4A104B38463146FEF7B7FD1C
:1055A00022462B46FEF7D3FF05460C460B4A0C4B12
:1055B00038463146FEF7ABFD2A462346BDE8F041AA
:1055C000FEF7C5BF0000F07F0000F0BF0EE5261516
:1055D0007BCBDB3F362BF111F3FE593D00609F5032
:1055E0001344D33F000000001F0000003B000000F8
:1055F0005A0000007800000097000000B50000008D
:10560000D4000000F3000000110100003001000090
:105610004E0100000000000004FA97999999D93FC3
:10562000AF788E1DC571CC3F9FC678D0099AC33F15
:10563000935555555555E53F599322942449D23FEA
:10564000DE03CB966446C73F44523EDF12F1C23FB1
:1056500000000000000000003731323334353600DE
:1056600080560008000000204C010000A2470008FE
:10567000285700084C0100208C070000D248000881
:10568000011825C3F5C841272041AE472140182302
:10569000803F5C8F823E60E5D03D857CD03C04CA73
:1056A000263CAF97263B85B1853AE51C8639757D4A
:1056B000D53804280E37757D2A371BAAAB360ED491
:1056C00007363409160423AE0C23B6046908234DAB
:1056D0000D234E051AE8101A28085AE0085AEE0859
:1056E0001B500A8A192823140252D3B80A9C40D5A9
:1056F00078893F426085582BB81E10711930C1134C
:10570000585633081F321C2908DA1E0809121411D2
:105710007BA24A46680901020304060708090C69CE
:085720001085020406080000D8
:0400000508000131BD
:00000001FF
