:020000040800F2
:10000000800A0020D1590008D9590008DB5900089E
:10001000DD590008DF590008E15900080000000020
:10002000000000000000000000000000E35900088C
:10003000E559000800000000E7590008E9590008E8
:10004000EB590008EB590008EB590008E351000890
:10005000EB590008EB590008F32D00080B2E00089F
:10006000EB590008EB590008EB590008EB59000860
:10007000EB590008EB590008EB590008EB59000850
:10008000EB590008EB590008EB590008EB59000840
:10009000EB590008EB590008EB590008E758000835
:1000A000EB590008EB590008EB590008EB59000820
:1000B000A34A0008B3590008EB590008EB5900089F
:1000C000EB590008EB590008EB590008EB59000800
:1000D000EB590008EB5900080F1600082B17000811
:1000E000EB590008EB590008EB590008EB590008E0
:1000F000EB590008EB590008EB590008EB590008D0
:10010000EB590008EB590008EB590008EB590008BF
:10011000E32F0008EB590008EB590008EB590008E1
:10012000EB590008EB590008EB590008EB5900089F
:10013000DFF80CD008F06CFC00480047910600087E
:10014000800A002000BF0100A0F10100FBD1704730
:1001500010B5F7480078FF2840D1F648007840B93C
:100160000120F449087004F0DAFD012004F0CAFD12
:1001700013E0F0480078012803D10220ED4908700F
:100180000BE0EC480078022807D10020E94908700C
:1001900004F0C5FD002004F0B5FDE6480078022813
:1001A00015D1012004F067FCE348006818B901206C
:1001B000E14908600EE0E0480068022803D103200E
:1001C000DD49086006E00020DB49086002E000200D
:1001D00004F051FC4FF4FA7004F034FD10BD2DE929
:1001E000FC5F0024A14602F022FDD449086002F021
:1001F00056FDD3490860D349D048006808F06DF82F
:100200008146484608F088FACF490860CF48007810
:10021000C0B10121CE4806F050F928B9CB4800788A
:10022000401CCA49087002E00020C8490870C7484D
:100230000078052806DB4FF47A7004F003FD0120F6
:10024000BB4908700421C24806F037F9002870D174
:10025000C048006818B94FF4FA7004F0F3FCB848CD
:10026000006808F06DFA05460022BB4B08F094FACE
:1002700008D2B848006828B9FF20B6490860A12014
:10028000B6490870B649AE48006808F0C3FA09D804
:10029000B449AB48006808F0B3FA03D8012004F071
:1002A00022FD31E0002004F01EFD4FF08341A44800
:1002B000006808F0A5FA09D8AA49A148006808F022
:1002C000A9FA03D8322004F0BDFC1DE04FF08341B1
:1002D0009B48006808F09EFA16D2002004F0CFFC7C
:1002E000002004F0BFFC002004F0D6FC002400BF76
:1002F00008E04FF4FA7004F0A5FC4FF4FA7002F035
:10030000E9FA641C052CF4D30821914806F0D5F8CD
:1003100018B9002004F021FD02E0012004F01DFDC9
:1003200040218B4806F0C9F820B9002004F024FDD4
:1003300003E016E0012004F01FFD0821844806F0C8
:10034000BCF850B14021824806F0B7F828B100202F
:10035000854908608549086029E0012083490860D3
:1003600025E00120814908607A48006848B14FF4CF
:10037000FA7004F067FC002004F0B5FCA220774975
:1003800008706F48006808F0DBF905460022724BE0
:1003900008F0EAF902D800206E4908606D4800684C
:1003A00028B9002004F0D9FC012004F0E5FC6F48D6
:1003B0000068002831D06248006808F0C1F905469D
:1003C0004FF033326A4B08F0E7F90ED85B4800680B
:1003D00008F0B6F907464FF03332664B08F08EF856
:1003E000054608F0F1F9554908606349534800682B
:1003F00007F073FF054608F08FF9534908604F482E
:10040000006808F09DF905464FF033325B4B08F069
:10041000C3F903D8642054490860ECE047480068F9
:1004200008F08EF90546564A564B08F0B5F923D820
:10043000DFF854914148006808F082F90746504AB5
:10044000504B08F05BF805460E46484608F078F930
:100450002A463346CDE9000108F056F8824608F0F6
:10046000B3F981464946494807F0DFFE054608F0E2
:1004700053F93D490860BEE03048006808F060F973
:100480000546434A434B08F087F923D8DFF8E89044
:100490002A48006808F054F93D4A3E4BCDE9000176
:1004A00008F02CF805460E46484608F049F907467C
:1004B0002A46334608F028F8824608F085F9814636
:1004C0004946354807F0B1FE054608F025F92649AA
:1004D000086090E01948006808F032F90546284A9B
:1004E0002E4B08F059F95DD8DFF89C90134800684E
:1004F00008F026F90546224A284B07F0FFFF074679
:100500008846484608F01CF982463A46434607F0BA
:10051000FBFFCDE9000108F057F981464946204824
:1005200007F083FE054608F0F7F80F49086062E01F
:100530000A00002030000020500000203C00002075
:100540004000002000007A442C00002081000020A0
:10055000000801400C000020000018403800002076
:10056000000010410000604128000020140000201D
:10057000333323403333C33F0000C842333320407A
:100580009A99999999991F40555585420000A04222
:10059000CDCCCCCCCCCC1E400000704299991D40F3
:1005A00000002042FC48006808F0CAF80546002216
:1005B000FA4B08F0F1F81ED8DFF8E493F64800682B
:1005C00008F0BEF807460022F44B07F097FF82467A
:1005D0008B46484608F0B4F8054652465B4607F09D
:1005E00093FFCDE9000108F0EFF88146484608F096
:1005F00093F8EC490860BDE8FC9F10B5002004F0BA
:1006000081FB01F017F802F071FC002004F051FBAF
:10061000002004F041FB0021084605F090FD002178
:10062000084605F099FD002004F029FB002004F0A5
:1006300019FBDD48007820B100221146104603F076
:1006400052FB10BD10B504F0DCFAFF2004F017FBDC
:10065000FF2004F007FB012004F045FBFF2004F01D
:100660001BFB04F002FA4FF47A7004F0EBFA01205D
:10067000CE49086003F0C7F903F01AFA01F00DF84B
:1006800002F067FCC848007808B103F0B6FA10BD64
:1006900000240120C649087005F01BFA482002F02A
:1006A000FFF804F0AEFA03F051FB0121C14805F058
:1006B00004FFD0B90DE00121BE4805F0FEFE00B1F7
:1006C00008E0012002F006F9641CB4F5FA7F00D9B5
:1006D00000E0F0E700BFB4F5F57F03D3FF20B64993
:1006E000087002E00020B449087003F0A2FF03F094
:1006F000D7FEB1480078FF2801D1FFF7A3FF02F031
:1007000042FB00F048FA00BF04F03DFD04F09EFCFF
:1007100002F0C4F992226021012004F0C5F804F02F
:100720001AF9A6490860012004F0DDFAD1E12EE0B3
:10073000A3480078022807D100F07EFC0020A049E1
:10074000087001209F4908709F480078FF2809D150
:1007500001F00BF900209C4908709C4908700320A7
:10076000984908709A480078012806D1994801787C
:100770009948007804F08AFF05E09548007802283F
:1007800001D104F05BFE4FF4FA7002F0A3F8904838
:1007900000780028CCD191480078002874D002203D
:1007A0008F49087000208F490860FFF7D1FC4FF493
:1007B000FA6004F047FAFF2004F088FA642002F09F
:1007C00089F8002004F04EFA4FF4FA7002F082F833
:1007D000FF2004F047FA4FF4967400208249087015
:1007E0008249087031E080480078022801D102F087
:1007F0002BFE4FF4FA7002F06DF804F0010030B1F6
:10080000FF2004F0AAFA002004F0B6FA05E0002068
:1008100004F0A3FAFF2004F0AFFAB4F5937F0FD8E9
:100820000421734805F049FE50B10A2002F052F845
:1008300004216F4805F041FE10B10020674908709F
:10084000641E6648007800B901E0002CCBD100BFDF
:10085000002062490870012054490860002004F01B
:1008600035FA642002F036F8002004F0FBF9642029
:1008700002F030F8FF2004F0F5F9642002F02AF8C5
:100880004FF4487004F0DEF94B480078012804D199
:10089000FFF7B3FE0020484908705648007830B191
:1008A0000020544908704FF4967004F0CBF94E487C
:1008B0000078022806D102F0C7FD00204A490870DE
:1008C0004A4908703A48007800285BD037480068E9
:1008D000401C36490860084600684EF66021884290
:1008E00003D344F6206031490860FFF778FC2F48B5
:1008F00000680321B0FBF1F201FB120018BB04F009
:100900002AF82E4908603C492C48006807F082FF0D
:100910001AD82948007898B14FF4FA7004F092F987
:100920004FF4FA7001F0D6FF4FF4FA7004F08AF930
:100930004FF4FA7001F0CEFF4FF4FA7004F082F930
:1009400001201D49087008E02C491C48006807F088
:1009500061FF02D8C82004F075F9144800680C281B
:100960000DD115480078FF2809D1002004F0A1F925
:100970004FF47A7001F0AEFF012004F09AF90020E4
:100980000B4908701E480078E0B31D480078012824
:1009900039D002283DD139E03C00002000001A4047
:1009A0001CC73142280000205400002034000020E1
:1009B000CC000020000801400A0000206400002054
:1009C00077000020680000206B0000206A000020F3
:1009D000CF010020D4010020CD01002049000020DB
:1009E0003000002050000020830000208200002002
:1009F00000100140480000200000824200005C42DC
:100A0000800000200AE002F00CFA03E0FFF7A0FBF0
:100A100000E000BF00BF002045490870454800784D
:100A200050B145480078FF2801D101F0CCFE0020EC
:100A300040490870414908704148007820B101F0F0
:100A4000EFFD00203E4908703E48007840B13A482A
:100A50000078FF2801D101F0E1FE0020394908703B
:100A600039480078FF2806D100F07FFF0020364982
:100A700008703649087036480078022804D100F022
:100A8000DBFA0020324908702B480078FF2806D195
:100A90003048007800F0010008B104F0CFFC2E4887
:100AA0000078B0B14FF400712C4805F006FD80B11C
:100AB0002B48007868B14FF40051284805F019FD23
:100AC000002003F0D2F8002003F024F8002024498D
:100AD00008702CE610B523480078401C21490870A6
:100AE000214800680A30204908604FF461700860AE
:100AF0000846006840F6E441884202D300201A49C3
:100B0000086018480078042802DB002015490870A6
:100B10001648007804F04CF9012004F058F9124806
:100B2000006802F0F7FF4FF47A7001F0D3FE10BDB9
:100B3000800000206E0000200A0000206C000020D1
:100B400038000020750000206B0000206A000020A3
:100B50007700002006010020540000200010014012
:100B6000550000204A0000204C0000204B000020CF
:100B700008B54FF4C06006F035F925208DF8000067
:100B800001208DF801008DF802008DF80300684601
:100B900006F02DF908BD00B585B0012144F204002E
:100BA00005F0B4FE4FF40070ADF8100018208DF879
:100BB000130003208DF8120004A9FE4805F0EAFB9B
:100BC0004FF48060ADF8100004208DF8130004A9E4
:100BD000F84805F0DFFB4FF4E13000900020ADF85D
:100BE0000400ADF80600ADF80800ADF80C000C20CC
:100BF000ADF80A006946F04805F033FF0121EE48E0
:100C000005F0BBFFFFF7B4FF012240F22551EA488F
:100C100005F0BFFF0121E84805F0AFFF05B000BDBA
:100C200070B504460D4600BF4021E34806F080F849
:100C30000028F9D0E1B2E04806F00CF800BF4021EE
:100C4000DD4806F075F80028F9D0204670BD10B5D3
:100C5000044600BF2021D84806F06AF80028F9D0E1
:100C6000D54805F0FBFF10BD70B506460C460025C3
:100C700013E000BF4021304606F05AF80028F9D0B2
:100C8000615D304605F0E6FF00BF4021304606F0CA
:100C90004FF80128F9D1681CC5B2605D0028E8D181
:100CA00070BD2DE9F04781460E4600240025002145
:100CB000304607F0A5FD0AD200BF4021484606F0A5
:100CC00037F80028F9D02D21484605F0C3FFBB496D
:100CD000304607F002FB824607F032FD21F000416A
:100CE000074607F071FD0646304607F015FD04463D
:100CF0000A20B4FBF0F4B4F57A7F10D34FF47A7085
:100D0000B4FBF0F0C5B200BF4021484606F010F831
:100D10000028F9D005F13001484605F09BFF64201A
:100D2000B4FBF0F00A21B0FBF1F201FB120500BFA9
:100D30004021484605F0FCFF0028F9D005F13001BC
:100D4000484605F087FF00BF4021484605F0F0FF08
:100D50000028F9D02E21484605F07CFF0A20B4FB7C
:100D6000F0F00A21B0FBF1F201FB120500BF4021B7
:100D7000484605F0DDFF0028F9D005F1300148466E
:100D800005F068FF0A20B4FBF0F100FB114500BF3D
:100D90004021484605F0CCFF0028F9D005F130018C
:100DA000484605F057FFBDE8F08770B506460C468B
:100DB0000025B4F57A7F10D34FF47A70B4FBF0F0CD
:100DC000C5B200BF4021304605F0B2FF0028F9D07F
:100DD00005F13001304605F03DFF642C13D364204B
:100DE000B4FBF0F00A21B0FBF1F201FB120500BFE9
:100DF0004021304605F09CFF0028F9D005F1300174
:100E0000304605F027FF0A2C13D30A20B4FBF0F07C
:100E10000A21B0FBF1F201FB120500BF4021304670
:100E200005F086FF0028F9D005F13001304605F0C5
:100E300011FF0A20B4FBF0F100FB114500BF402177
:100E4000304605F075FF0028F9D005F13001304635
:100E500005F000FF70BD2DE9F04107460D4616462E
:100E6000002400BF13E000BF4021384605F060FFBA
:100E70000028F9D0295D384605F0ECFE00BF40217E
:100E8000384605F055FF0128F9D1601CC4B2B442C0
:100E9000E9DBBDE8F08110B549A007F057FE10BDB1
:100EA00010B549A007F052FE10BD10B500BF40219B
:100EB000484805F03DFF0028F9D04321454805F09A
:100EC000C9FE00BF4021434805F032FF0028F9D099
:100ED0005421404805F0BEFE00BF40213D4805F0CA
:100EE00027FF0028F9D02B213A4805F0B3FE00BFB8
:100EF0004021384805F01CFF0028F9D04F21354823
:100F000005F0A8FE00BF4021324805F011FF00287F
:100F1000F9D04B212F4805F09DFE00BF40212D4800
:100F200005F006FF0028F9D00D212A4805F092FEB1
:100F300000BF4021274805F0FBFE0028F9D00A2118
:100F4000244805F087FE10BD10B500BF40212148A0
:100F500005F0EEFE0028F9D043211E4805F07AFE88
:100F600000BF40211B4805F0E3FE0028F9D05421C2
:100F7000184805F06FFE00BF4021164805F0D8FE66
:100F80000028F9D02B21134805F064FE00BF402152
:100F9000104805F0CDFE0028F9D045210D4805F098
:100FA00059FE00BF40210B4805F0C2FE0028F9D0D1
:100FB000522111E0000801400038014000007A444D
:100FC00043542B4F4B0D0A0043542B4552524F0DA7
:100FD0000A00000000480040FE4805F03BFE00BF4C
:100FE0004021FC4805F0A4FE0028F9D05221F94820
:100FF00005F030FE00BF4021F64805F099FE0028BC
:10100000F9D04F21F34805F025FE00BF4021F148FB
:1010100005F08EFE0028F9D00D21EE4805F01AFEED
:1010200000BF4021EB4805F083FE0028F9D00A21DB
:10103000E84805F00FFE10BD2DE9F05F4FF0000A03
:101040000024A146E448007802287DD1E348C07816
:101050004F28FAD1E14800795028F6D1DF4840798D
:101060004D28F2D1DD488079532879D1DB48C07909
:10107000452875D1D948007A542871D1D748407A8B
:10108000432815D1012003F086FE0120D4490870C1
:101090000020D44908700420D3490870FFF7FBFEF4
:1010A000D2480078002859D0D1A007F04FFD55E074
:1010B000CA48407A572814D1012003F06CFE022060
:1010C000C74908700020C7490870C7490870FFF772
:1010D000E2FEC6480078002840D0CFA007F036FDD9
:1010E0003CE0BE48407A4D281CD1002003F053FE5E
:1010F0000020BB490870FFF7CEFEBC48007810B155
:10110000CFA007F023FD012003F08DFD03F03BF994
:1011100003F024F94FF4FA7001F0DCFB002003F037
:1011200082FD1BE0AD48407A522815D10020AC4921
:101130000870AC4908700420AB490870FFF7ABFE9B
:1011400003F055F9A94801E0A8E009E0007828B1CA
:10115000C2A007F0FBFC01E0FFF7A2FEBDE8F09F94
:101160009E4880794F2816D19C48C079552812D1C5
:101170009A48007A54280ED1002003F00CFE00207B
:1011800097490870FFF787FE9848007810B1B8A01B
:1011900007F0DCFCE2E79248007800287ED04FF0B0
:1011A000000A8F480078012879D18C48807953282B
:1011B00073D18A48C07934286FD18848007A3028A2
:1011C0006BDB8648007A362867DC8448007A303842
:1011D000AD4908708148407A302803D07F48407A72
:1011E00031285AD17D48807A2B2827D17B48C07A74
:1011F000A0F130047948007B04EB840100EB41004E
:10120000A0F130047548407B04EB840100EB410001
:10121000A0F130047148807B04EB840100EB4100B5
:10122000A0F13004204607F059FA81469749484614
:1012300007F085F881464FF0010A2EE06748807A72
:101240002D282AD16548C07AA0F130046348007B7C
:1012500004EB840100EB4100A0F130045F48407BC7
:1012600004EB840100EB4100A0F130045B48807B7B
:1012700004EB840100EB4100A0F13004204607F0AC
:101280002DFA81468149484607F059F80546002164
:1012900007F020F881464FF0010A01E04CE12FE011
:1012A000BAF1010F29D17A49484607F048F8834638
:1012B00007F046FA07463A460B460020754907F004
:1012C000F3FF054607F080FA44494A7A6E490978E7
:1012D00002EB41013039704A42F821006F48016841
:1012E0003E48427A6848007802EB400030386C4A49
:1012F00042F82010FFF7CFFD2FE1FFF7D1FD2CE1E1
:10130000374800780228F7D1344880795328F3D140
:101310003248C07930285ADB3048C079362856DC4C
:101320002E48007A2B2827D12C48407AA0F130048F
:101330002A48807A04EB840100EB4100A0F13004DC
:101340002648C07A04EB840100EB4100A0F1300490
:101350002248007B04EB840100EB4100A0F1300443
:10136000204607F0BBF981464849484606F0E7FFAA
:1013700081464FF0010A9AE01848007A2D2827D1BB
:101380001648407AA0F130041448807A04EB8401B6
:1013900000EB4100A0F130041048C07A04EB840156
:1013A00000EB4100A0F130040C48007B04EB840109
:1013B00000EB4100A0F13004204607F08FF9814690
:1013C0003249484606F0BBFF054600216AE09CE032
:1013D0006DE00000004800407700002080020020FF
:1013E000CF010020CE010020CD01002069000020A7
:1013F000BDF8C8EBB9A6C2CABCC6B5B5CEBBD0A3B2
:10140000D7BCC4A3CABDA3BAB2A8B3A4A3BA31358A
:1014100035306E6D0D0A0000BDF8C8EBB9A6C2CA22
:10142000BCC6B2A8B3A4D0A3D7BCC4A3CABDA3BA38
:10143000B2A8B3A4A3BA3835306E6D0D0A0000000F
:10144000B9CCBBAFD0A3D7BCD6B5A3ACCDCBB3F68C
:10145000D0A3D7BCC4A3CABD0D0A0000B9A6C2CA96
:10146000D0A3D7BCD6B5B8B4CEBB2121210D0A007C
:10147000CDCBB3F6B9A6C2CABCC6D0A3D7BCC4A351
:10148000CABD0D0A00000000D40100200000C842BF
:1014900000002041000024400C010020D001002069
:1014A0006801002006F016FF81464FF0010AFE4851
:1014B000C0793038FD49087003F0C0FFFC4801686E
:1014C000484606F004FF8146FA49484606F037FFD1
:1014D000834607F035F905462A460B460020F649B3
:1014E00007F0E2FE074607F06FF98146F348EF4A3E
:1014F000127850F82210484606F0EFFE8146EF4879
:10150000EA49097840F8219027E0E748C0794E2859
:1015100003DAE548C0794C281DD1E348C0794E284C
:101520000BDBE2480078401CE04908700846007870
:10153000062812DD002008700FE0DC480078002843
:1015400005DDDA480078401ED849087005E006201D
:10155000D649087001E0FFF7A3FC0020D8490870C5
:1015600000BFFBE500B585B00121D64805F0DBF9E9
:101570000420ADF8100018208DF8130003208DF81A
:10158000120004A9D04804F005FF0820ADF81000AF
:1015900004208DF8130004A9CB4804F0FBFE4FF49F
:1015A000E13000900020ADF80400ADF80600ADF881
:1015B0000800ADF80C000C20ADF80A006946C348DD
:1015C00005F04FFA0121C14805F0D7FA012240F297
:1015D0002551BE4805F0DDFA0121BC4805F0CDFAE1
:1015E00005B000BD08B54FF4C06005F0FBFB262038
:1015F0008DF8000001208DF8010002208DF8020016
:1016000001208DF80300684605F0F1FB08BD10B518
:10161000002440F22551AD4805F08AFB012808D18D
:1016200040F22551A94805F0C3FBA84805F016FB78
:10163000C4B210BD08B50121082005F067F90021EA
:101640004FF4802005F06FF94FF44060ADF80000D2
:1016500010208DF8030003208DF8020069469C4895
:1016600004F098FE4FF44061994804F042FF08BD31
:1016700008B54FF4C06005F0B5FB27208DF80000D9
:1016800001208DF8010003208DF8020001208DF863
:101690000300684605F0ABFB08BD00B585B001212D
:1016A000082005F033F90121880405F03CF94FF4D6
:1016B0008060ADF8100018208DF8130003208DF81D
:1016C000120004A9824804F065FE4FF40060ADF8F2
:1016D000100004208DF8130004A97D4804F05AFE80
:1016E0004FF4964000900020ADF80400ADF80600DD
:1016F000ADF80800ADF80C000C20ADF80A00694602
:10170000744805F0AEF90121724805F036FAFFF78A
:10171000AFFF012240F225516E4805F03AFA01214F
:101720006C4805F02AFA05B000BD10B5002440F25F
:101730002551684805F0FCFA012831D140F22551C5
:10174000644805F035FB634805F088FAC4B2624886
:101750000078FF2824D06148007808BB60480178F1
:101760000078401C5E4A10705E4844541046007871
:10177000322802DB0020114608700D2C03D1012015
:10178000554908700CE00A2C07D15348007801280D
:1017900003D1FF205049087002E000204E49087034
:1017A00010BD70B505460024002600BF50204E49EC
:1017B00008704D204870A4208870022D04D0032D9D
:1017C00006D0042D0CD107E000204849087008E03D
:1017D00001204649087004E011204449087000E0E7
:1017E00000BF00BF022D03D0032D01D0042D37D13F
:1017F00000203F4908703C49C87008714871487121
:101800003A480078C8713A48007808720D20C872CA
:101810000A200873002404E03348005D0644601C7D
:10182000C4B2092CF8DB300A2F4948728E720024AA
:1018300014E000BF4021274805F07AFA0028F9D0CB
:101840002948015D234805F005FA00BF40212148E1
:1018500005F06EFA0128F9D1601CC4B20D2CE8DB4A
:1018600070BD70B506460024002500BF20480078F2
:1018700000F0F0001E490870084600780B4909780E
:1018800008431B4908705020174908704D204870C4
:101890000846867015480078C871154800780872A7
:1018A0000D20C8720A2025E080020020CD01002012
:1018B000C40100200000204100002440A8010020B5
:1018C00077000020040002000008014000440040AE
:1018D000000C0140004800406B0000206E0000201A
:1018E0006A00002008020020900300200801002068
:1018F00007010020087300BF04E0F748005D0544BD
:10190000601CC4B2092CF8DB280AF34948728D72B6
:10191000002414E000BF4021F04805F009FA002837
:10192000F9D0ED48015DED4805F094F900BF402184
:10193000EA4805F0FDF90128F9D1601CC4B20D2C6C
:10194000E8DB70BD70B50446002504F001051DB943
:10195000002003F020FA07E0012003F01CFA3220F7
:1019600000F0B8FF03F06AFD70BD2DE9F04F8BB0B9
:101970000025A946AA4600200A90002483468046F6
:10198000099007900027069000BF62E0D448405DB0
:1019900042281CD1D249681C085C4F2817D1A81CCA
:1019A000085C4F2813D1E81C085C54280FD1281D6F
:1019B000085C53280BD1681D085C452807D1A81D79
:1019C000085C542803D1FF20C649087046E0C4488B
:1019D000405D212809D1C249681C085C022804D155
:1019E0004FF00109E81CC4B238E0BD48405D6428EE
:1019F00009D1BB49681C085C102804D14FF00209CA
:101A0000E81CC4B22AE0B648405D43280ED1B44970
:101A1000681C085C542809D1A81C085C2B2805D137
:101A20004FF003090320B04908702C46AC48405DD4
:101A30004C280CD1AA49681C085C532807D1A81C63
:101A4000085C3A2803D14FF00409A81CC4B2681CF2
:101A5000C5B2A6480078801EA84297DC00BFB9F145
:101A6000010F7DD1A1480178E01C814279DB9C48BF
:101A700010F804A0BAF1BF0F14D009DCBAF1A00F1E
:101A800070D0BAF1A10F6ED0BAF1A20F0AD152E113
:101A9000BAF1C80F68D0BAF1EE0F66D0BAF1FE0FF6
:101AA000F4D100E0C4E100209149087016200A90AA
:101AB00064218F4802780078401C8D4B18708D4847
:101AC00081541021184602780078401C187089480B
:101AD000815419460A780978491C0A981970854971
:101AE0008854184601780078401C1A4610708148C6
:101AF00000F801A080480278184601780078401C60
:101B000018707C4842547C480088C0F3072118466E
:101B100002780078401C1870764881547748017824
:101B2000184602780078401C187072488154734837
:101B30000088C0F30721184602780078401C18700E
:101B40006C4881546E480278184601780078401C31
:101B50001870684842546A480088C0F3072205E0BC
:101B600067E149E2ACE0DDE050E1EDE018460178E4
:101B70000078401C18705F4842546248017818464B
:101B800002780078401C18705A4881545D480088DB
:101B9000C0F30721184602780078401C1870554899
:101BA000815459480178184602780078401C187012
:101BB0005048815454480088C0F3072118460278E1
:101BC0000078401C18704B488154504801781846E2
:101BD00002780078401C1870464881544B480088B1
:101BE000C0F30721184602780078401C187041485D
:101BF000815447480178184602780078401C1870D4
:101C00003C48815442480088C0F3072118460278B6
:101C10000078401C1870374881543E4801781846B7
:101C200002780078401C1870324881543948008886
:101C3000C0F30721184602780078401C18702D4820
:101C4000815435480178184602780078401C187095
:101C50002848815430480088C0F30721184602788C
:101C60000078401C187023488154032506E0214861
:101C7000405D584400F0FF0B681CC5B21C4800785A
:101C80008542F4DB1A4801780078401C184A10702D
:101C9000184800F801B00D21104602780078401C69
:101CA000134B1870134881540A21184602780078A3
:101CB000401C18700F488154012018490870B7E083
:101CC0004FF4FA6000F006FE0120154908704FF449
:101CD0007A7002F0B7FFABE09003002000480040AC
:101CE0000802002049000020770000206A00002040
:101CF0006C0000203A0200200C00002010000020A0
:101D000014000020180000202C0000201C000020DF
:101D10002000002024000020280000206E00002069
:101D20000A0000204FF4FA6000F0D4FD4FF47A70FE
:101D300002F088FF7CE04FF4FA6000F0CBFD4FF436
:101D40007A7002F07FFF73E00020FE4908700E20D9
:101D50000A906421FB4802780078401CF94B187007
:101D6000F94881541021184602780078401C1870F8
:101D7000F548815419460A780978491C0A9819705F
:101D8000F1498854184601780078401C1A461070B2
:101D9000ED4800F801A000250BE0EC48425DE94861
:101DA00001780078401CE74B1870E7484254681CE3
:101DB000C5B20A2DF1DB032506E0E348405D584437
:101DC00000F0FF0B681CC5B2DE4800788542F4DBEA
:101DD000DC4801780078401CDA4A1070DA4800F8D4
:101DE00001B00D21104602780078401CD54B1870C8
:101DF000D54881540A21184602780078401C187092
:101E0000D14881540120D249087011E04FF4FA7092
:101E100000F060FD4FF47A7002F014FF002002F031
:101E200021FF4FF4FA7000F055FDFF2002F01AFF79
:101E3000F1E3B9F1020F74D1C64890F802A0BAF1EB
:101E4000A80F7AD00CDCBAF1A10F13D0BAF1A20F0F
:101E500025D0BAF1A30F66D0BAF1A40F6FD16DE00F
:101E6000BAF1B00F6ED0BAF1B20F7DD0BAF1B40FA3
:101E7000F4D187E0B848007800F0010048B9B648CE
:101E8000007840F00100B449087008460078FFF778
:101E900059FD012002F07FFF4FF00108A5E0AE4898
:101EA000007800F0010048B9AB48007840F001002C
:101EB000A949087008460078FFF744FDA548C67890
:101EC00000790890062E0DDCA4480670A44800781E
:101ED00020F00F00A249087006F00F0009780843AF
:101EE0009F4908700898012818DC9E4908980870D6
:101EF0000846007801280BD19948007820F0F000BE
:101F0000974908700846007840F01000087005E016
:101F10009348007820F0F000914908704FF00108D4
:101F200063E077E009E08B48C6788B48067000785C
:101F3000FFF708FD4FF0010857E056E055E053E089
:101F400000E011E08348C678312E0CDBA6F13000AA
:101F5000C6B20A2E07DC09963220099E704309900A
:101F6000099802F06FFE40E07A48C678312E03D11E
:101F7000FF2002F091FE04E0302E02D1002002F09A
:101F80008BFE32E07348C678322E03D102207649A8
:101F900008700AE0312E03D101207349087004E073
:101FA000302E02D10020704908706F480078012857
:101FB00005D102F0B4FE012002F0A4FE08E06A4858
:101FC000007828B9002002F0AAFE002002F09AFE54
:101FD00065480078022803D1012002F04CFD02E0A0
:101FE000002002F048FD00E000BF00BFB8F1010F83
:101FF00003D1AA20FFF735FC0DE3B8F1020F05D09D
:10200000B8F1030F02D0B8F1040FF5D14046FFF745
:10201000C8FB00E3B9F1030F7BD1544800780328D3
:1020200078D14C49E01C085C4F28F9D1201D085C90
:102030005028F5D1601D085C4D28F1D1A01D085C29
:10204000532868D1E01D085C452864D104F10800DC
:10205000085C54285FD104F10900085C432817D1BB
:10206000012002F098FE01204149087000204149FA
:102070000870042039490870FEF717FF3E480078C1
:10208000002804D0AFF698413C48FEF7EDFD7FE014
:10209000304904F10900085C572815D1012002F0ED
:1020A0007AFE0220324908700020324908702B491C
:1020B0000870FEF7FAFE3048007848B3AFF6A84142
:1020C0002E48FEF7D1FD63E0224904F10900085CC7
:1020D0004D2821D1002002F05EFE00202449087026
:1020E000FEF7E3FE2448007820B1AFF6AC41234868
:1020F000FEF7BAFD012002F096FD02F044F902F06D
:102100002DF94FF4FA7000F0E5FB002002F08BFD92
:102110003EE013E2E0E03EE00E4904F10900085C15
:10212000522833D100201249087012490870042047
:102130000A490870FEF7B9FE02F059F90E48007816
:1021400018B31DE06C0000203A02002000000020BF
:102150006E0000200802002006010020CD010020B2
:10216000070100200501002030000020770000203A
:10217000CF010020CE01002069000020004800406F
:10218000AFF62851F948FEF76FFD01E0FEF7DCFEDF
:102190000BB0BDE8F08FF649A01D085C4F2819D19F
:1021A000E01D085C552815D104F10800085C54288E
:1021B00010D1002002F0EFFD0020EE490870FEF77C
:1021C00074FEED48007820B1AFF65C51E748FEF7A9
:1021D0004BFDDDE7E748007800287DD00020079020
:1021E000E4480078012878D1E149A01D085C532813
:1021F00050D1E01D085C34284CD104F10800085C83
:10220000302847DB04F10800085C36287FDC04F145
:102210000800085C3038D9490870D54904F1090034
:10222000085C302804D004F10900085C31286ED124
:10223000CF4904F10A00085C2B282CD1D048C07A81
:10224000A0F1300704F10C00085C07EB870100EBFC
:102250004100A0F13007C64904F10D00085C07EB0E
:10226000870100EB4100A0F13007C14904F10E00E5
:10227000085C07EB870100EB4100A0F1300738460E
:1022800006F02CFA0690BF49069806F058F806901A
:10229000012007903BE0B64904F10A00085C2D28B4
:1022A00035D1B74904F10B00085CA0F13007B04903
:1022B00004F10C00085C07EB870100EB4100A0F182
:1022C0003007AB4904F10D00085C07EB870100EB18
:1022D0004100A0F1300701E0D2E04EE0A44904F152
:1022E0000E00085C07EB870100EB4100A0F130070E
:1022F000384606F0F3F90690A249069806F01FF852
:102300000021059005F0E6FF069001200790079850
:1023100001282FD19C49069806F011F8019006F08B
:102320000FFA02460B46CDE902010020974906F05C
:10233000BBFFCDE9040106F047FA8D4A04F109011B
:10234000525C8E49097802EB41013039904A42F8DB
:1023500021009048864A016804F10900125C874810
:10236000007802EB400030388B4A42F82010FEF72C
:102370009CFDDFE0FEF7E8FDDCE07E480078022807
:102380007ED17B49A01D085C532879D1E01D085CF3
:10239000302876DBE01D085C362872DC04F108008A
:1023A000085C2B282FD1764904F10900085CA0F1C4
:1023B00030076F4904F10A00085C07EB870100EB66
:1023C0004100A0F130076A4904F10B00085C07EBFB
:1023D000870100EB4100A0F13007654904F10C00D2
:1023E000085C07EB870100EB4100A0F1300738469D
:1023F00006F074F906906349069805F0A0FF069070
:102400000120079037E05E4904F10800085C2D28A0
:1024100031D104F10900085CA0F13007544904F1FE
:102420000A00085C07EB870100EB4100A0F13007D0
:102430004F4904F10B00085C07EB870100EB4100FA
:10244000A0F130074A4904F10C00085C07EB870152
:1024500000EB4100A0F13007384606F03FF9069046
:102460004849069805F06BFF0021059005F032FF02
:102470000690012007903E49E01D085C303801E0DD
:1024800047E02DE04549087002F0D8FF4448016854
:10249000069805F01CFF06903B49069805F04FFF93
:1024A000019006F04DF902460B46CDE902010020ED
:1024B000364906F0F9FECDE9040106F085F90690EB
:1024C0003848364A127850F82210069805F005FF71
:1024D00006903449314A1278069841F8220029E0E2
:1024E0002349E01D085C4E2803DAE01D085C4C28F7
:1024F0001ED11F49E01D085C4E280BDB27480078E1
:10250000401C2649087008460078062812DD002085
:1025100008700FE021480078002805DD1F4800788A
:10252000401E1E49087005E006201C49087001E0A5
:10253000FEF70AFD00201C4908706CE0B9F1040F99
:1025400069D10B48005DB8BB0020184908704FF4F2
:102550000051174803F0CDFF002001F086FB00205A
:1025600001F0D8FA00201349087054E000480040F8
:1025700008020020CF01002069000020D4010020C3
:10258000800200200000C8420000204100002440DA
:102590000C010020D001002068010020CD010020A6
:1025A000C4010020A8010020770000205400002072
:1025B0000010014055000020FFE700200790AD49C2
:1025C000601C085C002822DD601C085C04281EDA00
:1025D000201D095CA74AE01C105C01EB0027B7F541
:1025E000805F14D201200790A34908704103A348DB
:1025F00003F07DFF9F4A611C505C01F036FB3846BA
:1026000001F088FA01209E490870FEF74EFC0798F9
:1026100008B9FEF799FC00209A49087000BFB7E599
:1026200099480078A0287DD0A12802D0A2287AD18C
:102630003FE00020954908706421944802780078B2
:10264000401C924B18709248815410211846027811
:102650000078401C18708E48815404211846027876
:102660000078401C18708A488154A12118460278CD
:102670000078401C187086488154A12218460178C1
:102680000078401C1870824842540D221846017888
:102690000078401C18707E4842540A22184601787F
:1026A0000078401C18707A4842540120794908701B
:1026B00087E0002075490870642208460178007898
:1026C000401C724B18707248425410211846027810
:1026D0000078401C18706E48815404221846017816
:1026E0000078401C18706A484254A22118460278AB
:1026F0000078401C187066488154184602780078AB
:10270000401C1870624881540D21184602780078E8
:10271000401C18705E4881540A21184602780078DF
:10272000401C01E007E046E0187059488154012040
:102730005849087045E00020544908706421534806
:1027400002780078401C514B187051488154102277
:10275000184601780078401C18704D4842540421F6
:10276000184602780078401C187049488154A0210E
:10277000184602780078401C187045488154A02201
:10278000184601780078401C1870414842540D21C9
:10279000184602780078401C18703D4881540A2180
:1027A000184602780078401C18703948815401207E
:1027B0003849087005E00020344908703549087030
:1027C00000BF00BF704770B50024002500BF21E0A6
:1027D00000BF4021304804F0ABFA0028F9D02F4860
:1027E000015D2D4804F036FA00BF40212A4804F06C
:1027F0009FFA0128F9D12948005D0D2801D1012552
:1028000006E02648005D0A2802D1012D00D103E030
:10281000601CC4B2322CDBDB00BF70BD70B500247D
:10282000002500BF21E000BF40211B4804F080FAD2
:102830000028F9D01648015D174804F00BFA00BFD4
:102840004021154804F074FA0128F9D11048005DC0
:102850000D2801D1012506E00D48005D0A2802D1AE
:10286000012D00D103E0601CC4B2142CDBDB00BFDF
:1028700070BD00000802002054000020001001403C
:10288000550000206B00002038000020740000205C
:102890006C02002075000020004800403A02002031
:1028A00010B504466FF0040004F0EBFAE11704EBF6
:1028B0005171C1F3C701294A11701046007800EB2D
:1028C0004001C1EBC0104FF6FF7101EAC00024497E
:1028D000088010BD0146224A12884A434FF0E02387
:1028E0005A6100229A6101221A6100BF4FF0E02272
:1028F000106900F001021AB100F48032002AF5D00C
:1029000000224FF0E0231A619A6170470146134A92
:1029100012784A434FF0E0235A6100229A61012263
:102920001A6100BF4FF0E022106900F001021AB1F5
:1029300000F48032002AF5D000224FF0E0231A6123
:102940009A61704710B5044602E00120FFF7C2FF0C
:102950002000A4F10104F8D110BD00007A0000208D
:102960007C00002008B50121082003F0CFFF0320E0
:10297000ADF8000000208DF8030003208DF8020060
:102980006946E34803F006FD0121102003F0BEFF75
:102990001020ADF8000000208DF8030003208DF812
:1029A00002006946DB4803F0F5FC08BD10B50121C3
:1029B000084603F09EFF01214FF4067003F0A6FFC6
:1029C000D548D6490860D6484860002088601E2057
:1029D000C860002008618020486140008861800054
:1029E000C861202008620002486200208862CD4849
:1029F00004F008FB0121CB4804F02FFBC6484C38FB
:102A000003F0ECF80020C849086001200871487103
:102A10004FF4602088600020C86003200874BE481E
:102A20004C3803F002F9072301220821BA484C3838
:102A300003F093F9072302220921B7484C3803F029
:102A40008CF9072303220E21B3484C3803F085F993
:102A50000121B1484C3803F01FF90121AE484C3830
:102A600003F00FF9AC484C3803F02DF900BFAA4829
:102A70004C3803F02DF90028F9D1A7484C3803F061
:102A800031F900BFA4484C3803F031F90028F9D1DE
:102A90000121A1484C3803F034F910BD10B5FFF7FF
:102AA00061FFFFF783FF4FF4004003F093FE012125
:102AB000084603F01EFF10BD70B5002400259B489A
:102AC000048804EB4411080B05F008FE054670BDB0
:102AD0002DE9F04F87B00024A146A246A34600206E
:102AE000049000BF20E04FF0000AD14611E009EB4E
:102AF00049008B4901EB400030F814004FF6FF719C
:102B000090FBF1F201FB1200824409F1010000F098
:102B1000FF09B9F10A0FEADB0A20BAFBF0F005A9B8
:102B200041F82400601CC4B2022CDCDB069805F0DE
:102B3000D5FD8346584605F003FE4FF066327C4BC8
:102B4000CDE9000105F0E0FC00227A4BCDE902015D
:102B500005F04CFD074600224FF0804305F0D4FC01
:102B6000054605F031FE8346059805F0B7FD049053
:102B7000049805F0E5FD05464FF066326C4B05F014
:102B8000C3FC00226B4BCDE9020105F02FFD074687
:102B900005F01AFE049007B0BDE8F08F2DE9F84F5C
:102BA0004FF0000AD3460020009000BF0AE00AEB75
:102BB0004A005B4901EB4000808883440AF1010030
:102BC00000F0FF0ABAF10A0FF1DB0A20BBFBF0FBB1
:102BD000584605F083FD0090009805F0B1FD0646CB
:102BE0004FF06632524B05F08FFC04460022514BE9
:102BF00005F0FCFC804605F0E7FD00900098BDE87C
:102C0000F88F10B500210022002000BF08E001EB82
:102C10004103434C04EB43039B881A444B1CD9B239
:102C20000A29F4DB0A23B2FBF3F2104610BD2DE9AA
:102C3000FE4F4FF0000AD3460020029000BF09E08B
:102C40000AEB4A00364931F8100083440AF10100CA
:102C500000F0FF0ABAF10A0FF2DB0A20BBFBF0FB1F
:102C6000584605F03BFD0290029805F069FD4FF0D3
:102C700066322F4BCDE9000105F046FC06460022E6
:102C80002C4B05F0B3FC04462B4A2C4B05F03CFCC6
:102C9000804605F099FD02900298BDE8FE8F2DE96F
:102CA000FE4F4FF0000AD3460020029000BF0AE01A
:102CB0000AEB4A001A4901EB4000408883440AF1BC
:102CC000010000F0FF0ABAF10A0FF1DB0A20BBFB9A
:102CD000F0FB584605F002FD0290029805F030FD29
:102CE0004FF06632124BCDE9000105F00DFC0646AF
:102CF0000022104B05F07AFC04460F4A0F4B05F0FA
:102D000003FC804605F060FD02900298BDE8FE8F4E
:102D1000000C0140001001404C240140C80200207A
:102D2000F402002008000240B40200207E000020CF
:102D300066660A400000B040F6285C8FC2F5174076
:102D400008B54FF4C06004F04DF807208DF800007E
:102D500002208DF8010001208DF802008DF803009B
:102D6000684604F044F806208DF8000002208DF833
:102D7000010003208DF8020001208DF80300684651
:102D800004F035F808BD0EB50121112003F0BEFD99
:102D9000FFF7D6FF0120ADF8080048208DF80B00A2
:102DA00002A94B4803F0F6FA0021084603F008FC9C
:102DB0000120009000208DF804000C208DF8050003
:102DC00001208DF80600684603F004FA0121002076
:102DD00003F0F6FB0220009000208DF804000C2088
:102DE0008DF8050001208DF80600684603F0F2F921
:102DF0000EBD10B5012003F053FA10B10120354982
:102E00000870012003F05DFA10BD10B5022003F038
:102E100047FA10B102202F490870022003F051FA3E
:102E200010BD10B500240121294803F046FB0028FD
:102E30004CD10DE00121264803F03FFB38B90120B9
:102E4000FFF748FD641CB4F5FA7F01D301E000E010
:102E5000F0E700BF142C19D91F480068B0B11E4814
:102E60000068012803D102201B4908600AE01A48C3
:102E70000068032803D101201849087002E00020EF
:102E800015490860C82001F0DDFE02E0002012496B
:102E90000860B4F5F57F19D31148007860B9FF20B8
:102EA0000F490870FDF7CEFB4FF47A7001F0CAFEAF
:102EB00001200C49087009E009480078FF2805D175
:102EC000A0200949087001200649087010BD0000C3
:102ED0000008014080000020500000204900002030
:102EE0000A000020810000203800002008B50121E0
:102EF000102003F00BFD00214FF4002003F013FD20
:102F00004FF44060ADF8000010208DF8030003205E
:102F10008DF802006946FB4803F03CFA4FF440612B
:102F2000F84803F0E6FA08BD08B54FF4C06003F0B6
:102F300059FF34208DF8000001208DF80100042095
:102F40008DF8020001208DF80300684603F04FFF62
:102F500008BD00B585B00121102003F0D7FC012188
:102F6000C80403F0E0FC4FF48060ADF810001820B6
:102F70008DF8130003208DF8120004A9E14803F036
:102F800009FA4FF40060ADF8100004208DF813002A
:102F900004A9DC4803F0FEF94FF4E1300090002072
:102FA000ADF80400ADF80600ADF80800ADF80C006F
:102FB0000C20ADF80A006946D34803F052FD012108
:102FC000D14803F0DAFDFFF7AFFF012240F22551AF
:102FD000CD4803F0DEFD0121CB4803F0CEFD05B066
:102FE00000BD10B540F22551C74803F0A1FE0128ED
:102FF00031D140F22551C44803F0DAFEC24803F053
:103000002DFEC4B2C1480078022824D00D2C03D173
:103010000120BE4908700FE0BC48007801280BD1A0
:103020000A2C06D10220B94908700420B84908705A
:1030300002E00020B5490870B64801780078401CCD
:10304000B44A1070B4484454104600781E2802DB7D
:1030500000201146087010BD10B5044600BF402185
:10306000204603F065FE0028F9D04521204603F0F4
:10307000F1FD00BF4021204603F05AFE0028F9D0A0
:103080005221204603F0E6FD00BF4021204603F018
:103090004FFE0028F9D05221204603F0DBFD00BF8F
:1030A0004021204603F044FE0028F9D04F2120465D
:1030B00003F0D0FD00BF4021204603F039FE002878
:1030C000F9D00D21204603F0C5FD00BF4021204668
:1030D00003F02EFE0028F9D00A21204603F0BAFDA5
:1030E00010BD10B5044600BF4021204603F020FE6D
:1030F0000028F9D04F21204603F0ACFD00BF40214D
:10310000204603F015FE0028F9D04B21204603F09D
:10311000A1FD00BF4021204603F00AFE0028F9D09F
:103120000D21204603F096FD00BF4021204603F00C
:10313000FFFD0028F9D00A21204603F08BFD10BDC9
:1031400070B50546002400BF4021284603F0F0FD7D
:103150000028F9D04821284603F07CFD00BF40211B
:10316000284603F0E5FD0028F9D05721284603F052
:1031700071FD00BF4021284603F0DAFD0028F9D098
:103180003A21284603F066FD002417E06348005DFD
:103190000D2805D16149601C085C0A2800D10FE0A8
:1031A00000BF4021284603F0C3FD0028F9D05B484A
:1031B000015D284603F04EFD601CC4B2132CE5DB14
:1031C00000BF00BF4021284603F0B2FD0028F9D01F
:1031D0000D21284603F03EFD00BF4021284603F0A4
:1031E000A7FD0028F9D00A21284603F033FD70BD61
:1031F00070B50546002400BF4021284603F098FD25
:103200000028F9D05321284603F024FD00BF4021B7
:10321000284603F08DFD0028F9D04E21284603F002
:1032200019FD00BF4021284603F082FD0028F9D097
:103230003A21284603F00EFD002417E03848005DCF
:103240000D2805D13649601C085C0A2800D10FE022
:1032500000BF4021284603F06BFD0028F9D030481C
:10326000015D284603F0F6FC601CC4B2132CE5DBBC
:1032700000BF00BF4021284603F05AFD0028F9D0C6
:103280000D21284603F0E6FC00BF4021284603F04C
:103290004FFD0028F9D00A21284603F0DBFC70BD61
:1032A00070B5064600251F4C00BF4021304603F094
:1032B0003FFD0028F9D05421304603F0CBFC00BF7D
:1032C0004021304603F034FD0028F9D04521304636
:1032D00003F0C0FC00BF4021304603F029FD002868
:1032E000F9D04D21304603F0B5FC00BF40213046F7
:1032F00003F01EFD0028F9D03A21304603F0AAFC65
:1033000000251FE000100140004C00408300002019
:10331000840000208200002030030020860000206E
:103320009A0000206400002000BF4021304603F0D6
:10333000FFFC0028F9D014F8011B304603F08AFC8A
:10334000681CC5B2042DEFDB00BF4021304603F0FE
:10335000EFFC0028F9D00D21304603F07BFC00BFC4
:103360004021F94803F0E4FC0028F9D00A21304656
:1033700003F070FC70BD70B50546F449F448006870
:1033800004F0ABFF0646304605F0C6F904460A20B5
:10339000B4FBF0F400BF4021284603F0C9FC00282C
:1033A000F9D05621284603F055FC00BF402128469D
:1033B00003F0BEFC0028F9D04221284603F04AFC65
:1033C00000BF4021284603F0B3FC0028F9D0522169
:1033D000284603F03FFC00BF4021284603F0A8FC2C
:1033E0000028F9D03A21284603F034FC00BF4021E0
:1033F000284603F09DFC0028F9D0C4F30F2128468D
:1034000003F028FC00BF4021284603F091FC00286F
:10341000F9D0E1B2284603F01DFC00BF4021284648
:1034200003F086FC0028F9D00D21284603F012FC99
:1034300000BF4021284603F07BFC0028F9D00A2178
:10344000284603F007FC70BD2DE9FF5F002400262D
:103450000025002003908046814682460290002786
:1034600000BFC7E2BB48007840B3BB4800780728DC
:1034700024DBBA48005D42281FD1B849601C085CB3
:103480004F28F9D1A01C085C4F28F5D1E01C085C3E
:103490005428F1D1201D085C4F28EDD1601D085C37
:1034A0004B28E9D1A01D085C0D28E5D1E01D085C82
:1034B0000A28E1D10020A749087099E2A748005DD9
:1034C000442840D1A549601C085C41283BD1E01C40
:1034D000085C3A2837D1A01D085C0D2833D1E01DC7
:1034E000085C0A282FD1A01C085C312802D10120D9
:1034F000029006E09949A01C085C322801D1022004
:10350000029097490298087008460078D0B1934914
:10351000201D0F5C601D085C00EB0727B7F5805F7E
:1035200010D28F480078012804D1B9B2002002F0EF
:1035300006FE07E08A480078022803D1B9B20020CD
:1035400002F00AFE5CE28548005D56287ED1834980
:10355000601C085C4228F9D1A01C085C5228F5D1F7
:10356000E01C085C3A28F1D1201D085C3F2817D1E7
:10357000601D085C0D2813D1A01D085C0A280FD11E
:1035800078480078012803D17748FFF7F4FE2FE24E
:1035900074480078042890D16B48FFF7ECFE27E2CE
:1035A00004F10900282888DA6C49E01D085C0D2820
:1035B000EDD104F10800085C0A28E8D1201D085C60
:1035C000322862DB201D085C38285EDC601D085C48
:1035D00030285ADB601D085C392856DCA01D085CC9
:1035E000302852DBA01D085C39284EDC0A46211D1C
:1035F000515CA1F1300005F068F855490860574A60
:10360000611D505C05F06AF8584901905048006807
:1036100004F063FE0090019904F007FE83465449CC
:1036200004F055FE4A4908604C4AA11D505C05F063
:1036300055F84E4901904648006804F04EFE00904F
:10364000019904F0F2FD8346494900E02DE004F0C1
:103650003EFE3F49086045493D48006804F06FFE62
:103660003B4908603F480078012803D13E48FFF7F6
:1036700038FD06E03B480078042802D13248FFF7C5
:1036800030FD052000F0DDFFBAE136480078012862
:1036900003D13548FFF7E0FC06E032480078042803
:1036A00002D12948FFF7D8FCAAE12C48005D542834
:1036B00028D12A49601C085C452823D1A01C085C3D
:1036C0004D281FD1E01C085C3A281BD1201D085C46
:1036D0003F2817D1601D085C0D2813D1A01D085C80
:1036E0000A280FD11F480078012803D11E48FFF790
:1036F000D7FD06E01B480078042802D11248FFF7E6
:10370000CFFD7DE11548005D532879D11349601C38
:10371000085C4E28F9D1A01C085C3A28F5D1E01CC1
:10372000085C3F282ED1201D085C0D282AD1601D81
:10373000085C0A2826D10B48007801281AD10A48CB
:10374000FFF756FD1DE00000004C00400000C8429D
:103750005C0000204900002082000020300300208F
:103760008500002084000020003801400000204136
:1037700000004042FE480078042802D1FD48FFF7CF
:1037800037FD3DE1002685E0FB49F01C085C0D2873
:103790007ED1301D085C0A287AD1002538E0F64930
:1037A000E81C085C5A2803DCE81C085C41281ADA8B
:1037B000F149E81C085C392803DCE81C085C302867
:1037C00011DAED49E81C085C7A2803DCE81C085C87
:1037D000612808DAE849E81C085C0D2803D0E81CD9
:1037E000085C0A280DD1E449E81C085CE349485507
:1037F000E149E81C085CE24948554FF0010905E041
:103800007EE02A20DD4948554FF00108681CC5B20A
:10381000B542C4DB0D222846691CCDB2D7490A54F3
:103820000A222846691CCDB2D4490A54A81EC5B242
:103830000D222846691CCDB2D1490A540A222846D5
:10384000691CCDB2CE490A54B8F1010F05D0B9F1C7
:10385000010F02D1022000F0F4FE00F021FE00254D
:1038600013E0C748405DC549495D884203D14FF028
:10387000010A08E00CE0C248405DC049495D884249
:1038800001D04FF0000A681CC5B2132DE9DB04E03B
:10389000701CC6B2132EFFF677AF00BFBAF1000F4F
:1038A00002D0B8F1010F12D1B1480078012803D13C
:1038B000B448FFF7D1FB06E0AD480078042802D1F8
:1038C000AC48FFF7C9FB4FF00008C24698E0B9F1D9
:1038D000010F75D1BAF1010F72D1A5480078012806
:1038E00003D1A848FFF7FDFB06E0A14800780428B3
:1038F00002D1A048FFF7F5FB4FF00009CA467FE070
:103900009D48005D482873D19B49601C085C57287E
:103910006ED1A01C085C3A286AD1E01C085C3F28E4
:1039200017D1201D085C0D2813D1601D085C0A28E2
:103930000FD18F480078012803D19248FFF700FC8F
:1039400006E08B480078042802D18A48FFF7F8FB8C
:1039500056E0002637E08849301D085C0D2830D13C
:10396000701D085C0A282CD181480078012803D1F9
:103970008448FFF7B6FB06E07D480078042802D1B2
:103980007C48FFF7AEFB002506E07B49E81C085C9D
:103990007D494855681CC5B2B542F6DD0D22284662
:1039A000691CCDB278490A540A222846691CCDB256
:1039B00075490A54042000F044FE0120039004E0FD
:1039C00016E0701CC6B2132EC5DB00BF039878B991
:1039D00067480078012803D16A48FFF73DFB06E0FD
:1039E00063480078042802D16248FFF735FB07E0FE
:1039F000601CC4B265480078801EA0423FF732AD1B
:103A000000BFBDE8FF9F00B585B00121042002F092
:103A10007DFF0121480702F086FF1020ADF810005D
:103A200000208DF8130003208DF8120004A95848D7
:103A300002F0B0FC1021564802F059FD0020009021
:103A4000019002900390694602F0FBFA01210020E8
:103A500002F014FB0021084602F071FB05B000BD26
:103A60002DE9F0470446204604F038FE81464949D6
:103A7000484604F064FC81464FF08B41484604F010
:103A80002CFC824604F05CFE07464FF06632424B47
:103A900004F0ACFD054604F097FE8146484604F06C
:103AA0003BFE85B22946002002F049FBBDE8F087C5
:103AB00000B585B00121042002F028FF012148074C
:103AC00002F031FF2020ADF8100000208DF8130027
:103AD00003208DF8120004A92D4802F05BFC202180
:103AE0002B4802F004FD002000900190029002207B
:103AF00003906946102002F0A4FA0121102002F080
:103B0000BDFA0021084602F027FB012002F0F2FA7C
:103B100005B000BD10B50446A1B2002002F01CFBA8
:103B200010BD2DE9FF5F04460D460026B146DFF8C3
:103B30006CA0DFF86CB01B48039000200290204678
:103B400004F0FEFD0746184A184B04F025FE00D885
:103B50005446204604F0F4FD0746154A154B04F080
:103B600003FE00D80E4C2946204604F0B6FB23E0A5
:103B700084000020004C0040300300209A00002008
:103B8000AE000020003801408600002082000020A6
:103B90000008014000007A4466660A40AE4773425E
:103BA0000AD7DB4100204E45295C8FC2F5684E40A4
:103BB0007B14AE47E17A3B400446DDE9021004F095
:103BC00086FB80465146584604F081FB41460090F2
:103BD00004F0B5FB07465146204604F078FB394611
:103BE000019004F0ACFB0646304604F07CFD8146B3
:103BF0004846FFF735FFBDE8FF9F08B501210820C3
:103C000002F084FE4FF4C070ADF8000010208DF873
:103C1000030003208DF8020069464A4802F0BAFB0F
:103C20000121102002F072FE4FF40050ADF80000A8
:103C300010208DF8030003208DF8020069464248E9
:103C400002F0A8FB0121102002F060FE4FF400708A
:103C5000ADF8000028208DF8030003208DF8020045
:103C60006946394802F096FB08BD10B5044634B1E8
:103C7000012C0ED0022C16D0032C28D11DE080215F
:103C8000304802F036FC4FF480712E4802F031FCCF
:103C900027E080212B4802F02AFC4FF4807129484C
:103CA00002F027FC1DE08021264802F022FC4FF4A0
:103CB0008071244802F01BFC13E08021214802F0AF
:103CC00016FC4FF480711F4802F011FC09E08021BE
:103CD0001C4802F00EFC4FF480711A4802F009FCF7
:103CE00000BF00BF10BD70B504460D4616465CB956
:103CF0004FF40051144802F0FCFB0020FFF7B5FF21
:103D00000020FFF707FF1CE04FF400710E4802F09F
:103D1000D4FB58B14FF400510B4802F0EAFB0020ED
:103D2000FFF7A3FF0020FFF7F5FE0AE04FF4005174
:103D3000054802F0DCFB2846FFF797FF3046FFF707
:103D4000E9FE70BD000C01400010014008B50121E2
:103D5000082002F0DBFD6020ADF8000010208DF897
:103D6000030003208DF802006946FC4802F012FBB4
:103D700008BD38B50446012C11D10121082002F0FC
:103D8000C5FD4020ADF8000010208DF80300032091
:103D90008DF802006946F14802F0FCFA10E00121BA
:103DA000082002F0B3FD4020ADF8000048208DF857
:103DB000030003208DF802006946E84802F0EAFAA1
:103DC00038BD10B54021E54802F091FB1420FEF704
:103DD0009DFD2021E14802F08AFB1420FEF796FDAC
:103DE0004021DE4802F085FB1420FEF78FFD2021E4
:103DF000DA4802F07EFB10BD10B54021D74802F032
:103E000078FB1420FEF782FD2021D44802F06FFBDE
:103E10001420FEF77BFD4021D04802F068FB1420FF
:103E2000FEF774FD10BD10B5FF244021CB4802F011
:103E30005EFB0020FFF79DFF2021C84802F059FBE0
:103E40001420FEF763FD2021C44802F050FB14202B
:103E5000FEF75CFD08E0601EC4B214B9FFF7CCFFAA
:103E600010BD1420FEF752FD4021BC4802F025FB96
:103E70000028F0D12021B94802F03BFB0120FFF7D8
:103E800078FF00BFECE770B50446082500BF04F0DA
:103E90008000802804D14021B04802F028FB03E0D4
:103EA0004021AE4802F025FB1420FEF72FFD202113
:103EB000AA4802F01CFB1420FEF728FD2021A74889
:103EC00002F017FB1420FEF721FD6006040E681EA9
:103ED000C0B20500DBD1FFF7A6FF70BD70B50826A4
:103EE000002480250020FFF744FF1E20FEF70EFD72
:103EF0001AE02021994802F0FAFA1E20FEF706FD8A
:103F00004021964802F0D9FA08B12C4300E0AC43B6
:103F10006D081E20FEF7FAFC2021904802F0E9FA15
:103F20001E20FEF7F3FC761E002EE2D11E20FEF7C7
:103F3000EDFC0120FFF71DFFE0B270BD10B5044697
:103F400024B14021854802F0D2FA03E040218348A1
:103F500002F0CFFA1E20FEF7D9FC20217F4802F0A4
:103F6000C6FA1E20FEF7D2FC20217C4802F0C1FADE
:103F700010BD2DE9F04704460D4605F0FE09E7B2F5
:103F8000C4F307280120FFF7F4FEFFF71AFF4846A5
:103F9000FFF779FF1420FEF7B9FC4046FFF773FFE7
:103FA0001420FEF7B3FC3846FFF76DFF1420FEF730
:103FB000ADFCFFF706FF2846FFF765FF1420FEF76C
:103FC000A5FCFFF78BFF0646FFF716FF0120FFF762
:103FD000D0FE3046BDE8F0872DE9F04704460D4697
:103FE000164606F0FE0904F0FF08C4F30727012077
:103FF000FFF7BFFEFFF7E5FE4846FFF744FF32201C
:10400000FEF784FC3846FFF73EFF3220FEF77EFCC9
:104010004046FFF738FF3220FEF778FC2846FFF7CE
:1040200032FF3220FEF772FCFFF7E6FE0A20FEF7B1
:1040300051FCBDE8F0872DE9F04106460024002739
:10404000002500BF0BE07019A121FFF792FF074682
:1040500007EB04241420FEF759FC681CC5B2042D9C
:10406000F1DB2046BDE8F081F8B506460C46002598
:10407000E0B28DF80300200A8DF80200200C8DF8C4
:104080000100200E8DF8000000BF0AE01DF80510A9
:104090007019A022FFF7A0FF0520FEF71BFC681C8B
:1040A000C5B2042DF2DBF8BD2DE9F3410D46002425
:1040B0006F463E4600BF0AE031782819A022FFF77C
:1040C0008BFF761C1420FEF721FC601CC4B2042C6C
:1040D000F2DBBDE8FC81F8B5054600246F4600BF61
:1040E0000AE02819A121FFF744FF0DF804000A2077
:1040F000FEF70CFC601CC4B2042CF2DB3E683046B8
:10410000F8BD2DE9F04104460D461746FFF759FE6C
:10411000A020FFF7B8FE0A20FEF7F8FBC4F307263D
:104120003046FFF7B0FE0A20FEF7F0FBE6B230465D
:10413000FFF7A9FE0A20FEF7E9FB002608E0287831
:10414000FFF7A1FE1420FEF7E1FB6D1C701CC6B248
:10415000BE42F4DBFFF750FEBDE8F081000C0140E9
:104160002DE9F04105460E461746FFF72AFEA0202E
:10417000FFF789FE1E20FEF7C9FB4021FE4802F032
:104180009CF908B9BDE8F081C5F307242046FFF784
:104190007AFE4021F84802F090F900B9F2E7ECB25B
:1041A0002046FFF770FE4021F34802F086F900B97F
:1041B000E8E700240EE03078FFF765FE0A20FEF7FE
:1041C000A5FB4021EC4802F078F900B9DAE7761C4B
:1041D000601CC4B2BC42EEDBFFF70EFE00BFD1E7AD
:1041E0002DE9F04705468A461646002405EB0608E9
:1041F000AF094FEA9819B81C814501D9BDE8F0878D
:104200004F4508D1324651462846FFF7A9FF1420F2
:10421000FEF77CFB17E005F03F04C4F140042246A2
:1042200051462846FFF79CFF1420FEF76FFB341B16
:10423000781C4FEA8018E2B251464046FFF790FFE3
:104240001420FEF763FB00BFD8E710B50024FFF78A
:1042500045FE0446204610BD2DE9F04106460C46B9
:10426000174600250BE07019A321FFF782FE804658
:1042700004F8018B1420FEF749FB681CC5B2BD424F
:10428000F1DBBDE8F08173B50546002401AE00BF47
:104290000AE016F8011B2819A022FFF79DFE052051
:1042A000FEF718FB601CC4B2042CF2DB7CBDF8B531
:1042B000054600200090002600246F4600BF0EE057
:1042C0002819A121FFF755FE3855385DFF2801D187
:1042D000701CC6B20A20FEF719FB601CC4B2042C85
:1042E000EEDB042E01DB002000900098F8BD10B535
:1042F000002400BF09E04FF4827101EB8400FFF756
:10430000D6FF9E4941F82400641C102CF3D310BD45
:1043100010B5002400BF0DE00020994941F82400A9
:104320004FF4A57101EB8400FFF785FE944941F835
:104330002400641C102CEFD310BD10B5002400BF66
:1043400009E04FF4CD7101EB8400FFF7B0FF8D4918
:1043500041F82400641C072CF3D310BD10B50024D1
:1043600000BF0DE0874A52F82410A02202EB84021D
:1043700002F1FA00FFF787FF0520FEF7ABFA641C95
:10438000072CEFD310BD10B5002400BF1AE07B4A04
:1043900052F824100A2202EB840202F1FA00FFF71D
:1043A00072FF0520FEF796FA754A52F82410502243
:1043B00002EB840202F1FA00FFF756FE0520FEF739
:1043C00089FA641C102CE2D300240DE06D4A52F8E7
:1043D0002410A02202EB840202F1FA00FFF753FF3F
:1043E0000520FEF777FA641C072CEFD310BD10B53B
:1043F000A8B000244022644918A803F004FF40221A
:104400006149403108A803F0FEFE1C225E4980315C
:1044100001A803F0F8FE00BF26E018A850F8240019
:10442000564941F8240018AA52F824100A2202EB37
:10443000840202F1FA00FFF726FF0520FEF74AFA90
:1044400008AA52F82410502202EB840202F1FA006A
:10445000FFF70AFE08A850F82400494941F8240053
:104460000520FEF737FA641C102CD6D3002413E085
:1044700001A850F82400434941F8240001AA52F849
:104480002410A02202EB840202F1FA00FFF7FBFEE7
:104490000520FEF71FFA641C072CE9D328B010BDD5
:1044A00070B500240026002500BF3CE00A20FEF77E
:1044B0002DFA04F2F510A121FFF75BFD33490855F1
:1044C0000846005D324908553048005DFF2804D198
:1044D0002A202E4908552E4908552C48005D18B150
:1044E0002A48005D0D2800D10125D5B10D222046B6
:1044F000611CCCB225490A540A222046611CCCB268
:1045000022490A54A01EC4B20D222046611CCCB21E
:104510001F490A540A222046611CCCB21C490A5485
:1045200003E0601CC4B2142CC0DB00BF00250024D3
:1045300038E00A20FEF7EAF904F21220A121FFF781
:1045400018FD144908550846005DFF2801D12A20AE
:1045500008551048005D18B10E48005D0D2800D1C7
:104560000125EDB10D222046611CCCB209490A5447
:104570000A222046611C0FE0000C01400C010020C3
:1045800068010020A8010020AC9C00089A000020CF
:10459000AE00002058030020CCB2FD490A5403E0CD
:1045A000601CC4B2142CC4DB00BF0025002427E02B
:1045B0000A20FEF7ABF904F50C70A121FFF7D9FC36
:1045C000F44908550846005DFF2801D12A20085506
:1045D000F048005D18B1EF48005D0D2800D10125BD
:1045E00065B10D222046611CCCB2EA490A540A2268
:1045F0002046611CCCB2E7490A5403E0601CC4B2F7
:10460000142CD5DB00BF4FF4E670FFF750FEE249F3
:104610000860E249E048006804F0FCF805D9E04988
:10462000DD48006804F0ECF802D8DE48DA4908609A
:1046300070BD10B5FFF75BFEFFF76AFEFFF77DFE6A
:1046400010BD70B505460024012D01D0FF2D04D109
:10465000A022AA210120FFF7BFFC022D01D0FF2DCF
:1046600016D1002411E0D04A115D04F2F510A02209
:10467000FFF7B2FCCC48005D00B908E0CA48005D15
:104680000D2800D103E0601CC4B2142CEBDB00BF8A
:10469000032D01D0FF2D16D1002411E0BC4A115D7D
:1046A00004F21220A022FFF797FCB948005D00B980
:1046B00008E0B748005D0D2800D103E0601CC4B2DB
:1046C000142CEBDB00BF042D01D0FF2D16D10024EC
:1046D00011E0B04A115D04F50C70A022FFF77CFCDC
:1046E000AC48005D00B908E0AA48005D0D2800D183
:1046F00003E0601CC4B2142CEBDB00BF052D01D01D
:10470000FF2D05D1A44801684FF4E670FFF7BBFD0B
:1047100070BD10B50024A1210120FFF72AFC04463A
:10472000AA2C05D0FFF763FEFF20FFF78AFF03E006
:10473000FFF77FFFFFF7B4FE10BD70B50024002522
:1047400000BF21E00A20FEF7E1F804F2F510A121F4
:10475000FFF70FFC944908550846005D18B108465C
:10476000005D0D2800D1012565B10D222046611C98
:10477000CCB28D490A540A222046611CCCB28A4927
:104780000A5403E0601CC4B2142CDBDB00BF70BD14
:104790002DE9F04108260024002780250020FFF79E
:1047A000E8FA3220FEF7B2F817E06420FEF7AEF820
:1047B00020217E4801F09BFE6420FEF7A7F84021EF
:1047C0007A4801F07AFE08B12C4300E0AC436D0852
:1047D0002021764801F08DFE761E002EE5D1322094
:1047E000FEF794F80120FFF7C4FA40216F4801F06A
:1047F00080FE3220FEF78AF820216C4801F077FE17
:104800003220FEF783F82021684801F072FE002074
:10481000FFF7AFFA3220FEF779F80826802517E077
:104820006420FEF773F82021604801F060FE6420E8
:10483000FEF76CF840215D4801F03FFE08B12F43C0
:1048400000E0AF436D082021584801F052FE761E6B
:10485000002EE5D13220FEF759F80120FFF789FA42
:104860004021524801F045FE3220FEF74FF820214A
:104870004E4801F03CFE3220FEF748F820214B481C
:1048800001F037FE0020FFF774FA3220FEF73EF801
:104890003220FEF73BF80120FFF76BFA07EB042408
:1048A00024092046BDE8F0812DE9F04106460C467A
:1048B000154605F0FE070120FFF75BFA3220FEF7F0
:1048C00025F8FFF77EFA3220FEF720F83846FFF78A
:1048D000DAFA3220FEF71AF83046FFF7D4FA32201F
:1048E000FEF714F82046FFF7CEFA3220FEF70EF856
:1048F000FFF782FA4FF47C50FEF708F8BDE8F0812C
:104900002DE9F04105460C46002604F0FE07012083
:10491000FFF72FFAFFF755FA3846FFF7B4FA3220BF
:10492000FDF7F4FF2846FFF7AEFA3220FDF7EEFF61
:10493000FFF747FA2046FFF7A6FA3220FDF7E6FF19
:10494000FFF726FF0646FFF757FA0120FFF711FA97
:104950003046BDE8F0812DE9F0470024A1469321BF
:104960000020FFF7CDFF0446B4F5006F22D22046A9
:1049700003F0B4FE8146484603F0E2FE07460022FB
:104980000B4B03F0C1FD054603F01EFF814625E0F9
:1049900058030020860000205C0000200000B44284
:1049A0000000C041000028429A000020000C014095
:1049B0000000B03F40F6FF71081B03F08FFE8146F8
:1049C00089F0004A504603F0BBFE05460022054B25
:1049D00003F09AFD074603F0F7FE81464846BDE81E
:1049E000F08700000000B03F08B54FF4E06002F02F
:1049F000F9F91C208DF8000000208DF8010003203B
:104A00008DF8020001208DF80300684602F0EFF9EE
:104A100008BD0EB50121084601F085FF4FF080402A
:104A200002F0E4FC4CF25030ADF804004720ADF841
:104A300000000020ADF80600ADF8020069464FF016
:104A4000804002F0A7FD0121880703F0C5FB012289
:104A50001146900703F015F90121880703F0F6F8D5
:104A60000021012001F05FFF0EBD10B5FFF7BCFF74
:104A7000FFF7CFFF10BD10B5044644B10121084631
:104A800001F051FF0121880703F0E0F808E0002160
:104A9000012001F048FF00214FF0804003F0D6F8DC
:104AA00010BD10B50121880703F099FB30B3012137
:104AB000880703F0A5FB15480078401C13490870CF
:104AC00008460078052190FBF1F201FB1200A8B91D
:104AD0000F480078022818D10E480078401C0D4974
:104AE0000870087800EBD0714910A0EB410131B19A
:104AF000012000F007F9012000F011F905E0002085
:104B000000F000F9002000F00AF910BDC8000020F4
:104B100030000020C700002008B50121042001F06A
:104B2000F5FE4FF4CC50ADF8000010208DF80300D6
:104B300003208DF802006946CD4801F02BFC08BD2A
:104B400008B50121042001F0E1FE4F20ADF800007E
:104B500048208DF8030003208DF802006946C44800
:104B600001F018FC08BD08B50121082001F0CEFEB7
:104B70004FF28030ADF8000010208DF803000320C4
:104B80008DF802006946BB4801F004FC08BD08B579
:104B90000121102001F0BAFE43F2CB30ADF8000045
:104BA00010208DF8030003208DF802006946B248FA
:104BB00001F0F0FB08BD08B50121102001F0A6FEB0
:104BC0000420ADF8000028208DF8030003208DF8A4
:104BD00002006946A84801F0DDFB08BD08B50121C7
:104BE000202001F093FE0420ADF8000010208DF885
:104BF000030003208DF802006946A04801F0CAFBBB
:104C000008BD10B5FFF788FFFFF7ADFFFFF7BFFF47
:104C1000FFF7E4FFFFF794FFFFF7CDFF00F04CFB39
:104C200000F0E7FB10BD10B504462CB14FF48051E5
:104C3000914801F05CFC04E04FF480518E4801F093
:104C400058FC10BD10B504464FF480518A4801F05D
:104C50004EFCA0B2FDF73EFE4FF48051864801F0B5
:104C600048FC10BD10B5044624B18021804801F0F5
:104C70003EFC03E080217E4801F03BFC10BD10B5F6
:104C8000044624B101217C4801F031FC03E00121FC
:104C9000794801F02EFC10BD10B5044624B1022164
:104CA000754801F024FC03E00221734801F021FC67
:104CB00010BD10B5044624B104216F4801F017FC63
:104CC00003E004216C4801F014FC10BD10B504464B
:104CD00024B10821684801F00AFC03E00821664875
:104CE00001F007FC10BD10B504462CB14FF4007163
:104CF000604801F0FCFB04E04FF400715D4801F0F6
:104D0000F8FB10BD10B5044624B104215B4801F046
:104D1000EEFB03E00421594801F0EBFB10BD10B598
:104D200004462CB14FF48051524801F0E0FB04E0FE
:104D30004FF480514F4801F0DCFB10BD10B5044624
:104D40002CB14FF400514B4801F0D1FB04E04FF47B
:104D50008041484801F0CDFB10BD10B504462CB190
:104D60004FF48041434801F0C2FB04E04FF480411E
:104D7000404801F0BEFB10BD10B504462CB14FF405
:104D800000413C4801F0B3FB04E04FF400413948D6
:104D900001F0AFFB10BD10B5044624B140213648E8
:104DA00001F0A5FB03E04021334801F0A2FB10BD58
:104DB00010B504462CB14FF400512F4801F097FB79
:104DC00004E04FF400512C4801F093FB10BD10B5E6
:104DD000044634B1012C0AD0022C12D0032C20D16D
:104DE00019E04FF4C071234801F083FB1AE08021E1
:104DF000204801F07CFB4FF480711E4801F079FBE4
:104E000010E04FF480711B4801F071FB80211948BC
:104E100001F06FFB06E04FF4C071164801F067FB2C
:104E200000E000BF00BF10BD08B50121042001F063
:104E30006DFD1C20ADF8000004208DF80300032058
:104E40008DF8020069460A4801F0A4FA08BD10B5C1
:104E500000240421064801F030FB40B90821044831
:104E600001F02BFB18B94021014801F026FB10BDD1
:104E700000080140000C01400010014000140140F6
:104E8000F0B58DB004463022E24901A803F0BBF929
:104E90006069451E642195FBF1F12846EA1705EB90
:104EA0009272C1EBA2014FF4C87295FBF2F28F1817
:104EB0006069C11700EB91718910A0EB810191B974
:104EC0006422616991FBF2F302FB131131B9920084
:104ED000616991FBF2F302FB131121B921690229E7
:104EE00001DD012600E0002640F26D1005FB007197
:104EF0002069401E01AA52F820000844E1680844D5
:104F00000644072096FBF0F100FB1160A0610DB094
:104F1000F0BD10B501460869801E0861002805DC57
:104F200008690C3008614869401E4861642348697B
:104F300090FBF3F04A69D31702EB9373C0EBA30025
:104F40004FF4C87492FBF4F3034440F26F14086901
:104F500060430C2490FBF4F01844CB68034440F207
:104F60006D1402FB0430AC4BC01A00EB40008B68A0
:104F700003EBC000C0EB00104B6803EB8000C0EBFC
:104F800000100B6803EB800010BD2DE9F0410746CF
:104F90000C46A248B7FBF0F6B7FBF0F100FB117826
:104FA0004FF4616098FBF0F0A0604FF4616098FBF3
:104FB000F0F100FB11803C2190FBF1F060604FF4B8
:104FC000616098FBF0F100FB11803C2190FBF1F255
:104FD00001FB1200206040F2B27509E005F0030009
:104FE00010B94FF4B77001E040F26D10361A6D1C25
:104FF00005F0030010B94FF4B77001E040F26D10F6
:10500000B042EBDD65616069C11700EB91718910F9
:10501000A0EB810111B91D2081494860012505E0FF
:10502000681E7F4951F82000361A6D1C681E7C49A5
:1050300051F82000B042F3DD1C2048602561701C4F
:10504000E0602046FFF71CFFBDE8F08108B50021B5
:105050004FF0006001F0FDFE4FF4C06001F0C2FEB1
:1050600003208DF8000001208DF8010000208DF84C
:10507000020001208DF80300684601F0B8FE08BD6B
:1050800010B501214FF0C05001F04DFC012002F09D
:10509000F0F8012001F0A7FB00BF412001F00BFB5D
:1050A0000028FAD04FF4807001F0B9FB012001F024
:1050B000BCFB02F094F802F089F80121084602F0E6
:1050C00029F802F083F847F6FF7002F059F802F071
:1050D0007DF810BD10B5044652A003F037FD60699D
:1050E000B0F5FC6F04DB40F63401606988420CDDEA
:1050F0004FF4FC606061052020610B20E0600F2010
:10510000A060322060603B20206010BD10B502F02E
:105110005DF84948FFF7DEFF4748FFF7B1FE464814
:10512000FFF7F7FE044602F01EF802F04FF810BD3C
:105130007FB5044640492046FFF727FF3E480068F8
:105140003D4949683C4A92683B4B9B693B4D2D6801
:10515000EB5CCDE90032CDE902103748C368026943
:10516000416937A003F0F2FC7FBD10B543480078D9
:10517000012807D101F0EEFF0446FFF7D9FF002018
:105180003E49087010BD10B5FFF77AFFFFF75EFFCC
:10519000042002F0FEF84AF2A55188420FD038A050
:1051A00003F0D4FCFFF76CFF3DA003F0CFFCFFF74A
:1051B000ADFF4AF2A551042002F0DFF80EE07B209B
:1051C00001F079FA10B97A2001F075FA02F007F8C7
:1051D0000121084601F09EFF01F0F8FF01F0D4FB29
:1051E00010BD10B5012002F01FF888B1012002F0B7
:1051F0002BF801202149087001F0E8FF01F0AAFF17
:105200000649884204D1002001F0ADFF01F0DEFF25
:1052100010BD0000489D00088BFA0A008051010073
:10522000D4000020456E74657220526567756C610C
:1052300074650D0A0000000074030020D0000020F7
:105240000D0A20B5B1C7B0CAB1BCE4CEAA3A202538
:1052500064C4EA202564D4C2202564C8D52028D09F
:10526000C7C6DA257329202025302E32643A25302E
:105270002E32643A25302E3264000000CC0000202B
:105280000D0A0A20525443206E6F742079657420F1
:10529000636F6E666967757265642E2E2E2E000030
:1052A0000D0A2052544320636F6E666967757265FC
:1052B000642E2E2E2E00000008B50121080201F0F8
:1052C00025FB4FF47050ADF8000010208DF803005E
:1052D00003208DF802006946FC4801F05BF84FF4AA
:1052E0007051FA4801F005F908BD10B50446082CC4
:1052F0007CD2DFE804F0040F1F2F3F4F5F704FF4A4
:10530000C851F34801F0F5F84FF48071F14801F00D
:10531000F0F86CE04FF4C051ED4801F0EAF84FF4BA
:105320008071EB4801F0E3F84FF48071E94801F037
:10533000DEF85CE04FF48851E54801F0DAF84FF40C
:105340000061E34801F0D3F84FF48071E14801F0C7
:10535000D0F84CE04FF48051DD4801F0CAF84FF42A
:105360001061DB4801F0C3F84FF48071D94801F0B7
:10537000C0F83CE04FF41061D54801F0BAF84FF4A2
:105380008051D34801F0B3F84FF48071D14801F057
:10539000B0F82CE04FF40061CD4801F0AAF84FF4CA
:1053A0008851CB4801F0A3F84FF48071C94801F04F
:1053B000A0F81CE04FF48071C54801F09AF84FF452
:1053C000C051C34801F093F84FF48071C14801F017
:1053D00090F80CE00AE04FF4C851BD4801F087F89E
:1053E0004FF48071BB4801F084F800E000BF00BFBB
:1053F00010BD08B50121102001F088FA8020ADF819
:10540000000010208DF8030003208DF8020069468B
:10541000B04800F0BFFF8021AE4801F06AF808BD37
:1054200010B504468021AB4801F061F8A0B2FDF749
:1054300051FA8021A74801F05CF810BD2DE9F04F2A
:1054400087B04FF0000A002005900490039002906E
:1054500081460A20FDF73EFA9F480078FFF745FF96
:105460000A20FDF737FA34E0FDF7CBFB9B490860D3
:105470000846006840F60A71884213D996480078B9
:10548000002826DD94480078401E9349087008469D
:105490000078FFF72AFF0A20FFF7C2FF3220FDF74E
:1054A00019FA16E08D480068962811D28A480078CB
:1054B000062800DB0EE088480078401C864908700A
:1054C00008460078FFF711FF1420FDF703FA00E00B
:1054D00000E0C9E700BF8048007806282FD1804847
:1054E000006B7E49096888420BD87E48006B0490A7
:1054F0007C48406B03907A48D0F830A0406B059010
:1055000038E07748C06B7549096888420BD3754805
:10551000806B04907348C06B03907148D0F838A03A
:10552000C06B059026E06F48C06B04906D48006B1F
:1055300003906B48D0F83CA0006B05901AE06648D9
:1055400000784000674951F82000049062480078D4
:105550004000401C51F8200003905F480078400054
:105560005F4951F820A05C4800784000401C51F889
:10557000200005900599A1EB0A0003F0A6F8019020
:10558000DDE9030102F0A3FE804654490968A1EB5E
:105590000A0003F09AF84146009002F09EFE07468A
:1055A000019902F0CCFE0646049902F03EFE054643
:1055B0004D484E4A127850F82210284602F08DFECF
:1055C0000290029803F0BCF8CDE9000103F0FAFD67
:1055D00007460022464B02F097FF054603F0F4F819
:1055E000444908604449029808603B48007806280E
:1055F00007D13A4800681E2803D202203F490870AC
:105600000EE03548007840B934480068B0F57F6F47
:1056100003D901203949087002E000203749087099
:105620003748007820F0F00035490870334800789A
:10563000012805D10846007840F01000087009E004
:105640002E480078022805D12D48007840F020002F
:105650002B4908702A4800782A49C8710DF1080BB7
:105660005C464FF0000908E0217809F10300254A63
:105670001154641C801E00F0FF09B9F1040FF3DB24
:105680001D480068029007B0BDE8F08F2DE9F04F8B
:1056900087B006460C460025A946002006900590D6
:1056A00004908246042E73D1082C71DA0A480078DF
:1056B000FFF71BFE0220FFF7B3FE0520FDF70AF9F6
:1056C00004200A49087000BF24E0000000200140C7
:1056D000000801400010014009010020D001002015
:1056E000680100200C010020A8010020CD0100204D
:1056F00000002440C4010020C8010020CC0100208B
:105700000801002090030020FDF77BFA5049086053
:10571000681CC5B2052DF7DB00204D490860002547
:1057200008E0FDF76EFA4A490968084448490860EC
:10573000681CC5B2052DF4DB454800680521B0FBA7
:10574000F1F043490860062C2FD14248006B0968EC
:1057500088420BD84048006B05903F48406B04904E
:105760003C48D0F83090406B069031E03948C06B2F
:105770003749096888420CD33748806B0590364812
:10578000C06B04903348D0F83890C06B06901FE08F
:105790005AE03148C06B05902F48006B04902D48AB
:1057A000D0F83C90006B069012E060002A4951F856
:1057B000200005906000401C51F82000049060001B
:1057C000244951F820906000401C51F820000690B8
:1057D0000699A1EB090002F078FF0390DDE90401CE
:1057E00002F075FD1A4902900968A1EB090002F068
:1057F0006CFF0190029902F070FD8346039902F05C
:105800009EFD8046059902F010FD07461348144A94
:10581000127850F82210384602F05FFD824650465A
:1058200002F08EFFCDE9000103F0CCFC00220D4B0D
:10583000CDE9020102F068FE074602F0C5FF0A4901
:1058400008600A48C0F800A007B0BDE8F08F00006B
:10585000D0010020680100200C010020A8010020D8
:10586000CD01002000002440C4010020C801002018
:1058700008B54FF4C06001F0B5FA17208DF80000AC
:1058800002208DF8010009208DF8020001208DF81A
:105890000300684601F0ABFA08BD0EB501211120E6
:1058A00001F034F8FFF7E4FF4FF40070ADF80800A2
:1058B00048208DF80B0002A9434800F06BFD092138
:1058C000022000F07DFE4FF40070009000208DF863
:1058D00004000C208DF8050001208DF806006846B4
:1058E00000F078FC0EBD10B54FF4007000F0D8FC4D
:1058F0004FF4007000F0E5FC10BD08B54FF4E06017
:1059000001F070FA1D208DF8000000208DF80100D4
:1059100003208DF8020001208DF80300684601F095
:1059200066FA08BD0EB50121022000F0FCFF2748F1
:1059300001F05CFD4CF25030ADF804004720ADF8AA
:1059400000004FF48070ADF806000020ADF80200B2
:1059500069461E4801F01EFE01211C4802F03CFC75
:1059600001221146194802F08CF90121174802F072
:105970006DF90021022000F0D6FF0EBD10B5FFF733
:10598000BCFFFFF7CFFF10BD10B5044644B10121A5
:10599000084600F0C8FF01210C4802F057F907E063
:1059A0000021012000F0BFFF0021084802F04EF95D
:1059B00010BD10B50121054802F011FC18B10121FC
:1059C000024802F01DFC10BD001001400004004020
:1059D0000648804706480047FEE7FEE7FEE7FEE789
:1059E000FEE7FEE7FEE7FEE7FEE7FEE7D35A000824
:1059F000310100080CB50020019000906C4800684F
:105A000040F480306A49086000BF6948006800F4CB
:105A1000003000900198401C0190009818B901983E
:105A2000B0F5A06FF1D16248006800F4003010B109
:105A30000120009001E0002000900098012843D14F
:105A40005C48006840F010005A4908600846006849
:105A500020F0030008600846006840F0020008607B
:105A600053484068524948600846406848600846C4
:105A7000406840F4806048600846406820F47C102C
:105A800048600846406840F488104860084600684E
:105A900040F08070086000BF4548006800F000706A
:105AA0000028F9D04248406820F00300404948608F
:105AB0000846406840F00200486000BF3C4840682B
:105AC00000F00C000828F9D10CBD10B5FFF792FFCB
:105AD00010BD10B53648006840F001003449086038
