:020000040800F2
:10000000700A00200D6000081560000817600008E5
:10001000196000081B6000081D6000080000000057
:100020000000000000000000000000001F60000849
:10003000216000080000000023600008256000081F
:100040002760000827600008276000081F58000884
:100050002760000827600008873500089F350008E2
:100060002760000827600008276000082760000854
:100070002760000827600008276000082760000844
:100080002760000827600008276000082760000834
:10009000276000082760000827600008235F000829
:1000A0002760000827600008276000082760000814
:1000B000DF500008EF5F0008276000082760000895
:1000C00027600008276000082760000827600008F4
:1000D00027600008E3140008931D0008AF1E000805
:1000E00027600008276000082760000827600008D4
:1000F00027600008276000082760000827600008C4
:1001000027600008276000082760000827600008B3
:10011000773700082760000827600008276000087C
:100120002760000827600008276000082760000893
:10013000DFF80CD008F0D2FF004800479106000815
:10014000700A002000BF0100A0F10100FBD1704740
:1001500010B5F7480078FF2840D1F648007840B93C
:100160000120F449087005F0F8F8012005F0E8F8DE
:1001700013E0F0480078012803D10220ED4908700F
:100180000BE0EC480078022807D10020E94908700C
:1001900005F0E3F8002005F0D3F8E64800780228DF
:1001A00015D1012004F085FFE348006818B901204B
:1001B000E14908600EE0E0480068022803D103200E
:1001C000DD49086006E00020DB49086002E000200D
:1001D00004F06FFF4FF4FA7005F052F810BD2DE9EE
:1001E000FC5F0024A14603F0ECF8D449086003F05A
:1001F00020F9D3490860D349D048006808F08BFB48
:100200008146484608F0A6FDCF490860CF480078EF
:10021000C0B10121CE4806F06EFC28B9CB48007869
:10022000401CCA49087002E00020C8490870C7484D
:100230000078052806DB4FF47A7005F021F80120DC
:10024000BB4908700421C24806F055FC002870D153
:10025000C048006818B94FF4FA7005F011F8B848B2
:10026000006808F08BFD05460022BB4B08F0B2FD8C
:1002700008D2B848006828B9FF20B6490860A12014
:10028000B6490870B649AE48006808F0E1FD09D8E3
:10029000B449AB48006808F0D1FD03D8012005F04F
:1002A00040F831E0002005F03CF84FF08341A448CD
:1002B000006808F0C3FD09D8AA49A148006808F001
:1002C000C7FD03D8322004F0DBFF1DE04FF083416F
:1002D0009B48006808F0BCFD16D2002004F0EDFF3A
:1002E000002004F0DDFF002004F0F4FF002400BF34
:1002F00008E04FF4FA7004F0C3FF4FF4FA7002F014
:10030000B3FE641C052CF4D30821914806F0F3FBDE
:1003100018B9002005F03FF802E0012005F03BF895
:1003200040218B4806F0E7FB20B9002005F042F899
:1003300003E016E0012005F03DF80821844806F0AE
:10034000DAFB50B14021824806F0D5FB28B10020ED
:10035000854908608549086029E0012083490860D3
:1003600025E00120814908607A48006848B14FF4CF
:10037000FA7004F085FF002004F0D3FFA220774933
:1003800008706F48006808F0F9FC05460022724BBF
:1003900008F008FD02D800206E4908606D4800682A
:1003A00028B9002004F0F7FF012005F003F86F489A
:1003B0000068002831D06248006808F0DFFC05467C
:1003C0004FF033326A4B08F005FD0ED85B480068E9
:1003D00008F0D4FC07464FF03332664B08F0ACFB14
:1003E000054608F00FFD5549086063495348006809
:1003F00008F091FA054608F0ADFC534908604F48F3
:10040000006808F0BBFC05464FF033325B4B08F048
:10041000E1FC03D8642054490860ECE047480068D8
:1004200008F0ACFC0546564A564B08F0D3FC23D8DE
:10043000DFF854914148006808F0A0FC0746504A94
:10044000504B08F079FB05460E46484608F096FCEE
:100450002A463346CDE9000108F074FB824608F0D5
:10046000D1FC81464946494808F0FDF9054608F0A7
:1004700071FC3D490860BEE03048006808F07EFC31
:100480000546434A434B08F0A5FC23D8DFF8E89023
:100490002A48006808F072FC3D4A3E4BCDE9000155
:1004A00008F04AFB05460E46484608F067FC07463A
:1004B0002A46334608F046FB824608F0A3FC8146F4
:1004C0004946354808F0CFF9054608F043FC26496F
:1004D000086090E01948006808F050FC0546284A7A
:1004E0002E4B08F077FC5DD8DFF89C90134800682D
:1004F00008F044FC0546224A284B08F01DFB07463D
:100500008846484608F03AFC82463A46434608F098
:1005100019FBCDE9000108F075FC814649462048E9
:1005200008F0A1F9054608F015FC0F49086062E0E3
:100530000A00002030000020500000203C00002075
:100540004000002000007A442C00002081000020A0
:10055000000801400C000020000018403800002076
:10056000000010410000604128000020140000201D
:10057000333323403333C33F0000C842333320407A
:100580009A99999999991F40555585420000A04222
:10059000CDCCCCCCCCCC1E400000704299991D40F3
:1005A00000002042F948006808F0E8FB05460022F8
:1005B000F74B08F00FFC1ED8DFF8D893F34800681B
:1005C00008F0DCFB07460022F14B08F0B5FA824642
:1005D0008B46484608F0D2FB054652465B4608F07B
:1005E000B1FACDE9000108F00DFC8146484608F05B
:1005F000B1FBE9490860BDE8FC9F10B5002004F09C
:100600009FFE01F0D9FB03F03BF8002004F06FFEE1
:10061000002004F05FFE0021084606F0AEF800213D
:10062000084606F0B7F8002004F047FE002004F06A
:1006300037FEDA48007820B100221146104603F058
:10064000ABFE10BD10B504F0FAFDFF2004F035FE3E
:10065000FF2004F025FE012004F063FEFF2004F0DB
:1006600039FE04F020FD4FF47A7004F009FE0120F9
:10067000CB49086003F01EFD03F071FD01F0CFFBD4
:1006800003F031F8C548007808B103F0E8FD10BD6B
:1006900000240120C349087005F039FD482002F00C
:1006A000C9FC04F0CCFD03F0ABFE0121BE4806F00E
:1006B00022FAD0B90DE00121BB4806F01CFA00B1C6
:1006C00008E0012002F0D0FC641CB4F5FA7F00D9E8
:1006D00000E0F0E700BFB4F5F57F03D3FF20B34996
:1006E000087002E00020B149087004F05EFBAF48DA
:1006F0000078FF2801D1FFF7A5FF02F00EFF00F000
:1007000070FDAA480078FF2808D1A9A008F084FD50
:10071000B6A008F081FDC4A008F07EFD05F051F8F8
:1007200004F0B2FF02F084FD92226021012004F067
:10073000DCFB04F031FCCB490860012004F0F1FD42
:10074000F4E315E3C8480078022807D101F030F837
:100750000020C54908700120C4490870C4480078C9
:10076000FF2809D101F0CAFC0020C1490870C14925
:1007700008700320BD490870BF480078012830D1B7
:10078000BE480178BE48007805F09EFAB748007868
:10079000012807D1BB480268B8480178BAA008F020
:1007A0003BFDE1E2B14800780328FAD1BFA1C64879
:1007B00000F080FD00BF4021C34806F0D7FD0028AF
:1007C000F9D0AE4801783031BF4806F061FDAD4840
:1007D0000168BD4800F00FFEB3A1BB4800F06AFD00
:1007E000C2E2A54800780228DBD105F045F9A4480B
:1007F0000078002820D19D48007801280AD1B3480C
:10080000006808F0BBFA05462A460B46B0A008F07F
:1008100003FDA9E2954800780328C2D1BAA1AA48ED
:1008200000F048FDA9480168A74800F060FD9EA1BE
:10083000A54800F03FFD97E291480078012820D1BB
:100840008A48007801280AD1A048006808F096FA82
:1008500005462A460B46B6A008F0DEFC84E2834833
:10086000007803289DD1C0A1974800F023FD974848
:100870000168954800F03BFD8BA1934800F01AFDFC
:1008800072E27F480078022820D178480078012859
:100890000AD18E48006808F071FA05462A460B46D0
:1008A000BCA008F0B9FC5FE270480078032897D13B
:1008B000C6A1854800F0FEFC84480168824800F02B
:1008C00016FD79A1804800F0F5FC4DE26C480078F7
:1008D000032820D16548007801280AD17B480068A8
:1008E00008F04CFA05462A460B46C3A008F094FCD3
:1008F0003AE25E48007803288BD1CDA1724800F01F
:10090000D9FC72480168704800F0F1FC66A16E489D
:1009100000F0D0FC28E25A480078042820D153483F
:10092000007801280AD16948006808F027FA0546CE
:100930002A460B46C9A008F06FFC15E24B48007828
:1009400003288BD1D3A1604800F0B4FC5F48016854
:100950005D4800F0CCFC54A15B4800F0ABFC03E226
:100960004748007805280ED14048007801280BD16F
:100970005648006808F002FA05462A460B46D0A001
:1009800008F04AFCF0E1CAE1B6E100003C000020BA
:1009900000001A401CC731422800002054000020EB
:1009A00034000020B8000020000801400A000020A8
:1009B0002A2A2A2A2A2A2A2A2A2A2A2A4752414E17
:1009C000445741592D4F5444522046484F333030FC
:1009D000304173657269616C205226442A2A2A2AA2
:1009E0002A2A2A2A2A2A2A0D0A0000002A2A2A2A22
:1009F0002A2A2A2A2A2A2A2A2A2A4D43553A53548D
:100A00004D333246313033524320202A2A2A2A2AB3
:100A10002A2A2A2A2A2A2A2A2A2A2A2A2A2A2A2A36
:100A20002A2A0D0A000000002A2A2A2A2A2A2A2A0B
:100A30002A2A2A2A436F707972696768742062795A
:100A4000205275616E207A68696775616E672A2A1F
:100A50002A2A2A2A2A2A2A2A2A2A2A2A2A2A0D0A33
:100A600000000000640000207700002068000020E3
:100A70006B0000206A000020BB010020C0010020A4
:100A8000B9010020BC0100204F504D5345542D2D7D
:100A90003EB5B5CEBBD0A3D7BC2D2D3E2532642D9F
:100AA0002D4144433A2533640D0A00004F504D5305
:100AB00045542D2D3EB5B5CEBBD0A3D7BC2D2D3E74
:100AC0002D2D4144433A000000480040B001002071
:100AD0004F504D5345542D2D3EB2A8B3A4D0A3D7AB
:100AE000BC2D2D3E2D4C414D44413D3835306E6D71
:100AF0002D2D2D3EB9A6C2CAD6B53A25336620643F
:100B0000426D0D0A000000004F504D5345542D2DED
:100B10003E6C616D64612D2D3E2D4C414D44413D37
:100B20003835306E6D2D2D2D3E56616C75653A0051
:100B30004F504D5345542D2D3EB2A8B3A4D0A3D74A
:100B4000BC2D2D3E2D4C414D44413D313330306E56
:100B50006D2D2D2D3EB9A6C2CAD6B53A25336620D5
:100B600064426D0D0A0000004F504D5345542D2D29
:100B70003E6C616D64612D2D3E2D4C414D44413DD7
:100B8000313330306E6D2D2D2D3E56616C75653ACA
:100B9000000000004F504D5345542D2D3EB2A8B3D8
:100BA000A4D0A3D7BC2D2D3E2D4C414D44413D3109
:100BB0003331306E6D2D2D2D3EB9A6C2CAD6B53A51
:100BC0002533662064426D0D0A0000004F504D53DE
:100BD00045542D2D3E6C616D64612D2D3E2D4C4193
:100BE0004D44413D313331306E6D2D2D2D3E5661DA
:100BF0006C75653A000000004F504D5345542D2D43
:100C00003EB2A8B3A4D0A3D7BC2D2D3E2D4C414D50
:100C100044413D313439306E6D2D2D2D3EB9A6C283
:100C2000CAD6B53A2533662064426D0D0A0000002D
:100C30004F504D5345542D2D3E6C616D64612D2DEB
:100C40003E2D4C414D44413D313439306E6D2D2D9A
:100C50002D3E56616C75653A000000004F504D53B3
:100C600045542D2D3EB2A8B3A4D0A3D7BC2D2D3E04
:100C70002D4C414D44413D313535306E6D2D2D2D7E
:100C80003EB9A6C2CAD6B53A2533662064426D0D78
:100C90000A0000004F504D5345542D2D3E6C616DA0
:100CA00064612D2D3E2D4C414D44413D3135353053
:100CB0006E6D2D2D2D3E56616C75653A000000005D
:100CC0004F504D5345542D2D3EB2A8B3A4D0A3D7B9
:100CD000BC2D2D3E2D4C414D44413D313632356EBB
:100CE0006D2D2D2D3EB9A6C2CAD6B53A2533662044
:100CF00064426D0D0A000000EC480078032833D1EF
:100D0000EBA1F64800F0D6FAF5480168F34800F088
:100D1000EEFAAFF26C21F14800F0CCFA24E0F14891
:100D20000078062820D1E148007801280AD1EC4853
:100D3000006808F023F805462A460B46EAA008F0AA
:100D40006BFA11E0D948007803280DD1F4A1E348EB
:100D500000F0B0FAE2480168E04800F0C8FAAFF2EB
:100D6000B821DE4800F0A6FA4FF4FA7002F07CF9E0
:100D7000F648007800287FF4E5ACF54800780028B4
:100D800074D00220F34908700020F3490860FFF78F
:100D9000DFF94FF4FA6004F073FAFF2004F0B4FABC
:100DA000642002F061F9002004F07AFA4FF4FA703E
:100DB00002F05AF9FF2004F073FA4FF49674002001
:100DC000E6490870E649087031E0E44800780228F6
:100DD00001D102F003FF4FF4FA7002F045F904F07C
:100DE000010030B1FF2004F0D6FA002004F0E2FA4E
:100DF00005E0002004F0CFFAFF2004F0DBFAB4F5A0
:100E0000937F0FD80421D74805F075FE50B10A2012
:100E100002F02AF90421D34805F06DFE10B100203C
:100E2000CB490870641ECA48007800B901E0002C64
:100E3000CBD100BF0020C64908700120CA49086014
:100E4000002004F061FA642002F00EF9002004F0A2
:100E500027FA642002F008F9FF2004F021FA642048
:100E600002F002F94FF4487004F00AFABF48007823
:100E7000012804D1FFF7C1FB0020BC490870BC4821
:100E8000007830B10020BA4908704FF4967004F031
:100E9000F7F9B2480078022806D102F09FFE002040
:100EA000AE490870AE490870B2480078E8B3AE4861
:100EB0000068401CAC490860084600684EF6602196
:100EC000884203D344F62060A7490860FFF787F9FA
:100ED000A54800680321B0FBF1F201FB120018BB2A
:100EE00004F05AF8A4490860A449A348006807F030
:100EF000AFFF1CD89D48007898B14FF4FA7004F009
:100F0000BFF94FF4FA7002F0AFF84FF4FA7004F042
:100F1000B7F94FF4FA7002F0A7F84FF4FA7004F042
:100F2000AFF90120914908700AE01EE08DE0944974
:100F30009148006807F08CFF02D8C82004F0A0F99F
:100F4000894800680C280DD188480078FF2809D10D
:100F5000002004F0CCF94FF47A7002F085F80120FB
:100F600004F0C5F90020834908708648007888B1EC
:100F700084480078012802D0022806D102E002F05D
:100F80001AFB03E0FFF7E4F800E000BF00BF002019
:100F90007C4908707C48007850B174480078FF287C
:100FA00001D101F0CDFF0020774908707749087022
:100FB0007748007820B101F0F0FE002074490870F5
:100FC0007448007840B169480078FF2801D101F0E9
:100FD000E2FF00206F4908706F480078FF2806D1B3
:100FE00001F08CF800206C4908706C4908706C485E
:100FF0000078022804D100F0DBFB0020684908706B
:101000005A480078FF2806D16648007800F00100B1
:1010100008B104F031FD64480078B0B14FF40071BC
:10102000504805F068FD80B16048007868B14FF421
:1010300000514C4805F07BFD002003F048F90020EA
:1010400003F0BFF8002059490870FFF77ABB10B5CC
:1010500057480078401C56490870564800680A30C6
:10106000544908604FF4617008600846006840F613
:10107000E441884202D300204E4908604C48007881
:10108000042802DB00204A4908704B48007804F02D
:10109000ADF9012004F0B9F94648006803F091F871
:1010A0004FF47A7001F0E0FF10BD000068000020EE
:1010B0004F504D5345542D2D3E6C616D64612D2D67
:1010C0003E2D4C414D44413D313632356E6D2D2D16
:1010D0002D3E56616C75653A0000000000480040E6
:1010E000B0010020B90100204F504D5345542D2D23
:1010F0003EB2A8B3A4D0A3D7BC2D2D3E2D4C414D5C
:1011000044413D313635306E6D2D2D2D3EB9A6C290
:10111000CAD6B53A2533662064426D0D0A00000038
:101120004F504D5345542D2D3E6C616D64612D2DF6
:101130003E2D4C414D44413D313635306E6D2D2DA7
:101140002D3E56616C75653A00000000BB01002021
:1011500049000020300000205000002083000020C3
:101160008200002000100140340000200A0000200E
:1011700048000020B80000206400002000008242E7
:1011800000005C42800000206E0000206C00002007
:1011900038000020750000206B0000206A0000204D
:1011A00077000020F20000205400002055000020AD
:1011B0004A0000204C0000204B00002008B54FF4EE
:1011C000C06006F02DF925208DF8000001208DF873
:1011D00001008DF802008DF80300684606F025F93D
:1011E00008BD00B585B0012144F2040005F0ACFE55
:1011F0004FF40070ADF8100018208DF81300032094
:101200008DF8120004A9F84805F0E2FB4FF4806065
:10121000ADF8100004208DF8130004A9F24805F081
:10122000D7FB4FF4E13000900020ADF80400ADF89A
:101230000600ADF80800ADF80C000C20ADF80A006F
:101240006946EA4805F02BFF0121E84805F0B3FFA5
:10125000FFF7B4FF012240F22551E44805F0B7FF43
:101260000121E24805F0A7FF05B000BD70B50446B6
:101270000D4600BF4021DD4806F078F80028F9D07F
:10128000E1B2DA4806F004F800BF4021D74806F082
:101290006DF80028F9D0204670BD10B5044600BF97
:1012A0002021D24806F062F80028F9D0CF4805F096
:1012B000F3FF10BD70B506460C46002513E000BFD5
:1012C0004021304606F052F80028F9D0615D3046E2
:1012D00005F0DEFF00BF4021304606F047F8012848
:1012E000F9D1681CC5B2605D0028E8D170BD2DE958
:1012F000F04781460E46002400250021304607F0C5
:101300009DFD0AD200BF4021484606F02FF8002874
:10131000F9D02D21484605F0BBFFB549304607F00E
:10132000FAFA824607F02AFD21F00041074607F04D
:1013300069FD0646304607F00DFD04460A20B4FB61
:10134000F0F4B4F57A7F10D34FF47A70B4FBF0F078
:10135000C5B200BF4021484606F008F80028F9D081
:1013600005F13001484605F093FF6420B4FBF0F02E
:101370000A21B0FBF1F201FB120500BF40214846F3
:1013800005F0F4FF0028F9D005F13001484605F0DA
:101390007FFF00BF4021484605F0E8FF0028F9D054
:1013A0002E21484605F074FF0A20B4FBF0F00A2114
:1013B000B0FBF1F201FB120500BF4021484605F0E9
:1013C000D5FF0028F9D005F13001484605F060FF4F
:1013D0000A20B4FBF0F100FB114500BF4021484654
:1013E00005F0C4FF0028F9D005F13001484605F0AA
:1013F0004FFFBDE8F08770B506460C460025B4F5F2
:101400007A7F10D34FF47A70B4FBF0F0C5B200BF0E
:101410004021304605F0AAFF0028F9D005F130013F
:10142000304605F035FF642C13D36420B4FBF0F094
:101430000A21B0FBF1F201FB120500BF402130464A
:1014400005F094FF0028F9D005F13001304605F091
:101450001FFF0A2C13D30A20B4FBF0F00A21B0FBC3
:10146000F1F201FB120500BF4021304605F07EFF7E
:101470000028F9D005F13001304605F009FF0A20B7
:10148000B4FBF0F100FB114500BF4021304605F0F0
:101490006DFF0028F9D005F13001304605F0F8FE67
:1014A00070BD2DE9F04107460D461646002400BFE9
:1014B00013E000BF4021384605F058FF0028F9D05E
:1014C000295D384605F0E4FE00BF4021384605F0AE
:1014D0004DFF0128F9D1601CC4B2B442E9DBBDE87C
:1014E000F08110B540F22551404805F03FFF01283A
:1014F00054D140F225513D4805F078FF3B4805F0B6
:10150000CBFEC4B23B4840783A4988700846007820
:101510004870084604708078432827D108464078F0
:10152000542823D1084600782B281FD101203249A6
:101530000870002031490870432130480278007853
:10154000401C2E4B18702E488154542118460278A6
:101550000078401C18702A4881542B2118460278C4
:101560000078401C18702648815410BD21484078EE
:101570000D2814D11F4800780A2810D11E48007881
:1015800001280CD10A221D4801780078401C1B4B11
:1015900018701B48425402201749087048E016484A
:1015A000007850B113480278144801780078401C44
:1015B000124B1870124842543AE012480078022840
:1015C00036D00D2C03D101200E49087021E00D48C2
:1015D000007801281DD10A2C18D102200949087071
:1015E00001200949087014E000080140003801405A
:1015F00000007A446F00002077000020780000206F
:101600006C02002083000020840000200020FE499E
:101610000870FE4801780078401CFC4A1070FC48B5
:101620004454104600781E2802DB00201146087042
:1016300000BF9AE710B5F7A007F0EEFD10BD10B59A
:10164000F6A007F0E9FD10BD10B500BF4021F64837
:1016500005F08CFE0028F9D04321F34805F018FE70
:1016600000BF4021F04805F081FE0028F9D0542148
:10167000ED4805F00DFE00BF4021EB4805F076FE79
:101680000028F9D02B21E84805F002FE00BF4021D8
:10169000E54805F06BFE0028F9D04F21E24805F03F
:1016A000F7FD00BF4021E04805F060FE0028F9D0BA
:1016B0004B21DD4805F0ECFD00BF4021DA4805F084
:1016C00055FE0028F9D00D21D74805F0E1FD00BFF7
:1016D0004021D54805F04AFE0028F9D00A21D24819
:1016E00005F0D6FD10BD10B500BF4021CE4805F075
:1016F0003DFE0028F9D04321CB4805F0C9FD00BFCD
:101700004021C94805F032FE0028F9D05421C648CE
:1017100005F0BEFD00BF4021C34805F027FE0028AC
:10172000F9D02B21C04805F0B3FD00BF4021BE48D1
:1017300005F01CFE0028F9D04521BB4805F0A8FDA6
:1017400000BF4021B84805F011FE0028F9D0522111
:10175000B54805F09DFD00BF4021B34805F006FEE9
:101760000028F9D05221B04805F092FD00BF402179
:10177000AD4805F0FBFD0028F9D04F21AA4805F03F
:1017800087FD00BF4021A84805F0F0FD0028F9D0F2
:101790000D21A54805F07CFD00BF4021A24805F0C1
:1017A000E5FD0028F9D00A219F4805F071FD10BD24
:1017B0002DE9F05F4FF0000A0024A1469B48007815
:1017C00002287DD19A48C0784F28FAD198480079EC
:1017D0005028F6D1964840794D28F2D19448807926
:1017E000532879D19248C079452875D19048007A1C
:1017F000542871D18E48407A432815D1012003F036
:10180000E8FD01208B49087000208B4908700420F6
:101810008A490870FFF70EFF89480078002859D0E0
:1018200088A007F0F9FC55E08148407A572814D188
:10183000012003F0CEFD02207E49087000207E4981
:1018400008707E490870FFF7F5FE7D480078002893
:1018500040D086A007F0E0FC3CE07548407A4D2877
:101860001CD1002003F0B5FD002072490870FFF77D
:10187000E1FE7348007810B186A007F0CDFC01208E
:1018800003F0EFFC03F0D7F803F0C0F84FF4FA7060
:1018900001F0EAFB002003F0E4FC1BE06448407A1E
:1018A000522815D10020634908706349087004204C
:1018B00062490870FFF7BEFE03F0F1F8604801E0EE
:1018C0009EE009E0007828B179A007F0A5FC01E0CE
:1018D000FFF7B5FEBDE8F09F554880794F2816D137
:1018E0005348C079552812D15148007A54280ED156
:1018F000002003F06EFD00204E490870FFF79AFEAD
:101900004F48007810B16FA007F086FCE2E7494825
:101910000078002874D04FF0000A4648007801286B
:101920006FD143488079532843D14148C079342846
:101930003FD13F48007A30283BDB3D48007A3628CB
:1019400037DC3B48007A3038644908703848407AC0
:10195000302803D03648407A31282AD13448807A5A
:101960002B2827D13248C07AA0F130043048007BC0
:1019700004EB840100EB4100A0F130042C48407BD3
:1019800004EB840100EB4100A0F130042848807B87
:1019900004EB840100EB4100A0F13004204607F085
:1019A000BBF981464E49484606F0E7FF81464FF0B5
:1019B000010AA1E01E48807A2D2823D11C48C07A54
:1019C000A0F130041A48007B04EB840100EB4100D5
:1019D000A0F130041648407B04EB840100EB410089
:1019E000A0F130041248807B04EB840100EB41003D
:1019F000A0F13004204607F08FF98146384971E0A4
:101A00005CE1A9E078E00000830000208200002073
:101A10001C03002043542B4F4B0D0A0043542B450D
:101A200052524F0D0A00000000480040770000208D
:101A30006C020020BB010020BA010020B901002087
:101A400069000020BDF8C8EBB9A6C2CABCC6B5B5CE
:101A5000CEBBD0A3D7BCC4A3CABDA3BAB2A8B3A4FB
:101A6000A3BA313535306E6D0D0A0000BDF8C8EBF4
:101A7000B9A6C2CABCC6B2A8B3A4D0A3D7BCC4A3DB
:101A8000CABDA3BAB2A8B3A4A3BA3835306E6D0DDF
:101A90000A000000B9CCBBAFD0A3D7BCD6B5A3AC6D
:101AA000CDCBB3F6D0A3D7BCC4A3CABD0D0A0000EA
:101AB000B9A6C2CAD0A3D7BCD6B5B8B4CEBB212173
:101AC000210D0A00CDCBB3F6B9A6C2CABCC6D0A3BD
:101AD000D7BCC4A3CABD0D0A00000000C00100208D
:101AE0000000C842484606F048FF0546002106F0BF
:101AF0000FFF81464FF0010ABAF1010F29D1FE49CB
:101B0000484606F03AFF834607F038F907463A465A
:101B10000B460020F94908F09BFA054607F072F9D8
:101B2000F7494A7AF749097802EB41013039F64A18
:101B300042F82100F5480168F148427AF1480078FE
:101B400002EB40003038F24A42F82010FFF772FDF5
:101B5000C5E0FFF774FDC2E0EE4800780228F7D137
:101B6000E74880795328F3D1E548C07930287DDBF8
:101B7000E348C079362879DCE148007A2B2827D160
:101B8000DF48407AA0F13004DD48807A04EB84011C
:101B900000EB4100A0F13004D948C07A04EB840185
:101BA00000EB4100A0F13004D548007B04EB840138
:101BB00000EB4100A0F13004204607F0ADF881466B
:101BC000D549484606F0D9FE81464FF0010A2EE07D
:101BD000CB48007A2D282AD1C948407AA0F1300498
:101BE000C748807A04EB840100EB4100A0F1300487
:101BF000C348C07A04EB840100EB4100A0F130043B
:101C0000BF48007B04EB840100EB4100A0F13004ED
:101C1000204607F081F88146BF49484606F0ADFEF0
:101C20000546002106F074FE81464FF0010AB448D3
:101C3000C0793038B949087003F01EFFB848016810
:101C4000484606F062FE8146AB49484606F095FEDE
:101C5000834607F093F805462A460B460020A7491D
:101C600008F0F6F9074607F0CDF800E00FE08146EE
:101C7000AC48AA4A127850F82210484606F04BFEAB
:101C80008146A848A549097840F8219027E09C485A
:101C9000C0794E2803DA9A48C0794C281DD198485B
:101CA000C0794E280BDB9D480078401C9B4908708A
:101CB00008460078062812DD002008700FE09748DB
:101CC0000078002805DD95480078401E934908708B
:101CD00005E006209149087001E0FFF7B0FC002004
:101CE0009149087000BFF5E500B585B001218F4826
:101CF00005F037F90420ADF8100018208DF8130016
:101D000003208DF8120004A9894804F061FE082020
:101D1000ADF8100004208DF8130004A9844804F0E5
:101D200057FE4FF4E13000900020ADF80400ADF80C
:101D30000600ADF80800ADF80C000C20ADF80A0064
:101D400069467C4805F0ABF901217A4805F033FA81
:101D5000012240F22551774805F039FA01217548F2
:101D600005F029FA05B000BD08B54FF4C06005F0D4
:101D700057FB26208DF8000001208DF8010002207D
:101D80008DF8020001208DF80300684605F04DFB38
:101D900008BD10B5002440F22551664805F0E6FA6A
:101DA000012808D140F22551624805F01FFB614827
:101DB00005F072FAC4B210BD08B50121082005F083
:101DC000C3F800214FF4802005F0CBF84FF44060B9
:101DD000ADF8000010208DF8030003208DF80200FC
:101DE0006946554804F0F4FD4FF44061524804F050
:101DF0009EFE08BD08B54FF4C06005F011FB27201A
:101E00008DF8000001208DF8010003208DF80200FC
:101E100001208DF80300684605F007FB08BD00B5FA
:101E200085B00121082005F08FF80121880405F014
:101E300098F84FF48060ADF8100018208DF813006A
:101E400003208DF8120004A93B4804F0C1FD4FF4B3
:101E50000060ADF8100004208DF8130004A9364886
:101E600004F0B6FD4FF4964000900020ADF8040059
:101E7000ADF80600ADF80800ADF80C000C20ADF888
:101E80000A0069462D4805F00AF901212B4805F0A2
:101E900092F9FFF7AFFF012240F22551274805F0E4
:101EA00096F90121254805F086F905B000BD10B569
:101EB000002440F22551214805F058FA01285FD14D
:101EC00040F225511D4805F091FA1C4805F0E4F94F
:101ED000C4B21B480078FF2852D01A480078B8BB1B
:101EE000194801780078401C174A1070174844546C
:101EF0001046007832282CE00000204100002440E9
:101F00006C020020C0010020F8000020BC0100206D
:101F100054010020BB0100200000C842B90100208C
:101F2000B00100209401002077000020040002008E
:101F30000008014000440040000C014000480040FF
:101F40006B0000206E0000206A000020F4010020D9
:101F500016E002DB0020114608700D2C03D1012091
:101F6000FE4908700CE00A2C07D1FC4800780128D3
:101F700003D1FF20F949087002E00020F7490870FA
:101F800010BD70B505460024002600BF5020F4495E
:101F900008704D204870A4208870022D04D0032DB5
:101FA00006D0042D0CD107E00020EE49087008E0AF
:101FB0000120EC49087004E01120EA49087000E0B3
:101FC00000BF00BF022D03D0032D01D0042D37D157
:101FD0000020E5490870E249C870087148714871ED
:101FE000E0480078C871E048007808720D20C87297
:101FF0000A200873002404E0D948005D0644601CF0
:10200000C4B2092CF8DB300AD54948728E7200241C
:1020100014E000BF4021D54805F0A8F90028F9D008
:10202000CF48015DD14805F033F900BF4021CF48CA
:1020300005F09CF90128F9D1601CC4B20D2CE8DB35
:1020400070BD70B506460024002500BFC648007864
:1020500000F0F000C449087008460078C4490978C7
:102060000843C14908705020BD4908704D20487090
:1020700008468670BB480078C871BB480078087273
:102080000D20C8720A20087300BF04E0B448005D48
:102090000544601CC4B2092CF8DB280AB049487218
:1020A0008D72002414E000BF4021B04805F05EF9B5
:1020B0000028F9D0AA48015DAC4805F0E9F800BF56
:1020C0004021AA4805F052F90128F9D1601CC4B298
:1020D0000D2CE8DB70BD70B50446002504F0010549
:1020E0001DB9002003F075F907E0012003F071F934
:1020F000322000F0B9FF03F0BFFC70BD2DE9F04FB6
:102100008BB00025A946AA4600200A9000248346E9
:102110008046099007900027069000BF62E095482E
:10212000405D42281CD19349681C085C4F2817D198
:10213000A81C085C4F2813D1E81C085C54280FD158
:10214000281D085C53280BD1681D085C452807D161
:10215000A81D085C542803D1FF208749087046E079
:102160008448405D212809D18249681C085C022806
:1021700004D14FF00109E81CC4B238E07D48405D4D
:10218000642809D17B49681C085C102804D14FF0F1
:102190000209E81CC4B22AE07648405D43280ED10B
:1021A0007449681C085C542809D1A81C085C2B28B9
:1021B00005D14FF003090320704908702C466D4883
:1021C000405D4C280CD16B49681C085C532807D132
:1021D000A81C085C3A2803D14FF00409A81CC4B21B
:1021E000681CC5B266480078801EA84297DC00BF14
:1021F000B9F1010F7ED162480178E01C81427ADB9F
:102200005C4810F804A0BAF1BF0F14D009DCBAF191
:10221000A00F71D0BAF1A10F6FD0BAF1A20F0AD1FD
:102220004FE1BAF1C80F69D0BAF1EE0F67D0BAF139
:10223000FE0FF4D100E0C1E10020524908701620E1
:102240000A9064214F4802780078401C4D4B18706A
:102250004D4881541021184602780078401C1870AF
:102260004948815419460A780978491C0A98197016
:1022700045498854184601780078401C1A46107069
:10228000414800F801A041480278184601780078DA
:10229000401C18703C4842543C480088C0F3072159
:1022A000184602780078401C187037488154384826
:1022B0000178184602780078401C18703248815422
:1022C00033480088C0F30721184602780078401C84
:1022D00018702D4881542F480278184601780078EC
:1022E000401C1870284842542A480088C0F307222E
:1022F000184605E063E145E2CEE0D9E04CE1E9E0D3
:1023000001780078401C18701F4842542248017818
:10231000184602780078401C18701B4881541E48EB
:102320000088C0F30721184602780078401C187016
:102330001548815419480178184602780078401CE5
:1023400018701148815415480088C0F307211846B9
:1023500002780078401C18700B4821E06B000020C8
:102360007C030020F4000020F3000020004800401F
:10237000B9010020F401002049000020770000206E
:102380006A0000206C000020260200200C000020C3
:102390001000002014000020180000202C00002055
:1023A0008154F9480178184602780078401C18706A
:1023B000F6488154F4480088C0F307211846027893
:1023C0000078401C1870F1488154F1480178184693
:1023D00002780078401C1870EC488154EC48008862
:1023E000C0F30721184602780078401C1870E748AF
:1023F0008154E8480178184602780078401C18702B
:10240000E2488154E3480088C0F307211846027867
:102410000078401C1870DD488154DF480178184668
:1024200002780078401C1870D8488154DA48008837
:10243000C0F30721184602780078401C1870D34872
:102440008154032506E0D148405D584400F0FF0B5D
:10245000681CC5B2D14800788542F4DBCF480178CA
:102460000078401CCD4A1070C84800F801B00D211A
:10247000104602780078401CC84B1870C34881543D
:102480000A21184602780078401C1870BF48815411
:102490000120C349087091E04FF4FA6000F0E4FDB8
:1024A0000120C04908704FF47A7002F0E9FE85E01F
:1024B0004FF4FA6000F0D8FD4FF47A7002F0E0FEBD
:1024C0007CE04FF4FA6000F0CFFD4FF47A7002F038
:1024D000D7FE73E00020B14908700E200A906421F5
:1024E000AE4802780078401CAC4B1870A748815465
:1024F0001021184602780078401C1870A3488154B7
:1025000019460A780978491C0A9819709F49885415
:10251000184601780078401C1A4610709B4800F855
:1025200001A000250BE0A048425D9C48017800789E
:10253000401C9A4B187095484254681CC5B20A2D2D
:10254000F1DB032506E09148405D584400F0FF0BA5
:10255000681CC5B2914800788542F4DB8F48017849
:102560000078401C8D4A1070884800F801B00D2199
:10257000104602780078401C884B187083488154BC
:102580000A21184602780078401C18707F48815450
:1025900001208349087011E04FF4FA7000F064FDE7
:1025A0004FF47A7002F06CFE002002F079FE4FF4D6
:1025B000FA7000F059FDFF2002F072FEE8E3B9F175
:1025C000020F74D1794890F802A0BAF1A80F7AD01E
:1025D0000CDCBAF1A10F13D0BAF1A20F25D0BAF1D9
:1025E000A30F66D0BAF1A40F6FD16DE0BAF1B00FAE
:1025F0006ED0BAF1B20F7DD0BAF1B40FF4D187E04A
:102600006B48007800F0010048B96948007840F054
:1026100001006749087008460078FFF75CFD01205B
:1026200002F0D7FE4FF00108A5E06148007800F005
:10263000010048B95E48007840F001005C4908702C
:1026400008460078FFF747FD5848C678007908909B
:10265000062E0DDC574806705748007820F00F0012
:102660005549087006F00F00097808435249087070
:102670000898012818DC5149089808700846007825
:1026800001280BD14C48007820F0F0004A4908702E
:102690000846007840F01000087005E046480078D1
:1026A00020F0F000444908704FF0010863E096E024
:1026B00009E03E48C6783E4806700078FFF70BFDFB
:1026C0004FF0010857E056E055E053E000E011E01C
:1026D0003648C678312E0CDBA6F13000C6B20A2E81
:1026E00007DC09963220099E70430990099802F090
:1026F000C7FD40E02D48C678312E03D1FF2002F0FF
:10270000E9FD04E0302E02D1002002F0E3FD32E0CA
:102710002648C678322E03D10220294908700AE0E3
:10272000312E03D101202649087004E0302E02D159
:1027300000202349087022480078012805D102F0C2
:102740000CFE012002F0FCFD08E01D48007828B9CD
:10275000002002F002FE002002F0F2FD184800788E
:10276000022803D1012002F0A4FC02E0002002F0C4
:10277000A0FC00E000BF00BFB8F1010F22D1AA20E9
:10278000FFF75FFC04E300001C000020260200208D
:102790002000002024000020280000206C000020E1
:1027A0006E0000200A00002000000020F40100203C
:1027B000F2000020B9010020F3000020F100002009
:1027C00030000020B8F1020F05D0B8F1030F02D09D
:1027D000B8F1040FD6D14046FFF7D3FBD8E2B9F1E8
:1027E000030F7BD1FD480078032878D1FC49E01C19
:1027F000085C4F28F9D1201D085C5028F5D1601DD8
:10280000085C4D28F1D1A01D085C532868D1E01D5B
:10281000085C452864D104F10800085C54285FD1A5
:1028200004F10900085C432817D1012002F0D1FD12
:102830000120EC4908700020EB4908700420EB49A6
:102840000870FEF701FFEA480078002866D0AFF66E
:102850000C61E848FEF72EFD60E0E14904F1090053
:10286000085C572815D1012002F0B3FD0220DD4994
:1028700008700020DC490870DC490870FEF7E4FEAF
:10288000DB48007848B3AFF61C61DA48FEF712FD6A
:1028900044E0D34904F10900085C4D2821D100200F
:1028A00002F097FD0020CF490870FEF7CDFED0481A
:1028B000007820B1AFF62461CE48FEF7FBFC012082
:1028C00002F0CFFC02F0B7F802F0A0F84FF4FA7073
:1028D00000F0CAFB002002F0C4FC1FE012E2C1E0DD
:1028E0001FE0BF4904F10900085C522814D1002000
:1028F000BC490870BC4908700420BC490870FEF748
:10290000A3FE02F0CCF8BA48007838B1AFF66061A7
:10291000B848FEF7CFFC01E0FEF7E5FE0BB0BDE8DE
:10292000F08FAF49A01D085C4F2819D1E01D085C4D
:10293000552815D104F10800085C542810D1002056
:1029400002F047FD0020A7490870FEF77DFEA84869
:10295000007820B1AFF69461A648FEF7ABFCDDE746
:10296000A048007800287DD0002007909D4800787E
:10297000012878D19A49A01D085C532850D1E01D48
:10298000085C34284CD104F10800085C302847DB8F
:1029900004F10800085C36287FDC04F10800085CBC
:1029A0003038954908708E4904F10900085C3028D8
:1029B00004D004F10900085C31286ED1884904F183
:1029C0000A00085C2B282CD18C48C07AA0F1300773
:1029D00004F10C00085C07EB870100EB4100A0F15B
:1029E00030077F4904F10D00085C07EB870100EB1D
:1029F0004100A0F130077A4904F10E00085C07EBB2
:102A0000870100EB4100A0F13007384606F084F959
:102A100006907B49069805F0B0FF069001200790CC
:102A20003BE06F4904F10A00085C2D2835D1734959
:102A300004F10B00085CA0F13007694904F10C00B7
:102A4000085C07EB870100EB4100A0F13007644907
:102A500004F10D00085C07EB870100EB4100A0F1D9
:102A6000300701E0B9E04EE05D4904F10E00085C7A
:102A700007EB870100EB4100A0F13007384606F074
:102A80004BF906905E49069805F077FF0021059006
:102A900005F03EFF069001200790079801282FD1EE
:102AA0005849069805F069FF019006F067F902465B
:102AB0000B46CDE902010020534907F0C9FACDE9E0
:102AC000040106F09FF9464A04F10901525C4A49A3
:102AD000097802EB410130394C4A42F821004C4858
:102AE0003F4A016804F10900125C4348007802EB98
:102AF00040003038474A42F82010FEF7A5FDFDE0BF
:102B0000FEF7F1FDFAE037480078022865D1344934
:102B1000A01D085C532860D1E01D085C30287BDBD9
:102B2000E01D085C362877DC04F10800085C2B28DF
:102B30002FD1324904F10900085CA0F1300728497F
:102B400004F10A00085C07EB870100EB4100A0F1EB
:102B50003007234904F10B00085C07EB870100EB09
:102B60004100A0F130071E4904F10C00085C07EB9E
:102B7000870100EB4100A0F13007384606F0CCF8A1
:102B800006901F49069805F0F8FE06900120079070
:102B900058E01A4904F10800085C2D2852D104F1CC
:102BA0000900085CA0F130070D4904F10A00085C37
:102BB00007EB870100EB4100A0F13007084904F161
:102BC0000B00085C07EB870100EB4100A0F1300728
:102BD000034904F10C00085C1FE07EE07700002050
:102BE000F4010020BB010020BA010020B90100203F
:102BF0006900002000480040C00100206C02002055
:102C00000000C8420000204100002440F8000020DD
:102C1000BC0100205401002046E007EB870100EBD7
:102C20004100A0F13007384606F076F80690EF49EB
:102C3000069805F0A2FE0021059005F069FE0690B9
:102C400001200790EA49E01D085C3038E949087026
:102C500002F012FFE8480168069805F056FE06905B
:102C6000E649069805F089FE019006F087F80246CD
:102C70000B46CDE902010020E14907F0E9F9CDE971
:102C8000040106F0BFF80690DE48DA4A127850F8E0
:102C90002210069805F03FFE0690DA49D54A1278D0
:102CA000069841F8220029E0D149E01D085C4E2831
:102CB00003DAE01D085C4C281ED1CD49E01D085CFC
:102CC0004E280BDBCB480078401CCA4908700846E8
:102CD0000078062812DD002008700FE0C548007853
:102CE000002805DDC3480078401EC249087005E091
:102CF0000620C049087001E0FEF7F5FC0020C2493B
:102D0000087045E0B9F1040F42D1B948005D88B9B7
:102D10000020BE4908704FF40051BD4803F007FF82
:102D2000002001F0D4FA002001F04BFA0020B9494C
:102D300008702DE000200790AD49601C085C002859
:102D400022DD601C085C04281EDA201D095CA84AEC
:102D5000E01C105C01EB0027B7F5805F14D2012066
:102D60000790AA4908704103A94803F0DEFEA04A73
:102D7000611C505C01F0ABFA384601F022FA0120E8
:102D8000A4490870FEF760FC079808B9FEF7ABFC91
:102D90000020A149087000BFC0E5A0480078A02825
:102DA0007ED0A12802D0A2287BD13FE000209C4900
:102DB000087064219A4802780078401C984B18707B
:102DC000984881541021184602780078401C1870E9
:102DD000944881540421184602780078401C1870E9
:102DE00090488154A121184602780078401C187040
:102DF0008C488154A122184601780078401C187034
:102E0000884842540D22184601780078401C1870FA
:102E1000844842540A22184601780078401C1870F1
:102E20008048425401208049087087E000207C4996
:102E300008706422084601780078401C784B1870AE
:102E4000784842541021184602780078401C1870C7
:102E5000744881540422184601780078401C187088
:102E600070484254A221184602780078401C18701D
:102E70006C488154184602780078401C18706948E4
:102E800081540D21184602780078401C187065485E
:102E900081540A21184602780078401C187001E01D
:102EA00006E045E05F48815401205F49087045E035
:102EB00000205B4908706421594802780078401C62
:102EC000574B1870574881541022184601780078E3
:102ED000401C187053484254042118460278007868
:102EE000401C18704F488154A02118460278007881
:102EF000401C18704B488154A02218460178007875
:102F0000401C1870474842540D211846027800783A
:102F1000401C1870434881540A21184602780078F2
:102F2000401C18703F48815401203F49087005E05B
:102F300000203B4908703C49087000BF00BF704743
:102F400070B50024002500BF21E000BF40213748B4
:102F500004F00CFA0028F9D03548015D334804F03C
:102F600097F900BF4021314804F000FA0128F9D157
:102F70002F48005D0D2801D1012506E02C48005D99
:102F80000A2802D1012D00D103E0601CC4B2322C0A
:102F9000DBDB00BF70BD70B50024002500BF21E061
:102FA00000BF4021214804F0E1F90028F9D01D4874
:102FB000015D1E4804F06CF900BF40211B4804F07D
:102FC000D5F90128F9D11748005D0D2801D1012557
:102FD00006E01448005D0A2802D1012D00D103E06B
:102FE000601CC4B2142CDBDB00BF70BD0000C84203
:102FF000F4010020B9010020B001002000002041B0
:10300000000024409401002077000020540000209C
:1030100000100140550000206B0000203800002007
:103020007400002058020020750000200048004075
:103030002602002010B504466FF0040004F03FFAA9
:10304000E11704EB5171C1F3C701294A1170104611
:10305000007800EB4001C1EBC0104FF6FF7101EAB0
:10306000C0002449088010BD0146224A12884A4304
:103070004FF0E0235A6100229A6101221A6100BFD9
:103080004FF0E022106900F001021AB100F4803222
:10309000002AF5D000224FF0E0231A619A617047B0
:1030A0000146134A12784A434FF0E0235A61002246
:1030B0009A6101221A6100BF4FF0E022106900F00E
:1030C00001021AB100F48032002AF5D000224FF03C
:1030D000E0231A619A61704710B5044602E00120AE
:1030E000FFF7C2FF2000A4F10104F8D110BD0000D9
:1030F0007A0000207C00002008B50121082003F0A0
:1031000023FF0320ADF8000000208DF8030003200A
:103110008DF802006946E34803F05AFC01211020B3
:1031200003F012FF1020ADF8000000208DF803001E
:1031300003208DF802006946DB4803F049FC08BD16
:1031400010B50121084603F0F2FE01214FF406708C
:1031500003F0FAFED548D6490860D64848600020FA
:1031600088601E20C86000200861802048614000FF
:1031700088618000C8612020086200024862002047
:103180008862CD4804F05CFA0121CB4804F083FA50
:10319000C6484C3803F040F80020C84908600120B8
:1031A000087148714FF4602088600020C8600320D7
:1031B0000874BE484C3803F056F807230122082152
:1031C000BA484C3803F0E7F8072302220921B74830
:1031D0004C3803F0E0F8072303220E21B3484C38A3
:1031E00003F0D9F80121B1484C3803F073F80121FC
:1031F000AE484C3803F063F8AC484C3803F081F823
:1032000000BFAA484C3803F081F80028F9D1A7483C
:103210004C3803F085F800BFA4484C3803F085F81B
:103220000028F9D10121A1484C3803F088F810BDDD
:1032300010B5FFF761FFFFF783FF4FF4004003F085
:10324000E7FD0121084603F072FE10BD70B50024B1
:1032500000259B48048804EB4411080B05F05CFD35
:10326000054670BD2DE9F04F87B00024A146A24667
:10327000A3460020049000BF20E04FF0000AD14692
:1032800011E009EB49008B4901EB400030F81400D4
:103290004FF6FF7190FBF1F201FB1200824409F13D
:1032A000010000F0FF09B9F10A0FEADB0A20BAFBBE
:1032B000F0F005A941F82400601CC4B2022CDCDB4C
:1032C000069805F029FD8346584605F057FD4FF056
:1032D00066327C4BCDE9000105F034FC00227A4BCC
:1032E000CDE9020105F0A0FC074600224FF0804323
:1032F00005F028FC054605F085FD8346059805F098
:103300000BFD0490049805F039FD05464FF0663238
:103310006C4B05F017FC00226B4BCDE9020105F068
:1033200083FC074605F06EFD049007B0BDE8F08F02
:103330002DE9F84F4FF0000AD3460020009000BF5F
:103340000AE00AEB4A005B4901EB400080888344B5
:103350000AF1010000F0FF0ABAF10A0FF1DB0A20BE
:10336000BBFBF0FB584605F0D7FC0090009805F039
:1033700005FD06464FF06632524B05F0E3FB04466E
:103380000022514B05F050FC804605F03BFD0090BB
:103390000098BDE8F88F10B500210022002000BF82
:1033A00008E001EB4103434C04EB43039B881A44C0
:1033B0004B1CD9B20A29F4DB0A23B2FBF3F2104604
:1033C00010BD2DE9FE4F4FF0000AD34600200290B9
:1033D00000BF09E00AEB4A00364931F81000834487
:1033E0000AF1010000F0FF0ABAF10A0FF2DB0A202D
:1033F000BBFBF0FB584605F08FFC0290029805F0ED
:10340000BDFC4FF066322F4BCDE9000105F09AFB71
:10341000064600222C4B05F007FC04462B4A2C4B99
:1034200005F090FB804605F0EDFC02900298BDE8A7
:10343000FE8F2DE9FE4F4FF0000AD3460020029088
:1034400000BF0AE00AEB4A001A4901EB400040883D
:1034500083440AF1010000F0FF0ABAF10A0FF1DB20
:103460000A20BBFBF0FB584605F056FC0290029880
:1034700005F084FC4FF06632124BCDE9000105F0F7
:1034800061FB06460022104B05F0CEFB04460F4AB6
:103490000F4B05F057FB804605F0B4FC02900298F4
:1034A000BDE8FE8F000C0140001001404C2401409B
:1034B000B4020020E002002008000240A002002028
:1034C0007E00002066660A400000B040F6285C8F4F
:1034D000C2F5174008B54FF4C06003F0A1FF072004
:1034E0008DF8000002208DF8010001208DF8020007
:1034F0008DF80300684603F098FF06208DF8000061
:1035000002208DF8010003208DF8020001208DF8C3
:103510000300684603F089FF08BD0EB501211120A4
:1035200003F012FDFFF7D6FF0120ADF80800482098
:103530008DF80B0002A94B4803F04AFA0021084617
:1035400003F05CFB0120009000208DF804000C20AB
:103550008DF8050001208DF80600684603F058F943
:103560000121002003F04AFB0220009000208DF88A
:1035700004000C208DF8050001208DF80600684637
:1035800003F046F90EBD10B5012003F0A7F910B104
:10359000012035490870012003F0B1F910BD10B5C4
:1035A000022003F09BF910B102202F49087002207D
:1035B00003F0A5F910BD10B500240121294803F03E
:1035C0009AFA00284CD10DE00121264803F093FA25
:1035D00038B90120FFF748FD641CB4F5FA7F01D328
:1035E00001E000E0F0E700BF142C19D91F48006883
:1035F000B0B11E480068012803D102201B490860B1
:103600000AE01A480068032803D10120184908700D
:1036100002E0002015490860C82001F031FE02E0F8
:10362000002012490860B4F5F57F19D311480078DD
:1036300060B9FF200F490870FDF704F84FF47A7065
:1036400001F01EFE01200C49087009E009480078CD
:10365000FF2805D1A02009490870012006490870FB
:1036600010BD000000080140800000205000002034
:10367000490000200A0000208100002038000020BE
:1036800008B50121102003F05FFC00214FF4002059
:1036900003F067FC4FF44060ADF8000010208DF897
:1036A000030003208DF802006946FB4803F090F9FF
:1036B0004FF44061F84803F03AFA08BD08B54FF4FA
:1036C000C06003F0ADFE34208DF8000001208DF8BD
:1036D000010004208DF8020001208DF803006846E7
:1036E00003F0A3FE08BD00B585B00121102003F052
:1036F0002BFC0121C80403F034FC4FF48060ADF8CA
:10370000100018208DF8130003208DF8120004A972
:10371000E14803F05DF94FF40060ADF810000420BB
:103720008DF8130004A9DC4803F052F94FF4E1309E
:1037300000900020ADF80400ADF80600ADF80800D8
:10374000ADF80C000C20ADF80A006946D34803F030
:10375000A6FC0121D14803F02EFDFFF7AFFF0122A7
:1037600040F22551CD4803F032FD0121CB4803F052
:1037700022FD05B000BD10B540F22551C74803F049
:10378000F5FD012831D140F22551C44803F02EFE49
:10379000C24803F081FDC4B2C1480078022824D099
:1037A0000D2C03D10120BE4908700FE0BC48007801
:1037B00001280BD10A2C06D10220B9490870042037
:1037C000B849087002E00020B5490870B648017891
:1037D0000078401CB44A1070B44844541046007835
:1037E0001E2802DB00201146087010BD10B50446EB
:1037F00000BF4021204603F0B9FD0028F9D0452143
:10380000204603F045FD00BF4021204603F0AEFDF9
:103810000028F9D05221204603F03AFD00BF402194
:10382000204603F0A3FD0028F9D05221204603F0E2
:103830002FFD00BF4021204603F098FD0028F9D05D
:103840004F21204603F024FD00BF4021204603F015
:103850008DFD0028F9D00D21204603F019FD00BF91
:103860004021204603F082FD0028F9D00A2120469D
:1038700003F00EFD10BD10B5044600BF40212046E8
:1038800003F074FD0028F9D04F21204603F000FD1D
:1038900000BF4021204603F069FD0028F9D04B21EC
:1038A000204603F0F5FC00BF4021204603F05EFDFA
:1038B0000028F9D00D21204603F0EAFC00BF40218A
:1038C000204603F053FD0028F9D00A21204603F0DA
:1038D000DFFC10BD70B50546002400BF402128461E
:1038E00003F044FD0028F9D04821284603F0D0FC1D
:1038F00000BF4021284603F039FD0028F9D05721A8
:10390000284603F0C5FC00BF4021284603F02EFDE9
:103910000028F9D03A21284603F0BAFC002417E029
:103920006348005D0D2805D16149601C085C0A28C8
:1039300000D10FE000BF4021284603F017FD00280A
:10394000F9D05B48015D284603F0A2FC601CC4B2BC
:10395000132CE5DB00BF00BF4021284603F006FD25
:103960000028F9D00D21284603F092FC00BF402129
:10397000284603F0FBFC0028F9D00A21284603F072
:1039800087FC70BD70B50546002400BF4021284665
:1039900003F0ECFC0028F9D05321284603F078FC12
:1039A00000BF4021284603F0E1FC0028F9D04E2159
:1039B000284603F06DFC00BF4021284603F0D6FCEA
:1039C0000028F9D03A21284603F062FC002417E0D1
:1039D0003848005D0D2805D13649601C085C0A286E
:1039E00000D10FE000BF4021284603F0BFFC0028B3
:1039F000F9D03048015D284603F04AFC601CC4B28F
:103A0000132CE5DB00BF00BF4021284603F0AEFCCD
:103A10000028F9D00D21284603F03AFC00BF4021D0
:103A2000284603F0A3FC0028F9D00A21284603F019
:103A30002FFC70BD70B5064600251F4C00BF40210D
:103A4000304603F093FC0028F9D05421304603F0AF
:103A50001FFC00BF4021304603F088FC0028F9D04D
:103A60004521304603F014FC00BF4021304603F0EE
:103A70007DFC0028F9D04D21304603F009FC00BF41
:103A80004021304603F072FC0028F9D03A2130463C
:103A900003F0FEFB00251FE000100140004C004039
:103AA0008300002084000020820000201C030020EE
:103AB000860000209A0000206400002000BF402102
:103AC000304603F053FC0028F9D014F8011B3046AF
:103AD00003F0DEFB681CC5B2042DEFDB00BF402104
:103AE000304603F043FC0028F9D00D21304603F0A6
:103AF000CFFB00BF4021FA4803F038FC0028F9D082
:103B00000A21304603F0C4FB70BD70B50546F54987
:103B1000F548006804F0FFFE0646304605F01AF945
:103B200004460A20B4FBF0F400BF4021284603F00D
:103B30001DFC0028F9D05621284603F0A9FB00BF40
:103B40004021284603F012FC0028F9D042212846E3
:103B500003F09EFB00BF4021284603F007FC00282D
:103B6000F9D05221284603F093FB00BF402128469C
:103B700003F0FCFB0028F9D03A21284603F088FB2B
:103B800000BF4021284603F0F1FB0028F9D0C4F320
:103B90000F21284603F07CFB00BF4021284603F09C
:103BA000E5FB0028F9D0E1B2284603F071FB00BF25
:103BB0004021284603F0DAFB0028F9D00D212846E1
:103BC00003F066FB00BF4021284603F0CFFB00282E
:103BD000F9D00A21284603F05BFB70BD2DE9F84FB0
:103BE000002400260025A046A146002700BF58E279
:103BF000BE48007840B3BE480078072824DBBD48A3
:103C0000005D42281FD1BB49601C085C4F28F9D1D8
:103C1000A01C085C4F28F5D1E01C085C5428F1D1A9
:103C2000201D085C4F28EDD1601D085C4B28E9D1B0
:103C3000A01D085C0D28E5D1E01D085C0A28E1D133
:103C40000020AA4908702AE2AA48005D44283FD112
:103C5000A849601C085C41283AD1E01C085C3A285D
:103C600036D1A01D085C0D2832D1E01D085C0A2861
:103C70002ED1A01C085C312802D14FF0010906E0CA
:103C80009C49A01C085C322801D14FF002099A48D7
:103C900080F800900078D0B19649201D0F5C601D1F
:103CA000085C00EB0727B7F5805F10D292480078D8
:103CB000012804D1B9B2002002F05FFD07E08E4870
:103CC0000078022803D1B9B2002002F063FDEEE1D2
:103CD0008848005D56287DD18649601C085C4228D2
:103CE000F9D1A01C085C5228F5D1E01C085C3A28E8
:103CF000F1D1201D085C3F2817D1601D085C0D28FC
:103D000013D1A01D085C0A280FD17C480078012837
:103D100003D17B48FFF7F9FEC1E178480078042819
:103D200091D16F48FFF7F1FEB9E104F109002828AD
:103D300089DA7049E01D085C0D2884D104F108007F
:103D4000085C0A28E8D1201D085C322862DB201DAF
:103D5000085C38285EDC601D085C30285ADB601D7A
:103D6000085C392856DCA01D085C302852DBA01DF9
:103D7000085C39284EDC0A46211D515CA1F1300057
:103D800004F0C1FF584908605A4A611D505C04F0B4
:103D9000C3FF83465B495448006804F0BCFD5946A4
:103DA000009004F060FD8246574904F0AEFD4E4994
:103DB0000860504AA11D505C04F0AEFF8346514993
:103DC0004948006804F0A7FD5946009004F04BFDF7
:103DD000824600E02EE04C4904F097FD424908601D
:103DE00048494148006804F0C8FD3F49086043481D
:103DF0000078012803D14248FFF73DFD06E03F4827
:103E00000078042802D13648FFF735FD052000F080
:103E100058FF4CE139480078012803D13848FFF7B2
:103E2000E5FC06E035480078042802D12C48FFF76D
:103E3000DDFC3CE12F48005D542828D12D49601C51
:103E4000085C452823D1A01C085C4D281FD1E01C2C
:103E5000085C3A281BD1201D085C3F2817D1601D43
:103E6000085C0D2813D1A01D085C0A280FD1234837
:103E70000078012803D12248FFF7DCFD06E01F4847
:103E80000078042802D11648FFF7D4FD0FE1194845
:103E9000005D532871D11749601C085C4E286CD115
:103EA000A01C085C3A2868D1E01C085C3F282DD192
:103EB000201D085C0D2829D1601D085C0A2825D129
:103EC0000E480078012803D10D48FFF75BFD06E09E
:103ED0000A480078042802D10148FFF753FDE6E0C4
:103EE000004C00400000C8425C0000204900002057
:103EF000820000201C030020850000208400002098
:103F0000003801400000204100004042002637E018
:103F1000F949301D085C0D2830D1701D085C0A2855
:103F20002CD1F6480078012803D1F548FFF7A3FC0F
:103F300006E0F2480078042802D1F248FFF79BFC23
:103F4000002506E0EC49E81C085CEF494855681C70
:103F5000C5B2B542F6DD0D222846691CCDB2EA494C
:103F60000A540A222846691CCDB2E7490A540220A5
:103F700000F0A7FE4FF0010804E017E0701CC6B285
:103F8000132EC5DB00BFB8F1000F6FD1DB480078FE
:103F9000012803D1DA48FFF729FC06E0D74800786A
:103FA000042802D1D748FFF721FC80E0D248005D09
:103FB000482874D1D049601C085C57286FD1A01CD8
:103FC000085C3A286BD1E01C085C3F2817D1201D03
:103FD000085C0D2813D1601D085C0A280FD1C74862
:103FE0000078012803D1C648FFF774FC06E0C348F7
:103FF0000078042802D1C348FFF76CFC57E0002684
:1040000037E0BD49301D085C0D2830D1701D085CBB
:104010000A282CD1B9480078012803D1B848FFF705
:104020002AFC06E0B5480078042802D1B548FFF71D
:1040300022FC002506E0B049E81C085CB34948555D
:10404000681CC5B2B542F6DD0D222846691CCDB20A
:10405000AE490A540A222846691CCDB2AB490A541B
:10406000042000F02EFE4FF0010804E017E0701C61
:10407000C6B2132EC5DB00BFB8F1000F0FD19F48A9
:104080000078012803D19E48FFF7B0FB06E09B486B
:104090000078042802D19B48FFF7A8FB07E0601CCA
:1040A000C4B29B480078801EA0423FF7A1AD00BF7C
:1040B000BDE8F88F00B585B00121042002F044FF6F
:1040C0000121480702F04DFF1020ADF8100000203C
:1040D0008DF8130003208DF8120004A98D4802F01A
:1040E00077FC10218B4802F020FD00200090019009
:1040F00002900390694602F0C2FA0121002002F00A
:10410000DBFA0021084602F038FB05B000BD2DE9BE
:10411000F0470446204604F0FFFD81467E494846AC
:1041200004F02BFC81464FF08B41484604F0F3FB32
:10413000824604F023FE07464FF06632774B04F0C8
:1041400073FD054604F05EFE8146484604F002FE1B
:1041500085B22946002002F010FBBDE8F08700B5CB
:1041600085B00121042002F0EFFE0121480702F092
:10417000F8FE2020ADF8100000208DF81300032079
:104180008DF8120004A9634802F022FC2021614846
:1041900002F0CBFC002000900190029002200390DE
:1041A0006946102002F06BFA0121102002F084FA17
:1041B0000021084602F0EEFA012002F0B9FA05B03B
:1041C00000BD10B50446A1B2002002F0E3FA10BD14
:1041D0002DE9FF5F04460D460026B146DFF840A1F9
:1041E000DFF840B15048039000200290204604F0D0
:1041F000C5FD07464D4A4E4B04F0ECFD00D8544631
:10420000204604F0BBFD07464A4A4B4B04F0CAFD6A
:1042100000D8444C2946204604F07DFB0446DDE9E5
:10422000021004F072FB80465146584604F06DFBC4
:104230004146009004F0A1FB07465146204604F099
:1042400064FB3946019004F098FB0646304604F0C2
:1042500068FD81464846FFF75AFFBDE8FF9F08B555
:104260000121082002F070FE4FF4C070ADF800008C
:1042700010208DF8030003208DF8020069462F48B6
:1042800002F0A6FB0121102002F05EFE4FF4005068
:10429000ADF8000010208DF8030003208DF8020017
:1042A0006946274802F094FB0121102002F04CFEE1
:1042B0004FF40070ADF8000028208DF803000320B3
:1042C0008DF8020069461E4802F082FB08BD10B559
:1042D000044634B1012C35D0022C3DD0032C4FD1F3
:1042E00044E08021154802F022FC4FF4807113480D
:1042F00002F01DFC4EE000001C03002084000020A2
:1043000000380140004C00409A0000208600002048
:10431000820000200008014000007A4466660A40DE
:10432000AE4773420AD7DB4100204E45295C8FC25D
:10433000F5684E407B14AE47E17A3B40000C0140EB
:104340000010014080212C4802F0EFFB4FF48071F7
:10435000294802F0ECFB1DE08021274802F0E7FB32
:104360004FF48071244802F0E0FB13E080212248E2
:1043700002F0DBFB4FF480711F4802F0D6FB09E02E
:1043800080211D4802F0D3FB4FF480711A4802F0DF
:10439000CEFB00BF00BF10BD70B504460D461646EB
:1043A0005CB94FF40051154802F0C1FB0020FFF743
:1043B0008EFF0020FFF705FF1CE04FF400710F484F
:1043C00002F099FB58B14FF400510C4802F0AFFBDA
:1043D0000020FFF77CFF0020FFF7F3FE0AE04FF418
:1043E0000051064802F0A1FB2846FFF770FF304657
:1043F000FFF7E7FE70BD0000000C01400010014017
:1044000008B50121082002F09FFD6020ADF80000F2
:1044100010208DF8030003208DF802006946FB4848
:1044200002F0D6FA08BD38B50446012C11D101219D
:10443000082002F089FD4020ADF8000010208DF822
:10444000030003208DF802006946F04802F0C0FA2C
:1044500010E00121082002F077FD4020ADF80000B7
:1044600048208DF8030003208DF802006946E748D4
:1044700002F0AEFA38BD10B54021E44802F055FB19
:104480001420FEF70DFE2021E04802F04EFB142020
:10449000FEF706FE4021DD4802F049FB1420FEF73E
:1044A000FFFD2021D94802F042FB10BD10B540218C
:1044B000D64802F03CFB1420FEF7F2FD2021D34841
:1044C00002F033FB1420FEF7EBFD4021CF4802F051
:1044D0002CFB1420FEF7E4FD10BD10B5FF24402195
:1044E000CA4802F022FB0020FFF79DFF2021C748A9
:1044F00002F01DFB1420FEF7D3FD2021C34802F07B
:1045000014FB1420FEF7CCFD08E0601EC4B214B901
:10451000FFF7CCFF10BD1420FEF7C2FD4021BB48C1
:1045200002F0E9FA0028F0D12021B84802F0FFFAA1
:104530000120FFF778FF00BFECE770B504460825BF
:1045400000BF04F08000802804D14021AF4802F071
:10455000ECFA03E04021AD4802F0E9FA1420FEF73E
:104560009FFD2021A94802F0E0FA1420FEF798FDF3
:104570002021A64802F0DBFA1420FEF791FD600628
:10458000040E681EC0B20500DBD1FFF7A6FF70BDA8
:1045900070B50826002480250020FFF744FF1E2068
:1045A000FEF77EFD1AE02021984802F0BEFA1E2098
:1045B000FEF776FD4021954802F09DFA08B12C43A4
:1045C00000E0AC436D081E20FEF76AFD20218F48F5
:1045D00002F0ADFA1E20FEF763FD761E002EE2D13A
:1045E0001E20FEF75DFD0120FFF71DFFE0B270BD4C
:1045F00010B5044624B14021844802F096FA03E045
:104600004021824802F093FA1E20FEF749FD202146
:104610007E4802F08AFA1E20FEF742FD20217B48E8
:1046200002F085FA10BD2DE9F04704460D4605F06D
:10463000FE09E7B2C4F307280120FFF7F4FEFFF7F5
:104640001AFF4846FFF779FF1420FEF729FD404680
:10465000FFF773FF1420FEF723FD3846FFF76DFFC9
:104660001420FEF71DFDFFF706FF2846FFF765FF44
:104670001420FEF715FDFFF78BFF0646FFF716FF28
:104680000120FFF7D0FE3046BDE8F0872DE9F04766
:1046900004460D46164606F0FE0904F0FF08C4F372
:1046A00007270120FFF7BFFEFFF7E5FE4846FFF7AB
:1046B00044FF3220FEF7F4FC3846FFF73EFF32207D
:1046C000FEF7EEFC4046FFF738FF3220FEF7E8FC2D
:1046D0002846FFF732FF3220FEF7E2FCFFF7E6FE46
:1046E000BDE8F0872DE9F0410646002400270025AB
:1046F00000BF0BE07019A121FFF795FF074607EBFC
:1047000004241420FEF7CCFC681CC5B2042DF1DB98
:104710002046BDE8F081F8B506460C460025E0B21B
:104720008DF80300200A8DF80200200C8DF801009E
:10473000200E8DF8000000BF0AE01DF8051070196A
:10474000A022FFF7A3FF0520FEF78EFC681CC5B270
:10475000042DF2DBF8BD2DE9F3410D4600246F4630
:104760003E4600BF0AE031782819A022FFF78EFFED
:10477000761C1420FEF794FC601CC4B2042CF2DBFF
:10478000BDE8FC81F8B5054600246F4600BF0AE08D
:104790002819A121FFF747FF0DF804000A20FEF7B2
:1047A0007FFC601CC4B2042CF2DB3E683046F8BDCE
:1047B0002DE9F04104460D461746FFF75CFEA020A8
:1047C000FFF7BBFE0A20FEF76BFCC4F3072630465A
:1047D000FFF7B3FE0A20FEF763FCE6B23046FFF7B0
:1047E000ACFE0A20FEF75CFC002608E02878FFF704
:1047F000A4FE1420FEF754FC6D1C701CC6B2BE4211
:10480000F4DBFFF753FEBDE8F0810000000C01402F
:104810002DE9F04105460E461746FFF72CFEA02075
:10482000FFF78BFE1E20FEF73BFC4021F94802F00B
:1048300062F908B9BDE8F081C5F307242046FFF707
:104840007CFE4021F34802F056F900B9F2E7ECB2E1
:104850002046FFF772FE4021EE4802F04CF900B905
:10486000E8E700240EE03078FFF767FE0A20FEF745
:1048700017FC4021E74802F03EF900B9DAE7761C60
:10488000601CC4B2BC42EEDBFFF710FE00BFD1E7F4
:104890002DE9F04705468A461646002405EB060832
:1048A000AF094FEA9819B81C814501D9BDE8F087D6
:1048B0004F4508D1324651462846FFF7A9FF14203C
:1048C000FEF7EEFB17E005F03F04C4F1400422467A
:1048D00051462846FFF79CFF1420FEF7E1FB341BEE
:1048E000781C4FEA8018E2B251464046FFF790FF2D
:1048F0001420FEF7D5FB00BFD8E710B50024FFF762
:1049000047FE0446204610BD2DE9F04106460C4600
:10491000174600250BE07019A321FFF784FE80469F
:1049200004F8018B1420FEF7BBFB681CC5B2BD4226
:10493000F1DBBDE8F08173B50546002401AE00BF90
:104940000AE016F8011B2819A022FFF79FFE052098
:10495000FEF78AFB601CC4B2042CF2DB7CBDF8B508
:10496000054600200090002600246F4600BF0EE0A0
:104970002819A121FFF757FE3855385DFF2801D1CE
:10498000701CC6B20A20FEF78BFB601CC4B2042C5C
:10499000EEDB042E01DB002000900098F8BD10B57E
:1049A000002400BF09E04FF4827101EB8400FFF79F
:1049B000D6FF994941F82400641C102CF3D310BD94
:1049C00010B5002400BF0DE00020944941F82400F8
:1049D0004FF4A57101EB8400FFF784FE8F4941F885
:1049E0002400641C102CEFD310BD10B5002400BFB0
:1049F00009E04FF4CD7101EB8400FFF7B0FF884967
:104A000041F82400641C072CF3D310BD10B500241A
:104A100000BF0DE0824A52F82410A02202EB84026B
:104A200002F1FA00FFF787FF0520FEF71DFB641C6B
:104A3000072CEFD310BD10B5002400BF1AE0764A52
:104A400052F824100A2202EB840202F1FA00FFF766
:104A500072FF0520FEF708FB704A52F8241050221E
:104A600002EB840202F1FA00FFF755FE0520FEF783
:104A7000FBFA641C102CE2D300240DE0684A52F8C3
:104A80002410A02202EB840202F1FA00FFF753FF88
:104A90000520FEF7E9FA641C072CEFD310BD10B512
:104AA000A8B0002440225F4918A803F0CAFE4022A3
:104AB0005C49403108A803F0C4FE1C2259498031EA
:104AC00001A803F0BEFE00BF26E018A850F824009D
:104AD000514941F8240018AA52F824100A2202EB86
:104AE000840202F1FA00FFF726FF0520FEF7BCFA68
:104AF00008AA52F82410502202EB840202F1FA00B4
:104B0000FFF709FE08A850F82400444941F82400A2
:104B10000520FEF7A9FA641C102CD6D3002413E05C
:104B200001A850F824003E4941F8240001AA52F897
:104B30002410A02202EB840202F1FA00FFF7FBFE30
:104B40000520FEF791FA641C072CE9D328B010BDAC
:104B500070B500240026002500BF27E00A20FEF7DC
:104B60009FFA04F2F510A121FFF75DFD2E490855CB
:104B70000846005DFF2801D12A2008552A48005D1B
:104B800018B12948005D0D2800D1012565B10D221D
:104B90002046611CCCB224490A540A222046611CDA
:104BA000CCB221490A5403E0601CC4B2142CD5DBFA
:104BB00000BF0025002427E00A20FEF771FA04F266
:104BC0001220A121FFF72FFD184908550846005D66
:104BD000FF2801D12A2008551448005D18B1134858
:104BE000005D0D2800D1012565B10D222046611C14
:104BF000CCB20E490A540A222046611CCCB20B49A1
:104C00000A5403E0601CC4B2142CD5DB00BF00259D
:104C1000002435E0000C0140F80000205401002081
:104C20009401002054AA00089A00002044030020A8
:104C30000A20FEF735FA04F50C70A121FFF7F3FC0A
:104C4000EF4908550846005DFF2801D12A20085584
:104C5000EB48005D18B1EA48005D0D2800D1012540
:104C600065B10D222146601CC4B2E54842540A22B7
:104C70002046611CCCB2E2490A5403E0601CC4B275
:104C8000142CD5DB00BF4FF4E670FFF768FEDD495A
:104C90000860DD49DB48006804F0DAF805D9DB4933
:104CA000D848006804F0CAF802D8D948D549086045
:104CB00070BD10B5FFF773FEFFF782FEFFF795FE9C
:104CC00010BD70B505460024012D01D0FF2D07D180
:104CD0000A20FEF7C9F9A022AA210120FFF7D6FC7D
:104CE000022D01D0FF2D19D1002414E00A20FEF777
:104CF000BBF9C84A115D04F2F510A022FFF7C6FC0B
:104D0000C448005D00B908E0C248005D0D2800D12C
:104D100003E0601CC4B21E2CE8DB00BF032D01D0F1
:104D2000FF2D19D1002414E00A20FEF79DF9BA4A9C
:104D3000115D04F21220A022FFF7A8FCB648005D26
:104D400000B908E0B448005D0D2800D103E0601C04
:104D5000C4B2142CE8DB00BF042D01D0FF2D19D103
:104D6000002414E00A20FEF77FF9A54A115D04F53E
:104D70000C70A022FFF78AFCA148005D00B908E092
:104D80009F48005D0D2800D103E0601CC4B2142CC4
:104D9000E8DB00BF052D01D0FF2D05D19948016842
:104DA0004FF4E670FFF7C7FD70BD10B50024A121D8
:104DB0000120FFF738FC0446AA2C05D0FFF76FFE50
:104DC000FF20FFF77EFF03E0FFF773FFFFF7C0FE52
:104DD00010BD2DE9F0410826002400278025002081
:104DE000FFF721FB3220FEF75BF917E06420FEF7A6
:104DF00057F92021894801F098FE6420FEF750F908
:104E00004021864801F077FE08B12C4300E0AC4316
:104E10006D082021814801F08AFE761E002EE5D122
:104E20003220FEF73DF90120FFF7FDFA40217B48D3
:104E300001F07DFE3220FEF733F92021774801F0A2
:104E400074FE3220FEF72CF92021744801F06FFE29
:104E50000020FFF7E8FA3220FEF722F90826802525
:104E600017E06420FEF71CF920216C4801F05DFE7C
:104E70006420FEF715F94021684801F03CFE08B1B6
:104E80002F4300E0AF436D082021644801F04FFE3E
:104E9000761E002EE5D13220FEF702F90120FFF741
:104EA000C2FA40215D4801F042FE3220FEF7F8F8D8
:104EB00020215A4801F039FE3220FEF7F1F8202176
:104EC000564801F034FE0020FFF7ADFA3220FEF71D
:104ED000E7F83220FEF7E4F80120FFF7A4FA07EB29
:104EE000042424092046BDE8F0812DE9F04106465E
:104EF0000C46154605F0FE070120FFF794FA322014
:104F0000FEF7CEF8FFF7B7FA3220FEF7C9F83846B9
:104F1000FFF713FB3220FEF7C3F83046FFF70DFB17
:104F20003220FEF7BDF82046FFF707FB3220FEF7E0
:104F3000B7F8FFF7BBFA4FF47C50FEF7B1F8BDE8C5
:104F4000F0812DE9F04105460C46002604F0FE07ED
:104F50000120FFF768FAFFF78EFA3846FFF7EDFAFF
:104F60003220FEF79DF82846FFF7E7FA3220FEF7D9
:104F700097F8FFF780FA2046FFF7DFFA3220FEF7B6
:104F80008FF8FFF726FF0646FFF790FA0120FFF79C
:104F90004AFA3046BDE8F0812DE9F0470024A146E9
:104FA00093210020FFF7CDFF0446B4F5006F10D227
:104FB000204603F0B1FE8146484603F0DFFE074677
:104FC0000022174B03F0BEFD054603F01BFF814690
:104FD00013E040F6FF71081B03F09EFE814689F046
:104FE000004A504603F0CAFE054600220C4B03F06F
:104FF000A9FD074603F006FF81464846BDE8F08755
:10500000860000205C0000200000B4420000C04187
:10501000000028429A00002044030020000C0140B8
:105020000000B03F08B54FF4E06002F0F9F91C2031
:105030008DF8000000208DF8010003208DF802009B
:1050400001208DF80300684602F0EFF908BD0EB5A7
:105050000121084601F085FF4FF0804002F0E4FC9A
:105060004CF25030ADF804004720ADF800000020AD
:10507000ADF80600ADF8020069464FF0804002F03E
:10508000A7FD0121880703F0C5FB01221146900707
:1050900003F015F90121880703F0F6F8002101203B
:1050A00001F05FFF0EBD10B5FFF7BCFFFFF7CFFFAC
:1050B00010BD10B5044644B10121084601F051FF6E
:1050C0000121880703F0E0F808E00021012001F049
:1050D00048FF00214FF0804003F0D6F810BD10B516
:1050E0000121880703F099FB30B30121880703F001
:1050F000A5FB15480078401C134908700846007845
:10510000052190FBF1F201FB1200A8B90F480078CD
:10511000022818D10E480078401C0D490870087804
:1051200000EBD0714910A0EB410131B1012000F03A
:1051300007F9012000F011F905E0002000F000F966
:10514000002000F00AF910BDB4000020300000205B
:10515000B300002008B50121042001F0F5FE4FF452
:10516000CC50ADF8000010208DF8030003208DF81E
:1051700002006946CD4801F02BFC08BD08B50121AD
:10518000042001F0E1FE4F20ADF8000048208DF82A
:10519000030003208DF802006946C44801F018FCA2
:1051A00008BD08B50121082001F0CEFE4FF2803085
:1051B000ADF8000010208DF8030003208DF80200E8
:1051C0006946BB4801F004FC08BD08B50121102068
:1051D00001F0BAFE43F2CB30ADF8000010208DF89C
:1051E000030003208DF802006946B24801F0F0FB8D
:1051F00008BD08B50121102001F0A6FE0420ADF87D
:10520000000028208DF8030003208DF80200694675
:10521000A84801F0DDFB08BD08B50121202001F000
:1052200093FE0420ADF8000010208DF80300032049
:105230008DF802006946A04801F0CAFB08BD10B510
:10524000FFF788FFFFF7ADFFFFF7BFFFFFF7E4FFB2
:10525000FFF794FFFFF7CDFF00F04CFB00F0E7FBFA
:1052600010BD10B504462CB14FF48051914801F0A7
:105270005CFC04E04FF480518E4801F058FC10BDF6
:1052800010B504464FF480518A4801F04EFCA0B29C
:10529000FDF7EAFE4FF48051864801F048FC10BD4E
:1052A00010B5044624B18021804801F03EFC03E0A3
:1052B00080217E4801F03BFC10BD10B5044624B1AE
:1052C00001217C4801F031FC03E00121794801F023
:1052D0002EFC10BD10B5044624B10221754801F022
:1052E00024FC03E00221734801F021FC10BD10B53D
:1052F000044624B104216F4801F017FC03E00421A7
:105300006C4801F014FC10BD10B5044624B108210E
:10531000684801F00AFC03E00821664801F007FC38
:1053200010BD10B504462CB14FF40071604801F077
:10533000FCFB04E04FF400715D4801F0F8FB10BD88
:1053400010B5044624B104215B4801F0EEFB03E0F4
:105350000421594801F0EBFB10BD10B504462CB1F7
:105360004FF48051524801F0E0FB04E04FF48051CB
:105370004F4801F0DCFB10BD10B504462CB14FF4D2
:1053800000514B4801F0D1FB04E04FF48041484804
:1053900001F0CDFB10BD10B504462CB14FF4804197
:1053A000434801F0C2FB04E04FF48041404801F063
:1053B000BEFB10BD10B504462CB14FF400413C4873
:1053C00001F0B3FB04E04FF40041394801F0AFFBBA
:1053D00010BD10B5044624B14021364801F0A5FBAC
:1053E00003E04021334801F0A2FB10BD10B5044694
:1053F0002CB14FF400512F4801F097FB04E04FF41B
:1054000000512C4801F093FB10BD10B5044634B197
:10541000012C0AD0022C12D0032C20D119E04FF419
:10542000C071234801F083FB1AE08021204801F07D
:105430007CFB4FF480711E4801F079FB10E04FF4C3
:1054400080711B4801F071FB8021194801F06FFB4E
:1054500006E04FF4C071164801F067FB00E000BFA2
:1054600000BF10BD08B50121042001F06DFD1C2016
:10547000ADF8000004208DF8030003208DF8020031
:1054800069460A4801F0A4FA08BD10B500240421B9
:10549000064801F030FB40B90821044801F02BFB1D
:1054A00018B94021014801F026FB10BD0008014059
:1054B000000C01400010014000140140F0B58DB017
:1054C00004463022E24901A803F0BBF96069451E99
:1054D000642195FBF1F12846EA1705EB9272C1EBC6
:1054E000A2014FF4C87295FBF2F28F186069C117E0
:1054F00000EB91718910A0EB810191B9642261697F
:1055000091FBF2F302FB131131B99200616991FB37
:10551000F2F302FB131121B92169022901DD0126F1
:1055200000E0002640F26D1005FB00712069401E6E
:1055300001AA52F820000844E16808440644072004
:1055400096FBF0F100FB1160A0610DB0F0BD10B54D
:1055500001460869801E0861002805DC08690C30D6
:1055600008614869401E48616423486990FBF3F074
:105570004A69D31702EB9373C0EBA3004FF4C874CE
:1055800092FBF4F3034440F26F14086960430C2467
:1055900090FBF4F01844CB68034440F26D1402FB16
:1055A0000430AC4BC01A00EB40008B6803EBC0002A
:1055B000C0EB00104B6803EB8000C0EB00100B68E1
:1055C00003EB800010BD2DE9F04107460C46A248D0
:1055D000B7FBF0F6B7FBF0F100FB11784FF4616018
:1055E00098FBF0F0A0604FF4616098FBF0F100FBD5
:1055F00011803C2190FBF1F060604FF4616098FBFA
:10560000F0F100FB11803C2190FBF1F201FB120054
:10561000206040F2B27509E005F0030010B94FF4C4
:10562000B77001E040F26D10361A6D1C05F00300F2
:1056300010B94FF4B77001E040F26D10B042EBDDED
:1056400065616069C11700EB91718910A0EB810160
:1056500011B91D2081494860012505E0681E7F4978
:1056600051F82000361A6D1C681E7C4951F8200044
:10567000B042F3DD1C2048602561701CE0602046CC
:10568000FFF71CFFBDE8F08108B500214FF0006076
:1056900001F0FDFE4FF4C06001F0C2FE03208DF862
:1056A000000001208DF8010000208DF8020001208B
:1056B0008DF80300684601F0B8FE08BD10B5012161
:1056C0004FF0C05001F04DFC012002F0F0F8012035
:1056D00001F0A7FB00BF412001F00BFB0028FAD02E
:1056E0004FF4807001F0B9FB012001F0BCFB02F027
:1056F00094F802F089F80121084602F029F802F036
:1057000083F847F6FF7002F059F802F07DF810BDFB
:1057100010B5044652A003F07FFD6069B0F5FC6F40
:1057200004DB40F63401606988420CDD4FF4FC6014
:105730006061052020610B20E0600F20A060322016
:1057400060603B20206010BD10B502F05DF8494854
:10575000FFF7DEFF4748FFF7B1FE4648FFF7F7FEC9
:10576000044602F01EF802F04FF810BD7FB5044663
:1057700040492046FFF727FF3E4800683D494968F9
:105780003C4A92683B4B9B693B4D2D68EB5CCDE9F5
:105790000032CDE902103748C3680269416937A079
:1057A00003F03AFD7FBD10B543480078012807D1CA
:1057B00001F0EEFF0446FFF7D9FF00203E490870D4
:1057C00010BD10B5FFF77AFFFFF75EFF042002F06F
:1057D000FEF84AF2A55188420FD038A003F01CFD14
:1057E000FFF76CFF3DA003F017FDFFF7ADFF4AF296
:1057F000A551042002F0DFF80EE07B2001F079FAD9
:1058000010B97A2001F075FA02F007F80121084674
:1058100001F09EFF01F0F8FF01F0D4FB10BD10B5C0
:10582000012002F01FF888B1012002F02BF80120BE
:105830002149087001F0E8FF01F0AAFF06498842FB
:1058400004D1002001F0ADFF01F0DEFF10BD00002B
:10585000F0AA00088BFA0A0080510100C000002065
:10586000456E74657220526567756C6174650D0ACA
:105870000000000060030020BC0000200D0A20B5DD
:10588000B1C7B0CAB1BCE4CEAA3A202564C4EA20AC
:105890002564D4C2202564C8D52028D0C7C6DA25FF
:1058A0007329202025302E32643A25302E32643A76
:1058B00025302E3264000000B80000200D0A0A20B6
:1058C000525443206E6F742079657420636F6E6646
:1058D0006967757265642E2E2E2E00000D0A205207
:1058E000544320636F6E666967757265642E2E2E51
:1058F0002E00000008B50121080201F025FB4FF43D
:105900007050ADF8000010208DF8030003208DF8D2
:1059100002006946FC4801F05BF84FF47051FA4808
:1059200001F005F908BD10B50446082C7CD2DFE86B
:1059300004F0040F1F2F3F4F5F704FF4C851F3481E
:1059400001F0F5F84FF48071F14801F0F0F86CE0E7
:105950004FF4C051ED4801F0EAF84FF48071EB4884
:1059600001F0E3F84FF48071E94801F0DEF85CE003
:105970004FF48851E54801F0DAF84FF40061E3484C
:1059800001F0D3F84FF48071E14801F0D0F84CE019
:105990004FF48051DD4801F0CAF84FF41061DB4844
:1059A00001F0C3F84FF48071D94801F0C0F83CE031
:1059B0004FF41061D54801F0BAF84FF48051D34844
:1059C00001F0B3F84FF48071D14801F0B0F82CE049
:1059D0004FF40061CD4801F0AAF84FF48851CB484C
:1059E00001F0A3F84FF48071C94801F0A0F81CE061
:1059F0004FF48071C54801F09AF84FF4C051C34884
:105A000001F093F84FF48071C14801F090F80CE078
:105A10000AE04FF4C851BD4801F087F84FF4807197
:105A2000BB4801F084F800E000BF00BF10BD08B51E
:105A30000121102001F088FA8020ADF8000010202C
:105A40008DF8030003208DF802006946B04800F08D
:105A5000BFFF8021AE4801F06AF808BD10B50446CA
:105A60008021AB4801F061F8A0B2FDF7FDFA80217A
:105A7000A74801F05CF810BD2DE9F04F87B04FF05A
:105A8000000A0020059004900390029081460A20AD
:105A9000FDF7EAFA9F480078FFF745FF0A20FDF777
:105AA000E3FA34E0FDF777FC9B490860084600689C
:105AB00040F60A71884213D996480078002826DDFE
:105AC00094480078401E9349087008460078FFF714
:105AD0002AFF0A20FFF7C2FF3220FDF7C5FA16E0C1
